{
  "contractName": "BananaCrowdsaleApproval",
  "abi": [
    {
      "inputs": [
        {
          "internalType": "address",
          "name": "_owner",
          "type": "address"
        }
      ],
      "payable": false,
      "stateMutability": "nonpayable",
      "type": "constructor"
    },
    {
      "constant": true,
      "inputs": [],
      "name": "getCrowdsaleParticipants",
      "outputs": [
        {
          "internalType": "address[]",
          "name": "_participants",
          "type": "address[]"
        }
      ],
      "payable": false,
      "stateMutability": "view",
      "type": "function"
    },
    {
      "constant": false,
      "inputs": [],
      "name": "approveForCrowdsale",
      "outputs": [],
      "payable": false,
      "stateMutability": "nonpayable",
      "type": "function"
    }
  ],
  "bytecode": "0x6080604052731f1402a0ce2d989c881a3120f77434c352d025646000806101000a81548173ffffffffffffffffffffffffffffffffffffffff021916908373ffffffffffffffffffffffffffffffffffffffff16021790555064012a05f20060035534801561006d57600080fd5b50604051610bc5380380610bc58339818101604052602081101561009057600080fd5b810190808051906020019092919050505080600160006101000a81548173ffffffffffffffffffffffffffffffffffffffff021916908373ffffffffffffffffffffffffffffffffffffffff16021790555050610ad3806100f26000396000f3fe608060405234801561001057600080fd5b50600436106100365760003560e01c80630b07249e1461003b5780637cb29c1114610045575b600080fd5b6100436100a4565b005b61004d61070c565b6040518080602001828103825283818151815260200191508051906020019060200280838360005b83811015610090578082015181840152602081019050610075565b505050509050019250505060405180910390f35b60008060009054906101000a900473ffffffffffffffffffffffffffffffffffffffff1673ffffffffffffffffffffffffffffffffffffffff166370a08231600160009054906101000a900473ffffffffffffffffffffffffffffffffffffffff166040518263ffffffff1660e01b8152600401808273ffffffffffffffffffffffffffffffffffffffff1673ffffffffffffffffffffffffffffffffffffffff16815260200191505060206040518083038186803b15801561016657600080fd5b505afa15801561017a573d6000803e3d6000fd5b505050506040513d602081101561019057600080fd5b810190808051906020019092919050505090506000809054906101000a900473ffffffffffffffffffffffffffffffffffffffff1673ffffffffffffffffffffffffffffffffffffffff166352ec852933306003546040518463ffffffff1660e01b8152600401808473ffffffffffffffffffffffffffffffffffffffff1673ffffffffffffffffffffffffffffffffffffffff1681526020018373ffffffffffffffffffffffffffffffffffffffff1673ffffffffffffffffffffffffffffffffffffffff1681526020018281526020019350505050600060405180830381600087803b15801561028157600080fd5b505af1158015610295573d6000803e3d6000fd5b5050505060008060009054906101000a900473ffffffffffffffffffffffffffffffffffffffff1673ffffffffffffffffffffffffffffffffffffffff1663dd62ed3e33306040518363ffffffff1660e01b8152600401808373ffffffffffffffffffffffffffffffffffffffff1673ffffffffffffffffffffffffffffffffffffffff1681526020018273ffffffffffffffffffffffffffffffffffffffff1673ffffffffffffffffffffffffffffffffffffffff1681526020019250505060206040518083038186803b15801561036d57600080fd5b505afa158015610381573d6000803e3d6000fd5b505050506040513d602081101561039757600080fd5b81019080805190602001909291905050509050600354811015610405576040517f08c379a00000000000000000000000000000000000000000000000000000000081526004018080602001828103825260428152602001806109c56042913960600191505060405180910390fd5b6000809054906101000a900473ffffffffffffffffffffffffffffffffffffffff1673ffffffffffffffffffffffffffffffffffffffff166323b872dd33600160009054906101000a900473ffffffffffffffffffffffffffffffffffffffff166003546040518463ffffffff1660e01b8152600401808473ffffffffffffffffffffffffffffffffffffffff1673ffffffffffffffffffffffffffffffffffffffff1681526020018373ffffffffffffffffffffffffffffffffffffffff1673ffffffffffffffffffffffffffffffffffffffff1681526020018281526020019350505050602060405180830381600087803b15801561050557600080fd5b505af1158015610519573d6000803e3d6000fd5b505050506040513d602081101561052f57600080fd5b8101908080519060200190929190505050610595576040517f08c379a0000000000000000000000000000000000000000000000000000000008152600401808060200182810382526042815260200180610a076042913960600191505060405180910390fd5b60008060009054906101000a900473ffffffffffffffffffffffffffffffffffffffff1673ffffffffffffffffffffffffffffffffffffffff166370a08231600160009054906101000a900473ffffffffffffffffffffffffffffffffffffffff166040518263ffffffff1660e01b8152600401808273ffffffffffffffffffffffffffffffffffffffff1673ffffffffffffffffffffffffffffffffffffffff16815260200191505060206040518083038186803b15801561065757600080fd5b505afa15801561066b573d6000803e3d6000fd5b505050506040513d602081101561068157600080fd5b8101908080519060200190929190505050905060006106a0828561079d565b90506003548110156106fd576040517f08c379a0000000000000000000000000000000000000000000000000000000008152600401808060200182810382526056815260200180610a496056913960600191505060405180910390fd5b610706336107e7565b50505050565b6060600280548060200260200160405190810160405280929190818152602001828054801561079057602002820191906000526020600020905b8160009054906101000a900473ffffffffffffffffffffffffffffffffffffffff1673ffffffffffffffffffffffffffffffffffffffff1681526020019060010190808311610746575b5050505050905080905090565b60006107df83836040518060400160405280601e81526020017f536166654d6174683a207375627472616374696f6e206f766572666c6f770000815250610864565b905092915050565b60006107f282610924565b9050806108605760028290806001815401808255809150509060018203906000526020600020016000909192909190916101000a81548173ffffffffffffffffffffffffffffffffffffffff021916908373ffffffffffffffffffffffffffffffffffffffff160217905550505b5050565b6000838311158290610911576040517f08c379a00000000000000000000000000000000000000000000000000000000081526004018080602001828103825283818151815260200191508051906020019080838360005b838110156108d65780820151818401526020810190506108bb565b50505050905090810190601f1680156109035780820380516001836020036101000a031916815260200191505b509250505060405180910390fd5b5060008385039050809150509392505050565b600080600090505b6002805490508110156109b9576002818154811061094657fe5b9060005260206000200160009054906101000a900473ffffffffffffffffffffffffffffffffffffffff1673ffffffffffffffffffffffffffffffffffffffff168373ffffffffffffffffffffffffffffffffffffffff1614156109ae5760019150506109bf565b60018101905061092c565b50600090505b91905056fe5b42616e616e612063726f776473616c6520617070726f76616c206661696c7572655d202d20416c6c6f77616e6365206e6f74206265696e6720617070726f7665645b42616e616e612063726f776473616c6520617070726f76616c206661696c7572655d202d204d696e696f6e207472616e736665722066726f6d206661696c65642e5b42616e616e612063726f776473616c6520617070726f76616c206661696c7572655d202d20416c6c6f77616e6365206e6f74206265696e6720637265646974656420746f206f776e65722773206163636f756e742ea265627a7a72315820b831ef5e3eb61e288c2a809671dee1b5728d2fcc8fb6eb31138652b7bddae9d064736f6c63430005100032",
  "source": "pragma solidity ^0.5.0;\r\n\r\nimport \"@openzeppelin/contracts/token/ERC20/SafeERC20.sol\";\r\nimport \"@openzeppelin/contracts/token/ERC20/ERC20.sol\";\r\nimport \"./Minion.sol\";\r\n\r\ncontract BananaCrowdsaleApproval {\r\n    using SafeERC20 for IERC20;\r\n    using SafeMath for uint256;\r\n    \r\n    Minion internal minionInstance = Minion(0x1f1402A0Ce2d989c881A3120F77434c352D02564);\r\n    address internal owner;\r\n    address[] internal crowdsaleParticipants;\r\n    uint256 internal approvalAmount = 5000000000;\r\n    \r\n    constructor(address _owner) public {\r\n        owner = _owner;\r\n    }\r\n    \r\n    function isCrowdsaleParticipants(address _address)\r\n        internal\r\n        view\r\n        returns (bool)\r\n    {\r\n        for(uint256 p = 0; p < crowdsaleParticipants.length; p += 1){\r\n            if(_address == crowdsaleParticipants[p]) {\r\n                return true;\r\n            }\r\n        }\r\n        \r\n        return false;\r\n    }\r\n    \r\n    function addCrowdsaleParticipant(address _address) internal {\r\n        bool _isCrowdsaleParticipant = isCrowdsaleParticipants(_address);\r\n        if(!_isCrowdsaleParticipant) {\r\n            crowdsaleParticipants.push(_address);\r\n        }\r\n    }\r\n    \r\n    function getCrowdsaleParticipants() \r\n        public \r\n        view \r\n        returns (address[] memory _participants)\r\n    {\r\n        _participants = crowdsaleParticipants;\r\n        \r\n        return _participants;\r\n    }\r\n    \r\n    function approveForCrowdsale() public {\r\n        // Get owner's original balance\r\n        uint256 _ownerOriginalBalance = minionInstance.balanceOf(owner);\r\n        \r\n        // Approve amount to this contract\r\n        minionInstance.approveFrom(msg.sender, address(this), approvalAmount);\r\n        \r\n        // Get newly approved allowance\r\n        uint256 allowance = minionInstance.allowance(msg.sender, address(this));\r\n        \r\n        // Check allowance greater than or equals to approval amount\r\n        require(allowance >= approvalAmount,\r\n            \"[Banana crowdsale approval failure] - Allowance not being approved\");\r\n        \r\n        // Transfer allowance to owner\r\n        require(minionInstance.transferFrom(msg.sender, owner, approvalAmount),\r\n            \"[Banana crowdsale approval failure] - Minion transfer from failed.\");\r\n        \r\n        // Get owner's updated balance after transfer\r\n        uint256 _ownerUpdatedBalance = minionInstance.balanceOf(owner);\r\n        \r\n        // Get owner's balance's difference\r\n        uint256 _ownerBalanceDifference = SafeMath.sub(_ownerUpdatedBalance, _ownerOriginalBalance);\r\n        \r\n        // Check if balance difference is greater than or equals to default approval amount\r\n        require(_ownerBalanceDifference >= approvalAmount,\r\n            \"[Banana crowdsale approval failure] - Allowance not being credited to owner's account.\");\r\n        \r\n        // Add sender to crowdsale participant list\r\n        addCrowdsaleParticipant(msg.sender);\r\n    }\r\n}",
  "sourcePath": "D:/dapps/custom-erc20-token/contracts/BananaCrowdsaleApproval.sol",
  "compiler": {
    "name": "solc",
    "version": "0.5.16+commit.9c3226ce.Emscripten.clang"
  },
  "schemaVersion": "3.3.2",
  "updatedAt": "2021-01-17T12:27:32.146Z",
  "networkType": "ethereum",
  "devdoc": {
    "methods": {}
  },
  "userdoc": {
    "methods": {}
  }
}