{
  "contractName": "Banana2500LP",
  "abi": [
    {
      "inputs": [
        {
          "internalType": "address",
          "name": "_bananaAddress",
          "type": "address"
        }
      ],
      "payable": false,
      "stateMutability": "nonpayable",
      "type": "constructor"
    },
    {
      "anonymous": false,
      "inputs": [
        {
          "indexed": false,
          "internalType": "address",
          "name": "sender",
          "type": "address"
        },
        {
          "indexed": false,
          "internalType": "uint256",
          "name": "bananaAmount",
          "type": "uint256"
        },
        {
          "indexed": false,
          "internalType": "uint256",
          "name": "ethAmount",
          "type": "uint256"
        }
      ],
      "name": "AddStake",
      "type": "event"
    },
    {
      "anonymous": false,
      "inputs": [
        {
          "indexed": false,
          "internalType": "address",
          "name": "stakeholder",
          "type": "address"
        },
        {
          "indexed": false,
          "internalType": "uint256",
          "name": "bananaAmount",
          "type": "uint256"
        }
      ],
      "name": "HarvestInterest",
      "type": "event"
    },
    {
      "anonymous": false,
      "inputs": [
        {
          "indexed": false,
          "internalType": "address",
          "name": "receiver",
          "type": "address"
        },
        {
          "indexed": false,
          "internalType": "uint256",
          "name": "bananaAmount",
          "type": "uint256"
        },
        {
          "indexed": false,
          "internalType": "uint256",
          "name": "ethAmount",
          "type": "uint256"
        }
      ],
      "name": "WithdrawStake",
      "type": "event"
    },
    {
      "constant": true,
      "inputs": [],
      "name": "BananaInstance",
      "outputs": [
        {
          "internalType": "contract IERC20",
          "name": "",
          "type": "address"
        }
      ],
      "payable": false,
      "stateMutability": "view",
      "type": "function"
    },
    {
      "constant": true,
      "inputs": [],
      "name": "bananaToWeiRate",
      "outputs": [
        {
          "internalType": "uint256",
          "name": "",
          "type": "uint256"
        }
      ],
      "payable": false,
      "stateMutability": "view",
      "type": "function"
    },
    {
      "constant": true,
      "inputs": [],
      "name": "bananaTotalStakes",
      "outputs": [
        {
          "internalType": "uint256",
          "name": "",
          "type": "uint256"
        }
      ],
      "payable": false,
      "stateMutability": "view",
      "type": "function"
    },
    {
      "constant": true,
      "inputs": [],
      "name": "ethTotalStakes",
      "outputs": [
        {
          "internalType": "uint256",
          "name": "",
          "type": "uint256"
        }
      ],
      "payable": false,
      "stateMutability": "view",
      "type": "function"
    },
    {
      "constant": true,
      "inputs": [],
      "name": "getStakeholders",
      "outputs": [
        {
          "internalType": "address[]",
          "name": "_stakeholders",
          "type": "address[]"
        }
      ],
      "payable": false,
      "stateMutability": "view",
      "type": "function"
    },
    {
      "constant": true,
      "inputs": [
        {
          "internalType": "address",
          "name": "_stakeholder",
          "type": "address"
        }
      ],
      "name": "stakeOfBanana",
      "outputs": [
        {
          "internalType": "uint256",
          "name": "",
          "type": "uint256"
        }
      ],
      "payable": false,
      "stateMutability": "view",
      "type": "function"
    },
    {
      "constant": true,
      "inputs": [
        {
          "internalType": "address",
          "name": "_stakeholder",
          "type": "address"
        }
      ],
      "name": "stakeOfEth",
      "outputs": [
        {
          "internalType": "uint256",
          "name": "",
          "type": "uint256"
        }
      ],
      "payable": false,
      "stateMutability": "view",
      "type": "function"
    },
    {
      "constant": false,
      "inputs": [
        {
          "internalType": "address",
          "name": "_stakeholder",
          "type": "address"
        },
        {
          "internalType": "uint256",
          "name": "_amount",
          "type": "uint256"
        }
      ],
      "name": "addStake",
      "outputs": [
        {
          "internalType": "bool",
          "name": "",
          "type": "bool"
        }
      ],
      "payable": true,
      "stateMutability": "payable",
      "type": "function"
    },
    {
      "constant": false,
      "inputs": [
        {
          "internalType": "address payable",
          "name": "_stakeholder",
          "type": "address"
        },
        {
          "internalType": "uint256",
          "name": "_bananaAmount",
          "type": "uint256"
        },
        {
          "internalType": "uint256",
          "name": "_ethAmount",
          "type": "uint256"
        }
      ],
      "name": "withdrawStake",
      "outputs": [
        {
          "internalType": "bool",
          "name": "_success",
          "type": "bool"
        }
      ],
      "payable": false,
      "stateMutability": "nonpayable",
      "type": "function"
    },
    {
      "constant": false,
      "inputs": [
        {
          "internalType": "address",
          "name": "_stakeholder",
          "type": "address"
        },
        {
          "internalType": "uint256",
          "name": "_amount",
          "type": "uint256"
        }
      ],
      "name": "harvestInterest",
      "outputs": [
        {
          "internalType": "bool",
          "name": "_success",
          "type": "bool"
        }
      ],
      "payable": false,
      "stateMutability": "nonpayable",
      "type": "function"
    }
  ],
  "bytecode": "0x60806040526703782dace9d90000600655600160075534801561002157600080fd5b506040516121a33803806121a38339818101604052602081101561004457600080fd5b8101908080519060200190929190505050806000806101000a81548173ffffffffffffffffffffffffffffffffffffffff021916908373ffffffffffffffffffffffffffffffffffffffff160217905550506120fe806100a56000396000f3fe6080604052600436106100915760003560e01c80639c6f92e8116100595780639c6f92e81461022a578063b699224714610281578063d6ffd8a4146102ed578063e7e67e6214610352578063f6467d21146103cf57610091565b80630d36243a146100965780632469a87b146100fb5780634b5c39491461012657806363436f65146101995780636374299e146101c4575b600080fd5b3480156100a257600080fd5b506100e5600480360360208110156100b957600080fd5b81019080803573ffffffffffffffffffffffffffffffffffffffff1690602001909291905050506103fa565b6040518082815260200191505060405180910390f35b34801561010757600080fd5b50610110610443565b6040518082815260200191505060405180910390f35b34801561013257600080fd5b5061017f6004803603604081101561014957600080fd5b81019080803573ffffffffffffffffffffffffffffffffffffffff16906020019092919080359060200190929190505050610449565b604051808215151515815260200191505060405180910390f35b3480156101a557600080fd5b506101ae61086a565b6040518082815260200191505060405180910390f35b610210600480360360408110156101da57600080fd5b81019080803573ffffffffffffffffffffffffffffffffffffffff16906020019092919080359060200190929190505050610870565b604051808215151515815260200191505060405180910390f35b34801561023657600080fd5b5061023f610e70565b604051808273ffffffffffffffffffffffffffffffffffffffff1673ffffffffffffffffffffffffffffffffffffffff16815260200191505060405180910390f35b34801561028d57600080fd5b50610296610e95565b6040518080602001828103825283818151815260200191508051906020019060200280838360005b838110156102d95780820151818401526020810190506102be565b505050509050019250505060405180910390f35b3480156102f957600080fd5b5061033c6004803603602081101561031057600080fd5b81019080803573ffffffffffffffffffffffffffffffffffffffff169060200190929190505050610f26565b6040518082815260200191505060405180910390f35b34801561035e57600080fd5b506103b56004803603606081101561037557600080fd5b81019080803573ffffffffffffffffffffffffffffffffffffffff1690602001909291908035906020019092919080359060200190929190505050610f6f565b604051808215151515815260200191505060405180910390f35b3480156103db57600080fd5b506103e461175b565b6040518082815260200191505060405180910390f35b6000600360008373ffffffffffffffffffffffffffffffffffffffff1673ffffffffffffffffffffffffffffffffffffffff168152602001908152602001600020549050919050565b60045481565b6000806000809054906101000a900473ffffffffffffffffffffffffffffffffffffffff1673ffffffffffffffffffffffffffffffffffffffff166370a08231306040518263ffffffff1660e01b8152600401808273ffffffffffffffffffffffffffffffffffffffff1673ffffffffffffffffffffffffffffffffffffffff16815260200191505060206040518083038186803b1580156104ea57600080fd5b505afa1580156104fe573d6000803e3d6000fd5b505050506040513d602081101561051457600080fd5b8101908080519060200190929190505050905082811015915081610583576040517f08c379a0000000000000000000000000000000000000000000000000000000008152600401808060200182810382526045815260200180611d906045913960600191505060405180910390fd5b600083119150816105df576040517f08c379a0000000000000000000000000000000000000000000000000000000008152600401808060200182810382526033815260200180611e366033913960400191505060405180910390fd5b6000806105eb86611761565b9150915081935083610648576040517f08c379a000000000000000000000000000000000000000000000000000000000815260040180806020018281038252603c81526020018061208e603c913960400191505060405180910390fd5b8460065410159350836106a6576040517f08c379a000000000000000000000000000000000000000000000000000000000815260040180806020018281038252603881526020018061201e6038913960400191505060405180910390fd5b6000809054906101000a900473ffffffffffffffffffffffffffffffffffffffff1673ffffffffffffffffffffffffffffffffffffffff1663a9059cbb87876040518363ffffffff1660e01b8152600401808373ffffffffffffffffffffffffffffffffffffffff1673ffffffffffffffffffffffffffffffffffffffff16815260200182815260200192505050602060405180830381600087803b15801561074e57600080fd5b505af1158015610762573d6000803e3d6000fd5b505050506040513d602081101561077857600080fd5b81019080805190602001909291905050509350836107e1576040517f08c379a000000000000000000000000000000000000000000000000000000000815260040180806020018281038252602b815260200180611d65602b913960400191505060405180910390fd5b6107ed6006548661180b565b6006819055507fbc6226d988f89521ff097caee942a5df225233597b2ccfb422d97e5bf5ab1a6e8686604051808373ffffffffffffffffffffffffffffffffffffffff1673ffffffffffffffffffffffffffffffffffffffff1681526020018281526020019250505060405180910390a183935050505092915050565b60055481565b600080600083119050806108cf576040517f08c379a000000000000000000000000000000000000000000000000000000000815260040180806020018281038252602e815260200180611e08602e913960400191505060405180910390fd5b6000341190508061092b576040517f08c379a000000000000000000000000000000000000000000000000000000000815260040180806020018281038252602b815260200180611ff3602b913960400191505060405180910390fd5b60006109373485611855565b90506007548114915081610996576040517f08c379a0000000000000000000000000000000000000000000000000000000008152600401808060200182810382526033815260200180611dd56033913960400191505060405180910390fd5b60006109a48560075461189f565b9050348114925082610a01576040517f08c379a0000000000000000000000000000000000000000000000000000000008152600401808060200182810382526033815260200180611eb86033913960400191505060405180910390fd5b6000809054906101000a900473ffffffffffffffffffffffffffffffffffffffff1673ffffffffffffffffffffffffffffffffffffffff166323b872dd8730886040518463ffffffff1660e01b8152600401808473ffffffffffffffffffffffffffffffffffffffff1673ffffffffffffffffffffffffffffffffffffffff1681526020018373ffffffffffffffffffffffffffffffffffffffff1673ffffffffffffffffffffffffffffffffffffffff1681526020018281526020019350505050602060405180830381600087803b158015610add57600080fd5b505af1158015610af1573d6000803e3d6000fd5b505050506040513d6020811015610b0757600080fd5b8101908080519060200190929190505050925082610b70576040517f08c379a0000000000000000000000000000000000000000000000000000000008152600401808060200182810382526048815260200180611d1d6048913960600191505060405180910390fd5b6000600260008873ffffffffffffffffffffffffffffffffffffffff1673ffffffffffffffffffffffffffffffffffffffff168152602001908152602001600020541415610c015784600260008873ffffffffffffffffffffffffffffffffffffffff1673ffffffffffffffffffffffffffffffffffffffff16815260200190815260200160002081905550610c8e565b610c4a600260008873ffffffffffffffffffffffffffffffffffffffff1673ffffffffffffffffffffffffffffffffffffffff1681526020019081526020016000205486611925565b600260008873ffffffffffffffffffffffffffffffffffffffff1673ffffffffffffffffffffffffffffffffffffffff168152602001908152602001600020819055505b610c9a60045486611925565b6004819055506000600360008873ffffffffffffffffffffffffffffffffffffffff1673ffffffffffffffffffffffffffffffffffffffff168152602001908152602001600020541415610d315734600360008873ffffffffffffffffffffffffffffffffffffffff1673ffffffffffffffffffffffffffffffffffffffff16815260200190815260200160002081905550610dbe565b610d7a600360008873ffffffffffffffffffffffffffffffffffffffff1673ffffffffffffffffffffffffffffffffffffffff1681526020019081526020016000205434611925565b600360008873ffffffffffffffffffffffffffffffffffffffff1673ffffffffffffffffffffffffffffffffffffffff168152602001908152602001600020819055505b610dca60055434611925565b600581905550600080610ddc88611761565b9150915081610def57610dee886119ad565b5b7f454558f821e516381f5735afdf706c1069e066bc2f6c62ac498eb191dc57b428888834604051808473ffffffffffffffffffffffffffffffffffffffff1673ffffffffffffffffffffffffffffffffffffffff168152602001838152602001828152602001935050505060405180910390a1849550505050505092915050565b6000809054906101000a900473ffffffffffffffffffffffffffffffffffffffff1681565b60606001805480602002602001604051908101604052809291908181526020018280548015610f1957602002820191906000526020600020905b8160009054906101000a900473ffffffffffffffffffffffffffffffffffffffff1673ffffffffffffffffffffffffffffffffffffffff1681526020019060010190808311610ecf575b5050505050905080905090565b6000600260008373ffffffffffffffffffffffffffffffffffffffff1673ffffffffffffffffffffffffffffffffffffffff168152602001908152602001600020549050919050565b6000806000809054906101000a900473ffffffffffffffffffffffffffffffffffffffff1673ffffffffffffffffffffffffffffffffffffffff166370a08231306040518263ffffffff1660e01b8152600401808273ffffffffffffffffffffffffffffffffffffffff1673ffffffffffffffffffffffffffffffffffffffff16815260200191505060206040518083038186803b15801561101057600080fd5b505afa158015611024573d6000803e3d6000fd5b505050506040513d602081101561103a57600080fd5b8101908080519060200190929190505050905060006110598486611855565b905060075481149250826110b8576040517f08c379a00000000000000000000000000000000000000000000000000000000081526004018080602001828103825260388152602001806120566038913960400191505060405180910390fd5b60006110c68660075461189f565b9050848114935083611123576040517f08c379a0000000000000000000000000000000000000000000000000000000008152600401808060200182810382526038815260200180611f2c6038913960400191505060405180910390fd5b8583101593508361117f576040517f08c379a0000000000000000000000000000000000000000000000000000000008152600401808060200182810382526041815260200180611eeb6041913960600191505060405180910390fd5b844710159350836111db576040517f08c379a000000000000000000000000000000000000000000000000000000000815260040180806020018281038252603e815260200180611f64603e913960400191505060405180910390fd5b85600260008973ffffffffffffffffffffffffffffffffffffffff1673ffffffffffffffffffffffffffffffffffffffff168152602001908152602001600020541015935083611276576040517f08c379a0000000000000000000000000000000000000000000000000000000008152600401808060200182810382526033815260200180611ca16033913960400191505060405180910390fd5b84600360008973ffffffffffffffffffffffffffffffffffffffff1673ffffffffffffffffffffffffffffffffffffffff168152602001908152602001600020541015935083611311576040517f08c379a0000000000000000000000000000000000000000000000000000000008152600401808060200182810382526030815260200180611fa26030913960400191505060405180910390fd5b600061131d848861180b565b905060065481101594508461137d576040517f08c379a0000000000000000000000000000000000000000000000000000000008152600401808060200182810382526049815260200180611cd46049913960600191505060405180910390fd5b6000809054906101000a900473ffffffffffffffffffffffffffffffffffffffff1673ffffffffffffffffffffffffffffffffffffffff1663a9059cbb89896040518363ffffffff1660e01b8152600401808373ffffffffffffffffffffffffffffffffffffffff1673ffffffffffffffffffffffffffffffffffffffff16815260200182815260200192505050602060405180830381600087803b15801561142557600080fd5b505af1158015611439573d6000803e3d6000fd5b505050506040513d602081101561144f57600080fd5b81019080805190602001909291905050509450846114b8576040517f08c379a000000000000000000000000000000000000000000000000000000000815260040180806020018281038252604f815260200180611e69604f913960600191505060405180910390fd5b8773ffffffffffffffffffffffffffffffffffffffff166108fc879081150290604051600060405180830381858888f193505050501580156114fe573d6000803e3d6000fd5b50611548600260008a73ffffffffffffffffffffffffffffffffffffffff1673ffffffffffffffffffffffffffffffffffffffff168152602001908152602001600020548861180b565b600260008a73ffffffffffffffffffffffffffffffffffffffff1673ffffffffffffffffffffffffffffffffffffffff168152602001908152602001600020819055506115976004548861180b565b6004819055506115e6600360008a73ffffffffffffffffffffffffffffffffffffffff1673ffffffffffffffffffffffffffffffffffffffff168152602001908152602001600020548761180b565b600360008a73ffffffffffffffffffffffffffffffffffffffff1673ffffffffffffffffffffffffffffffffffffffff168152602001908152602001600020819055506116356005548761180b565b6005819055506000600260008a73ffffffffffffffffffffffffffffffffffffffff1673ffffffffffffffffffffffffffffffffffffffff16815260200190815260200160002054111580156116cb57506000600360008a73ffffffffffffffffffffffffffffffffffffffff1673ffffffffffffffffffffffffffffffffffffffff1681526020019081526020016000205411155b156116da576116d988611a2b565b5b7f5f808ed47938c2c6ffcf1784b8a3171a0e8cb25d277b291b26475b303473bbb0888888604051808473ffffffffffffffffffffffffffffffffffffffff1673ffffffffffffffffffffffffffffffffffffffff168152602001838152602001828152602001935050505060405180910390a1849450505050509392505050565b60075481565b60008060008090505b6001805490508110156117fa576001818154811061178457fe5b9060005260206000200160009054906101000a900473ffffffffffffffffffffffffffffffffffffffff1673ffffffffffffffffffffffffffffffffffffffff168473ffffffffffffffffffffffffffffffffffffffff1614156117ef576001819250925050611806565b60018101905061176a565b50600080809050915091505b915091565b600061184d83836040518060400160405280601e81526020017f536166654d6174683a207375627472616374696f6e206f766572666c6f770000815250611b1a565b905092915050565b600061189783836040518060400160405280601a81526020017f536166654d6174683a206469766973696f6e206279207a65726f000000000000815250611bda565b905092915050565b6000808314156118b2576000905061191f565b60008284029050828482816118c357fe5b041461191a576040517f08c379a0000000000000000000000000000000000000000000000000000000008152600401808060200182810382526021815260200180611fd26021913960400191505060405180910390fd5b809150505b92915050565b6000808284019050838110156119a3576040517f08c379a000000000000000000000000000000000000000000000000000000000815260040180806020018281038252601b8152602001807f536166654d6174683a206164646974696f6e206f766572666c6f77000000000081525060200191505060405180910390fd5b8091505092915050565b60006119b882611761565b50905080611a275760018290806001815401808255809150509060018203906000526020600020016000909192909190916101000a81548173ffffffffffffffffffffffffffffffffffffffff021916908373ffffffffffffffffffffffffffffffffffffffff160217905550505b5050565b600080611a3783611761565b915091508115611b155760018080805490500381548110611a5457fe5b9060005260206000200160009054906101000a900473ffffffffffffffffffffffffffffffffffffffff1660018281548110611a8c57fe5b9060005260206000200160006101000a81548173ffffffffffffffffffffffffffffffffffffffff021916908373ffffffffffffffffffffffffffffffffffffffff1602179055506001805480611adf57fe5b6001900381819060005260206000200160006101000a81549073ffffffffffffffffffffffffffffffffffffffff021916905590555b505050565b6000838311158290611bc7576040517f08c379a00000000000000000000000000000000000000000000000000000000081526004018080602001828103825283818151815260200191508051906020019080838360005b83811015611b8c578082015181840152602081019050611b71565b50505050905090810190601f168015611bb95780820380516001836020036101000a031916815260200191505b509250505060405180910390fd5b5060008385039050809150509392505050565b60008083118290611c86576040517f08c379a00000000000000000000000000000000000000000000000000000000081526004018080602001828103825283818151815260200191508051906020019080838360005b83811015611c4b578082015181840152602081019050611c30565b50505050905090810190601f168015611c785780820380516001836020036101000a031916815260200191505b509250505060405180910390fd5b506000838581611c9257fe5b04905080915050939250505056fe5b57697468647261775374616b65206661696c7572655d202d20496e73756666696369656e742042616e616e61207374616b655b57697468647261775374616b65206661696c7572655d202d205769746864726177616c2063617573696e6720646564756374696f6e206f66206861727665737420726573657276655b4164645374616b65206661696c7572655d202d205374616b6520616d6f756e74206e6f74206265696e6720637265646974656420746f20636f6e74726163742062616c616e63655b48617276657374496e746572657374206661696c7572655d202d205472616e73666572206661696c65645b48617276657374496e746572657374206661696c7572655d202d20496e73756666696369656e742062616c616e636520696e2042616e616e614c5020636f6e74726163745b4164645374616b65206661696c7572655d202d2042616e616e6120746f205765692072617465206e6f7420616c6c6f7765645b4164645374616b65206661696c7572655d202d2042616e616e6120616d6f756e742063616e6e6f7420626520305b48617276657374496e746572657374206661696c7572655d202d2043616e6e6f74206861727665737420302042616e616e615b57697468647261775374616b65206661696c7572655d202d2042616e616e61206e6f74206265696e67207472616e7366657272656420746f207374616b65686f6c64657227732062616c616e63655b4164645374616b65206661696c7572655d202d2057656920746f2042616e616e612072617465206e6f7420616c6c6f7765645b57697468647261775374616b65206661696c7572655d202d20496e73756666696369656e742042616e616e612062616c616e636520696e20636f6e74726163745b57697468647261775374616b65206661696c7572655d202d2057656920746f2042616e616e612072617465206e6f7420616c6c6f7765645b57697468647261775374616b65206661696c7572655d202d20496e73756666696369656e74204554482062616c616e636520696e20636f6e74726163745b57697468647261775374616b65206661696c7572655d202d20496e73756666696369656e7420455448207374616b65536166654d6174683a206d756c7469706c69636174696f6e206f766572666c6f775b4164645374616b65206661696c7572655d202d2045544820616d6f756e742063616e6e6f7420626520305b48617276657374496e746572657374206661696c7572655d202d20496e73756666696369656e74206861727665737420726573657276655b57697468647261775374616b65206661696c7572655d202d2042616e616e6120746f205765692072617465206e6f7420616c6c6f7765645b48617276657374496e746572657374206661696c7572655d202d20526571756573746572206973206e6f74206f7572207374616b65686f6c646572a265627a7a72315820286eafdd4ede18457fc37e28c829fb755275a1e2364b1d1271fcc3f0a7cd91a564736f6c63430005100032",
  "source": "pragma solidity ^0.5.0;\r\n\r\nimport \"@openzeppelin/contracts/token/ERC20/ERC20.sol\";\r\nimport \"@openzeppelin/contracts/token/ERC20/SafeERC20.sol\";\r\n\r\ncontract Banana2500LP {\r\n    using SafeERC20 for IERC20;\r\n    using SafeMath for uint256;\r\n    \r\n    IERC20 public BananaInstance;\r\n    address[] internal stakeholders;\r\n    mapping(address => uint256) internal bananaStakes; // Stakeholder's Banana stake(s)\r\n    mapping(address => uint256) internal ethStakes; // Stakeholder's Ether stake(s)\r\n    uint256 public bananaTotalStakes;\r\n    uint256 public ethTotalStakes;\r\n    uint256 internal harvestReserve = 250000000000000000;\r\n    uint256 public bananaToWeiRate = 1;\r\n    \r\n    event AddStake(address sender, uint256 bananaAmount, uint256 ethAmount);\r\n    event WithdrawStake(address receiver, uint256 bananaAmount, uint256 ethAmount);\r\n    event HarvestInterest(address stakeholder, uint256 bananaAmount);\r\n    \r\n    constructor(address _bananaAddress) public {\r\n        BananaInstance = ERC20(_bananaAddress);\r\n    }\r\n    \r\n    function isStakeholder(address _address)\r\n        internal\r\n        view\r\n        returns (bool, uint256)\r\n    {\r\n        for (uint256 s = 0; s < stakeholders.length; s += 1) {\r\n            if (_address == stakeholders[s]) return (true, s);\r\n        }\r\n        return (false, 0);\r\n    }\r\n    \r\n    function addStakeholder(address _stakeholder) internal {\r\n        (bool _isStakeholder, ) = isStakeholder(_stakeholder);\r\n        if (!_isStakeholder) stakeholders.push(_stakeholder);\r\n    }\r\n    \r\n    function removeStakeholder(address _stakeholder) internal {\r\n        (bool _isStakeholder, uint256 s) = isStakeholder(_stakeholder);\r\n        if (_isStakeholder) {\r\n            // Replace the current found stakeholder with the last stakeholder\r\n            stakeholders[s] = stakeholders[stakeholders.length - 1];\r\n\r\n            // Remove the last stakeholder\r\n            stakeholders.pop();\r\n        }\r\n    }\r\n    \r\n    function getStakeholders()\r\n        public\r\n        view\r\n        returns (address[] memory _stakeholders)\r\n    {\r\n        _stakeholders = stakeholders;\r\n        return _stakeholders;\r\n    }\r\n    \r\n    function stakeOfBanana(address _stakeholder) public view returns (uint256) {\r\n        return bananaStakes[_stakeholder];\r\n    }\r\n    \r\n    function stakeOfEth(address _stakeholder) public view returns (uint256) {\r\n        return ethStakes[_stakeholder];\r\n    }\r\n    \r\n    function addStake(address _stakeholder, uint256 _amount) public payable returns (bool) {\r\n        bool _success = (_amount > 0);\r\n        require(_success, \"[AddStake failure] - Banana amount cannot be 0\");\r\n        \r\n        _success = (msg.value > 0);\r\n        require(_success, \"[AddStake failure] - ETH amount cannot be 0\");\r\n        \r\n        uint256 _bananaToWeiAddRatio = SafeMath.div(msg.value, _amount);\r\n        _success = (_bananaToWeiAddRatio == bananaToWeiRate);\r\n        require(_success, \"[AddStake failure] - Banana to Wei rate not allowed\");\r\n        \r\n        uint256 _weiToBananaAddRatio = SafeMath.mul(_amount, bananaToWeiRate);\r\n        _success = (_weiToBananaAddRatio == msg.value);\r\n        require(_success, \"[AddStake failure] - Wei to Banana rate not allowed\");\r\n        \r\n        _success = (BananaInstance.transferFrom(_stakeholder, address(this), _amount));\r\n        require(_success, \"[AddStake failure] - Stake amount not being credited to contract balance\");\r\n        \r\n        if (bananaStakes[_stakeholder] == 0) {\r\n            bananaStakes[_stakeholder] = _amount;   // Create new Banana stake for sender\r\n        }else{\r\n            bananaStakes[_stakeholder] = SafeMath.add(bananaStakes[_stakeholder], _amount); // Add amount to existing Banana stake\r\n        }\r\n        \r\n        bananaTotalStakes = SafeMath.add(bananaTotalStakes, _amount);\r\n        \r\n        if(ethStakes[_stakeholder] == 0) {\r\n            ethStakes[_stakeholder] = msg.value;    // Create new ETH stake for sender\r\n        }else{\r\n            ethStakes[_stakeholder] = SafeMath.add(ethStakes[_stakeholder], msg.value);   // Add amount to existing ETH stake \r\n        }\r\n        \r\n        ethTotalStakes = SafeMath.add(ethTotalStakes, msg.value);\r\n        \r\n        (bool _isStakeholder, uint256 _s) = isStakeholder(_stakeholder);\r\n        \r\n        if(!_isStakeholder) {\r\n            addStakeholder(_stakeholder);\r\n        }\r\n        \r\n        emit AddStake(_stakeholder, _amount, msg.value);\r\n        \r\n        return _success;\r\n    }\r\n    \r\n    function withdrawStake(address payable _stakeholder, uint256 _bananaAmount, uint256 _ethAmount)\r\n        public returns (bool _success)\r\n    {\r\n        uint256 _bananaBalanceOfContract = BananaInstance.balanceOf(address(this));\r\n        \r\n        uint256 _bananaToWeiWithdrawalRatio = SafeMath.div(_ethAmount, _bananaAmount);\r\n        _success = (_bananaToWeiWithdrawalRatio == bananaToWeiRate);\r\n        require(_success, \"[WithdrawStake failure] - Banana to Wei rate not allowed\");\r\n        \r\n        uint256 _weiToBananaWithdrawalRatio = SafeMath.mul(_bananaAmount, bananaToWeiRate);\r\n        _success = (_weiToBananaWithdrawalRatio == _ethAmount);\r\n        require(_success, \"[WithdrawStake failure] - Wei to Banana rate not allowed\");\r\n        \r\n        _success = (_bananaBalanceOfContract >= _bananaAmount);\r\n        require(_success, \"[WithdrawStake failure] - Insufficient Banana balance in contract\");\r\n        \r\n        _success = (address(this).balance >= _ethAmount);\r\n        require(_success, \"[WithdrawStake failure] - Insufficient ETH balance in contract\");\r\n        \r\n        _success = (bananaStakes[_stakeholder] >= _bananaAmount);\r\n        require(_success, \"[WithdrawStake failure] - Insufficient Banana stake\");\r\n        \r\n        _success = (ethStakes[_stakeholder] >= _ethAmount);\r\n        require(_success, \"[WithdrawStake failure] - Insufficient ETH stake\");\r\n        \r\n        uint256 _bananaBalanceAfterWithdrawal = SafeMath.sub(_bananaBalanceOfContract, _bananaAmount);\r\n        _success = (_bananaBalanceAfterWithdrawal >= harvestReserve);\r\n        require(_success, \"[WithdrawStake failure] - Withdrawal causing deduction of harvest reserve\");\r\n        \r\n        _success = BananaInstance.transfer(_stakeholder, _bananaAmount);\r\n        require(_success, \"[WithdrawStake failure] - Banana not being transferred to stakeholder's balance\");\r\n        \r\n        _stakeholder.transfer(_ethAmount);\r\n\r\n        // Subtract Banana stakes of stakeholder\r\n        bananaStakes[_stakeholder] = SafeMath.sub(bananaStakes[_stakeholder], _bananaAmount);\r\n        bananaTotalStakes = SafeMath.sub(bananaTotalStakes, _bananaAmount);\r\n        \r\n        // Subtract ETH stakes of stakeholder\r\n        ethStakes[_stakeholder] = SafeMath.sub(ethStakes[_stakeholder], _ethAmount);\r\n        ethTotalStakes = SafeMath.sub(ethTotalStakes, _ethAmount);\r\n\r\n        if (bananaStakes[_stakeholder] <= 0 && ethStakes[_stakeholder] <= 0) {\r\n            removeStakeholder(_stakeholder);\r\n        }\r\n\r\n        emit WithdrawStake(_stakeholder, _bananaAmount, _ethAmount);\r\n        \r\n        return _success;\r\n    }\r\n    \r\n    function harvestInterest(address _stakeholder, uint256 _amount) public returns (bool _success) {\r\n        uint256 _balanceOfContract = BananaInstance.balanceOf(address(this));\r\n        _success = (_balanceOfContract >= _amount);\r\n        require(_success, \"[HarvestInterest failure] - Insufficient balance in BananaLP contract\");\r\n\r\n        _success = (_amount > 0);\r\n        require(_success, \"[HarvestInterest failure] - Cannot harvest 0 Banana\");\r\n\r\n        (bool _isStakeholder, uint256 _s) = isStakeholder(_stakeholder);\r\n        _success = _isStakeholder;\r\n        require(_success, \"[HarvestInterest failure] - Requester is not our stakeholder\");\r\n        \r\n        _success = (harvestReserve >= _amount);\r\n        require(_success, \"[HarvestInterest failure] - Insufficient harvest reserve\");\r\n\r\n        _success = BananaInstance.transfer(_stakeholder, _amount);\r\n        require(_success, \"[HarvestInterest failure] - Transfer failed\");\r\n        \r\n        harvestReserve = SafeMath.sub(harvestReserve, _amount);\r\n\r\n        emit HarvestInterest(_stakeholder, _amount);\r\n\r\n        return _success;\r\n    }\r\n}",
  "sourcePath": "D:/dapps/custom-erc20-token/contracts/Banana2500LP.sol",
  "compiler": {
    "name": "solc",
    "version": "0.5.16+commit.9c3226ce.Emscripten.clang"
  },
  "schemaVersion": "3.3.2",
  "updatedAt": "2021-01-09T08:49:36.091Z",
  "networkType": "ethereum",
  "devdoc": {
    "methods": {}
  },
  "userdoc": {
    "methods": {}
  }
}