{
  "contractName": "BananaCrowdsaleSecond",
  "abi": [
    {
      "inputs": [
        {
          "internalType": "uint256",
          "name": "_rate",
          "type": "uint256"
        },
        {
          "internalType": "address payable",
          "name": "_wallet",
          "type": "address"
        },
        {
          "internalType": "contract IERC20",
          "name": "_token",
          "type": "address"
        },
        {
          "internalType": "address",
          "name": "_tokenWallet",
          "type": "address"
        },
        {
          "internalType": "uint256",
          "name": "_openingTime",
          "type": "uint256"
        },
        {
          "internalType": "uint256",
          "name": "_closingTime",
          "type": "uint256"
        },
        {
          "internalType": "contract Banana",
          "name": "_bananaInstance",
          "type": "address"
        }
      ],
      "payable": false,
      "stateMutability": "nonpayable",
      "type": "constructor"
    },
    {
      "anonymous": false,
      "inputs": [],
      "name": "CrowdsaleFinalized",
      "type": "event"
    },
    {
      "anonymous": false,
      "inputs": [
        {
          "indexed": false,
          "internalType": "uint256",
          "name": "prevClosingTime",
          "type": "uint256"
        },
        {
          "indexed": false,
          "internalType": "uint256",
          "name": "newClosingTime",
          "type": "uint256"
        }
      ],
      "name": "TimedCrowdsaleExtended",
      "type": "event"
    },
    {
      "anonymous": false,
      "inputs": [
        {
          "indexed": true,
          "internalType": "address",
          "name": "purchaser",
          "type": "address"
        },
        {
          "indexed": true,
          "internalType": "address",
          "name": "beneficiary",
          "type": "address"
        },
        {
          "indexed": false,
          "internalType": "uint256",
          "name": "value",
          "type": "uint256"
        },
        {
          "indexed": false,
          "internalType": "uint256",
          "name": "amount",
          "type": "uint256"
        }
      ],
      "name": "TokensPurchased",
      "type": "event"
    },
    {
      "payable": true,
      "stateMutability": "payable",
      "type": "fallback"
    },
    {
      "constant": false,
      "inputs": [
        {
          "internalType": "address",
          "name": "beneficiary",
          "type": "address"
        }
      ],
      "name": "buyTokens",
      "outputs": [],
      "payable": true,
      "stateMutability": "payable",
      "type": "function"
    },
    {
      "constant": true,
      "inputs": [],
      "name": "closingTime",
      "outputs": [
        {
          "internalType": "uint256",
          "name": "",
          "type": "uint256"
        }
      ],
      "payable": false,
      "stateMutability": "view",
      "type": "function"
    },
    {
      "constant": false,
      "inputs": [],
      "name": "finalize",
      "outputs": [],
      "payable": false,
      "stateMutability": "nonpayable",
      "type": "function"
    },
    {
      "constant": true,
      "inputs": [],
      "name": "finalized",
      "outputs": [
        {
          "internalType": "bool",
          "name": "",
          "type": "bool"
        }
      ],
      "payable": false,
      "stateMutability": "view",
      "type": "function"
    },
    {
      "constant": true,
      "inputs": [],
      "name": "hasClosed",
      "outputs": [
        {
          "internalType": "bool",
          "name": "",
          "type": "bool"
        }
      ],
      "payable": false,
      "stateMutability": "view",
      "type": "function"
    },
    {
      "constant": true,
      "inputs": [],
      "name": "isOpen",
      "outputs": [
        {
          "internalType": "bool",
          "name": "",
          "type": "bool"
        }
      ],
      "payable": false,
      "stateMutability": "view",
      "type": "function"
    },
    {
      "constant": true,
      "inputs": [],
      "name": "openingTime",
      "outputs": [
        {
          "internalType": "uint256",
          "name": "",
          "type": "uint256"
        }
      ],
      "payable": false,
      "stateMutability": "view",
      "type": "function"
    },
    {
      "constant": true,
      "inputs": [],
      "name": "rate",
      "outputs": [
        {
          "internalType": "uint256",
          "name": "",
          "type": "uint256"
        }
      ],
      "payable": false,
      "stateMutability": "view",
      "type": "function"
    },
    {
      "constant": true,
      "inputs": [],
      "name": "remainingTokens",
      "outputs": [
        {
          "internalType": "uint256",
          "name": "",
          "type": "uint256"
        }
      ],
      "payable": false,
      "stateMutability": "view",
      "type": "function"
    },
    {
      "constant": true,
      "inputs": [],
      "name": "token",
      "outputs": [
        {
          "internalType": "contract IERC20",
          "name": "",
          "type": "address"
        }
      ],
      "payable": false,
      "stateMutability": "view",
      "type": "function"
    },
    {
      "constant": true,
      "inputs": [],
      "name": "tokenWallet",
      "outputs": [
        {
          "internalType": "address",
          "name": "",
          "type": "address"
        }
      ],
      "payable": false,
      "stateMutability": "view",
      "type": "function"
    },
    {
      "constant": true,
      "inputs": [],
      "name": "wallet",
      "outputs": [
        {
          "internalType": "address payable",
          "name": "",
          "type": "address"
        }
      ],
      "payable": false,
      "stateMutability": "view",
      "type": "function"
    },
    {
      "constant": true,
      "inputs": [],
      "name": "weiRaised",
      "outputs": [
        {
          "internalType": "uint256",
          "name": "",
          "type": "uint256"
        }
      ],
      "payable": false,
      "stateMutability": "view",
      "type": "function"
    }
  ],
  "bytecode": "0x60806040523480156200001157600080fd5b50604051620018ba380380620018ba833981810160405260e08110156200003757600080fd5b810190808051906020019092919080519060200190929190805190602001909291908051906020019092919080519060200190929190805190602001909291908051906020019092919050505082828589898960016000806101000a81548160ff021916908315150217905550600083116200011b576040517f08c379a00000000000000000000000000000000000000000000000000000000081526004018080602001828103825260148152602001807f43726f776473616c653a2072617465206973203000000000000000000000000081525060200191505060405180910390fd5b600073ffffffffffffffffffffffffffffffffffffffff168273ffffffffffffffffffffffffffffffffffffffff161415620001a3576040517f08c379a0000000000000000000000000000000000000000000000000000000008152600401808060200182810382526025815260200180620018956025913960400191505060405180910390fd5b600073ffffffffffffffffffffffffffffffffffffffff168173ffffffffffffffffffffffffffffffffffffffff1614156200022b576040517f08c379a0000000000000000000000000000000000000000000000000000000008152600401808060200182810382526024815260200180620018716024913960400191505060405180910390fd5b8260028190555081600160006101000a81548173ffffffffffffffffffffffffffffffffffffffff021916908373ffffffffffffffffffffffffffffffffffffffff16021790555080600060016101000a81548173ffffffffffffffffffffffffffffffffffffffff021916908373ffffffffffffffffffffffffffffffffffffffff160217905550505050600073ffffffffffffffffffffffffffffffffffffffff168173ffffffffffffffffffffffffffffffffffffffff1614156200033f576040517f08c379a0000000000000000000000000000000000000000000000000000000008152600401808060200182810382526034815260200180620018066034913960400191505060405180910390fd5b80600460006101000a81548173ffffffffffffffffffffffffffffffffffffffff021916908373ffffffffffffffffffffffffffffffffffffffff1602179055505042821015620003dc576040517f08c379a0000000000000000000000000000000000000000000000000000000008152600401808060200182810382526033815260200180620017d36033913960400191505060405180910390fd5b81811162000436576040517f08c379a00000000000000000000000000000000000000000000000000000000081526004018080602001828103825260378152602001806200183a6037913960400191505060405180910390fd5b816005819055508060068190555050506000600760006101000a81548160ff02191690831515021790555085600760016101000a81548173ffffffffffffffffffffffffffffffffffffffff021916908373ffffffffffffffffffffffffffffffffffffffff16021790555080600860006101000a81548173ffffffffffffffffffffffffffffffffffffffff021916908373ffffffffffffffffffffffffffffffffffffffff160217905550505050505050506112d980620004fa6000396000f3fe6080604052600436106100c25760003560e01c8063521eb2731161007f578063bf58390311610059578063bf5839031461027b578063bff99c6c146102a6578063ec8ac4d8146102fd578063fc0c546a14610341576100c2565b8063521eb273146101ca578063b3f05b9714610221578063b7a8807c14610250576100c2565b80631515bc2b146100d45780632c4e722e146101035780634042b66f1461012e57806347535d7b146101595780634b6753bc146101885780634bb278f3146101b3575b6100d26100cd610398565b6103a0565b005b3480156100e057600080fd5b506100e961052b565b604051808215151515815260200191505060405180910390f35b34801561010f57600080fd5b50610118610537565b6040518082815260200191505060405180910390f35b34801561013a57600080fd5b50610143610541565b6040518082815260200191505060405180910390f35b34801561016557600080fd5b5061016e61054b565b604051808215151515815260200191505060405180910390f35b34801561019457600080fd5b5061019d610566565b6040518082815260200191505060405180910390f35b3480156101bf57600080fd5b506101c8610570565b005b3480156101d657600080fd5b506101df6106a1565b604051808273ffffffffffffffffffffffffffffffffffffffff1673ffffffffffffffffffffffffffffffffffffffff16815260200191505060405180910390f35b34801561022d57600080fd5b506102366106cb565b604051808215151515815260200191505060405180910390f35b34801561025c57600080fd5b506102656106e2565b6040518082815260200191505060405180910390f35b34801561028757600080fd5b506102906106ec565b6040518082815260200191505060405180910390f35b3480156102b257600080fd5b506102bb6108f1565b604051808273ffffffffffffffffffffffffffffffffffffffff1673ffffffffffffffffffffffffffffffffffffffff16815260200191505060405180910390f35b61033f6004803603602081101561031357600080fd5b81019080803573ffffffffffffffffffffffffffffffffffffffff1690602001909291905050506103a0565b005b34801561034d57600080fd5b5061035661091b565b604051808273ffffffffffffffffffffffffffffffffffffffff1673ffffffffffffffffffffffffffffffffffffffff16815260200191505060405180910390f35b600033905090565b6000809054906101000a900460ff16610421576040517f08c379a000000000000000000000000000000000000000000000000000000000815260040180806020018281038252601f8152602001807f5265656e7472616e637947756172643a207265656e7472616e742063616c6c0081525060200191505060405180910390fd5b60008060006101000a81548160ff021916908315150217905550600034905061044a8282610944565b6000610455826109cc565b905061046c826003546109ea90919063ffffffff16565b60038190555061047c8382610a72565b8273ffffffffffffffffffffffffffffffffffffffff1661049b610398565b73ffffffffffffffffffffffffffffffffffffffff167f6faf93231a456e552dbc9961f58d9713ee4f2e69d15f1975b050ef0911053a7b8484604051808381526020018281526020019250505060405180910390a36104fa8383610a80565b610502610a84565b61050c8383610aef565b505060016000806101000a81548160ff02191690831515021790555050565b60006006544211905090565b6000600254905090565b6000600354905090565b6000600554421015801561056157506006544211155b905090565b6000600654905090565b600760009054906101000a900460ff16156105d6576040517f08c379a000000000000000000000000000000000000000000000000000000000815260040180806020018281038252602781526020018061122a6027913960400191505060405180910390fd5b6105de61052b565b610650576040517f08c379a00000000000000000000000000000000000000000000000000000000081526004018080602001828103825260208152602001807f46696e616c697a61626c6543726f776473616c653a206e6f7420636c6f73656481525060200191505060405180910390fd5b6001600760006101000a81548160ff021916908315150217905550610673610af3565b7f9270cc390c096600a1c17c44345a1ba689fafd99d97487b10cfccf86cf73183660405160405180910390a1565b6000600160009054906101000a900473ffffffffffffffffffffffffffffffffffffffff16905090565b6000600760009054906101000a900460ff16905090565b6000600554905090565b60006108ec6106f961091b565b73ffffffffffffffffffffffffffffffffffffffff166370a08231600460009054906101000a900473ffffffffffffffffffffffffffffffffffffffff166040518263ffffffff1660e01b8152600401808273ffffffffffffffffffffffffffffffffffffffff1673ffffffffffffffffffffffffffffffffffffffff16815260200191505060206040518083038186803b15801561079757600080fd5b505afa1580156107ab573d6000803e3d6000fd5b505050506040513d60208110156107c157600080fd5b81019080805190602001909291905050506107da61091b565b73ffffffffffffffffffffffffffffffffffffffff1663dd62ed3e600460009054906101000a900473ffffffffffffffffffffffffffffffffffffffff16306040518363ffffffff1660e01b8152600401808373ffffffffffffffffffffffffffffffffffffffff1673ffffffffffffffffffffffffffffffffffffffff1681526020018273ffffffffffffffffffffffffffffffffffffffff1673ffffffffffffffffffffffffffffffffffffffff1681526020019250505060206040518083038186803b1580156108ac57600080fd5b505afa1580156108c0573d6000803e3d6000fd5b505050506040513d60208110156108d657600080fd5b8101908080519060200190929190505050610c70565b905090565b6000600460009054906101000a900473ffffffffffffffffffffffffffffffffffffffff16905090565b60008060019054906101000a900473ffffffffffffffffffffffffffffffffffffffff16905090565b61094c61054b565b6109be576040517f08c379a00000000000000000000000000000000000000000000000000000000081526004018080602001828103825260188152602001807f54696d656443726f776473616c653a206e6f74206f70656e000000000000000081525060200191505060405180910390fd5b6109c88282610c89565b5050565b60006109e360025483610d8a90919063ffffffff16565b9050919050565b600080828401905083811015610a68576040517f08c379a000000000000000000000000000000000000000000000000000000000815260040180806020018281038252601b8152602001807f536166654d6174683a206164646974696f6e206f766572666c6f77000000000081525060200191505060405180910390fd5b8091505092915050565b610a7c8282610e10565b5050565b5050565b600160009054906101000a900473ffffffffffffffffffffffffffffffffffffffff1673ffffffffffffffffffffffffffffffffffffffff166108fc349081150290604051600060405180830381858888f19350505050158015610aec573d6000803e3d6000fd5b50565b5050565b610afb610e6a565b60003073ffffffffffffffffffffffffffffffffffffffff1663bf5839036040518163ffffffff1660e01b815260040160206040518083038186803b158015610b4357600080fd5b505afa158015610b57573d6000803e3d6000fd5b505050506040513d6020811015610b6d57600080fd5b810190808051906020019092919050505090506000811115610c6d57600860009054906101000a900473ffffffffffffffffffffffffffffffffffffffff1673ffffffffffffffffffffffffffffffffffffffff166379cc6790600760019054906101000a900473ffffffffffffffffffffffffffffffffffffffff16836040518363ffffffff1660e01b8152600401808373ffffffffffffffffffffffffffffffffffffffff1673ffffffffffffffffffffffffffffffffffffffff16815260200182815260200192505050600060405180830381600087803b158015610c5457600080fd5b505af1158015610c68573d6000803e3d6000fd5b505050505b50565b6000818310610c7f5781610c81565b825b905092915050565b600073ffffffffffffffffffffffffffffffffffffffff168273ffffffffffffffffffffffffffffffffffffffff161415610d0f576040517f08c379a000000000000000000000000000000000000000000000000000000000815260040180806020018281038252602a815260200180611251602a913960400191505060405180910390fd5b6000811415610d86576040517f08c379a00000000000000000000000000000000000000000000000000000000081526004018080602001828103825260198152602001807f43726f776473616c653a20776569416d6f756e7420697320300000000000000081525060200191505060405180910390fd5b5050565b600080831415610d9d5760009050610e0a565b6000828402905082848281610dae57fe5b0414610e05576040517f08c379a00000000000000000000000000000000000000000000000000000000081526004018080602001828103825260218152602001806112096021913960400191505060405180910390fd5b809150505b92915050565b610e66600460009054906101000a900473ffffffffffffffffffffffffffffffffffffffff168383610e4061091b565b73ffffffffffffffffffffffffffffffffffffffff16610e6c909392919063ffffffff16565b5050565b565b610f6c848573ffffffffffffffffffffffffffffffffffffffff166323b872dd905060e01b858585604051602401808473ffffffffffffffffffffffffffffffffffffffff1673ffffffffffffffffffffffffffffffffffffffff1681526020018373ffffffffffffffffffffffffffffffffffffffff1673ffffffffffffffffffffffffffffffffffffffff1681526020018281526020019350505050604051602081830303815290604052907bffffffffffffffffffffffffffffffffffffffffffffffffffffffff19166020820180517bffffffffffffffffffffffffffffffffffffffffffffffffffffffff8381831617835250505050610f72565b50505050565b610f918273ffffffffffffffffffffffffffffffffffffffff166111bd565b611003576040517f08c379a000000000000000000000000000000000000000000000000000000000815260040180806020018281038252601f8152602001807f5361666545524332303a2063616c6c20746f206e6f6e2d636f6e74726163740081525060200191505060405180910390fd5b600060608373ffffffffffffffffffffffffffffffffffffffff16836040518082805190602001908083835b60208310611052578051825260208201915060208101905060208303925061102f565b6001836020036101000a0380198251168184511680821785525050505050509050019150506000604051808303816000865af19150503d80600081146110b4576040519150601f19603f3d011682016040523d82523d6000602084013e6110b9565b606091505b509150915081611131576040517f08c379a00000000000000000000000000000000000000000000000000000000081526004018080602001828103825260208152602001807f5361666545524332303a206c6f772d6c6576656c2063616c6c206661696c656481525060200191505060405180910390fd5b6000815111156111b75780806020019051602081101561115057600080fd5b81019080805190602001909291905050506111b6576040517f08c379a000000000000000000000000000000000000000000000000000000000815260040180806020018281038252602a81526020018061127b602a913960400191505060405180910390fd5b5b50505050565b60008060007fc5d2460186f7233c927e7db2dcc703c0e500b653ca82273b7bfad8045d85a47060001b9050833f91508082141580156111ff57506000801b8214155b9250505091905056fe536166654d6174683a206d756c7469706c69636174696f6e206f766572666c6f7746696e616c697a61626c6543726f776473616c653a20616c72656164792066696e616c697a656443726f776473616c653a2062656e656669636961727920697320746865207a65726f20616464726573735361666545524332303a204552433230206f7065726174696f6e20646964206e6f742073756363656564a265627a7a723158203cde4b6632d8954d377ec8d026f5c00bf24799ddd96a484c076b13c155f6446564736f6c6343000510003254696d656443726f776473616c653a206f70656e696e672074696d65206973206265666f72652063757272656e742074696d65416c6c6f77616e636543726f776473616c653a20746f6b656e2077616c6c657420697320746865207a65726f206164647265737354696d656443726f776473616c653a206f70656e696e672074696d65206973206e6f74206265666f726520636c6f73696e672074696d6543726f776473616c653a20746f6b656e20697320746865207a65726f206164647265737343726f776473616c653a2077616c6c657420697320746865207a65726f2061646472657373",
  "source": "pragma solidity ^0.5.0;\r\n\r\nimport \"@openzeppelin/contracts/crowdsale/Crowdsale.sol\";\r\nimport \"@openzeppelin/contracts/crowdsale/emission/AllowanceCrowdsale.sol\";\r\nimport \"@openzeppelin/contracts/crowdsale/validation/TimedCrowdsale.sol\";\r\nimport \"@openzeppelin/contracts/crowdsale/distribution/FinalizableCrowdsale.sol\";\r\nimport \"@openzeppelin/contracts/token/ERC20/ERC20.sol\";\r\nimport \"./Banana.sol\";\r\n\r\ncontract BananaCrowdsaleSecond is Crowdsale, AllowanceCrowdsale, TimedCrowdsale, FinalizableCrowdsale {\r\n    using SafeERC20 for IERC20;\r\n    address internal owner;\r\n    Banana internal bananaInstance;\r\n    \r\n    constructor (\r\n        uint256 _rate,\r\n        address payable _wallet,\r\n        IERC20 _token,\r\n        address _tokenWallet,\r\n        uint256 _openingTime,\r\n        uint256 _closingTime,\r\n        Banana _bananaInstance\r\n    )\r\n        AllowanceCrowdsale(_tokenWallet)\r\n        TimedCrowdsale(_openingTime, _closingTime)\r\n        Crowdsale(_rate, _wallet, _token)\r\n        public\r\n    {\r\n        owner = _wallet;\r\n        \r\n        bananaInstance = _bananaInstance;\r\n    }\r\n    \r\n    function _finalization() internal {\r\n        super._finalization();\r\n        \r\n        uint256 _remainingTokens = this.remainingTokens();\r\n        \r\n        if(_remainingTokens > 0) {\r\n            bananaInstance.burnFrom(owner, _remainingTokens);\r\n        }\r\n    }\r\n}",
  "sourcePath": "D:/dapps/custom-erc20-token/contracts/BananaCrowdsaleSecond.sol",
  "compiler": {
    "name": "solc",
    "version": "0.5.16+commit.9c3226ce.Emscripten.clang"
  },
  "schemaVersion": "3.3.2",
  "updatedAt": "2021-01-09T08:30:22.889Z",
  "networkType": "ethereum",
  "devdoc": {
    "methods": {
      "buyTokens(address)": {
        "details": "low level token purchase ***DO NOT OVERRIDE*** This function has a non-reentrancy guard, so it shouldn't be called by another `nonReentrant` function.",
        "params": {
          "beneficiary": "Recipient of the token purchase"
        }
      },
      "closingTime()": {
        "return": "the crowdsale closing time."
      },
      "finalize()": {
        "details": "Must be called after crowdsale ends, to do some extra finalization work. Calls the contract's finalization function."
      },
      "finalized()": {
        "return": "true if the crowdsale is finalized, false otherwise."
      },
      "hasClosed()": {
        "details": "Checks whether the period in which the crowdsale is open has already elapsed.",
        "return": "Whether crowdsale period has elapsed"
      },
      "isOpen()": {
        "return": "true if the crowdsale is open, false otherwise."
      },
      "openingTime()": {
        "return": "the crowdsale opening time."
      },
      "rate()": {
        "return": "the number of token units a buyer gets per wei."
      },
      "remainingTokens()": {
        "details": "Checks the amount of tokens left in the allowance.",
        "return": "Amount of tokens left in the allowance"
      },
      "token()": {
        "return": "the token being sold."
      },
      "tokenWallet()": {
        "return": "the address of the wallet that will hold the tokens."
      },
      "wallet()": {
        "return": "the address where funds are collected."
      },
      "weiRaised()": {
        "return": "the amount of wei raised."
      }
    }
  },
  "userdoc": {
    "methods": {}
  }
}