{
  "contractName": "Curve500Staking",
  "abi": [
    {
      "inputs": [
        {
          "internalType": "address",
          "name": "_curveAddress",
          "type": "address"
        }
      ],
      "payable": false,
      "stateMutability": "nonpayable",
      "type": "constructor"
    },
    {
      "anonymous": false,
      "inputs": [
        {
          "indexed": false,
          "internalType": "address",
          "name": "sender",
          "type": "address"
        },
        {
          "indexed": false,
          "internalType": "uint256",
          "name": "amount",
          "type": "uint256"
        }
      ],
      "name": "AddStake",
      "type": "event"
    },
    {
      "anonymous": false,
      "inputs": [
        {
          "indexed": false,
          "internalType": "address",
          "name": "stakeholder",
          "type": "address"
        },
        {
          "indexed": false,
          "internalType": "uint256",
          "name": "amount",
          "type": "uint256"
        }
      ],
      "name": "HarvestInterest",
      "type": "event"
    },
    {
      "anonymous": false,
      "inputs": [
        {
          "indexed": false,
          "internalType": "address",
          "name": "receiver",
          "type": "address"
        },
        {
          "indexed": false,
          "internalType": "uint256",
          "name": "amount",
          "type": "uint256"
        }
      ],
      "name": "WithdrawStake",
      "type": "event"
    },
    {
      "constant": true,
      "inputs": [],
      "name": "CurveInstance",
      "outputs": [
        {
          "internalType": "contract IERC20",
          "name": "",
          "type": "address"
        }
      ],
      "payable": false,
      "stateMutability": "view",
      "type": "function"
    },
    {
      "constant": true,
      "inputs": [],
      "name": "MinionInstance",
      "outputs": [
        {
          "internalType": "contract IERC20",
          "name": "",
          "type": "address"
        }
      ],
      "payable": false,
      "stateMutability": "view",
      "type": "function"
    },
    {
      "constant": true,
      "inputs": [],
      "name": "totalStakes",
      "outputs": [
        {
          "internalType": "uint256",
          "name": "",
          "type": "uint256"
        }
      ],
      "payable": false,
      "stateMutability": "view",
      "type": "function"
    },
    {
      "constant": true,
      "inputs": [],
      "name": "getStakeholders",
      "outputs": [
        {
          "internalType": "address[]",
          "name": "_stakeholders",
          "type": "address[]"
        }
      ],
      "payable": false,
      "stateMutability": "view",
      "type": "function"
    },
    {
      "constant": true,
      "inputs": [
        {
          "internalType": "address",
          "name": "_stakeholder",
          "type": "address"
        }
      ],
      "name": "stakeOf",
      "outputs": [
        {
          "internalType": "uint256",
          "name": "",
          "type": "uint256"
        }
      ],
      "payable": false,
      "stateMutability": "view",
      "type": "function"
    },
    {
      "constant": false,
      "inputs": [
        {
          "internalType": "address",
          "name": "_stakeholder",
          "type": "address"
        },
        {
          "internalType": "uint256",
          "name": "_amount",
          "type": "uint256"
        }
      ],
      "name": "addStake",
      "outputs": [
        {
          "internalType": "bool",
          "name": "_success",
          "type": "bool"
        }
      ],
      "payable": false,
      "stateMutability": "nonpayable",
      "type": "function"
    },
    {
      "constant": false,
      "inputs": [
        {
          "internalType": "address",
          "name": "_stakeholder",
          "type": "address"
        },
        {
          "internalType": "uint256",
          "name": "_amount",
          "type": "uint256"
        }
      ],
      "name": "withdrawStake",
      "outputs": [
        {
          "internalType": "bool",
          "name": "_success",
          "type": "bool"
        }
      ],
      "payable": false,
      "stateMutability": "nonpayable",
      "type": "function"
    },
    {
      "constant": false,
      "inputs": [
        {
          "internalType": "address",
          "name": "_stakeholder",
          "type": "address"
        },
        {
          "internalType": "uint256",
          "name": "_amount",
          "type": "uint256"
        }
      ],
      "name": "harvestInterest",
      "outputs": [
        {
          "internalType": "bool",
          "name": "_success",
          "type": "bool"
        }
      ],
      "payable": false,
      "stateMutability": "nonpayable",
      "type": "function"
    }
  ],
  "bytecode": "0x6080604052736d00b05f25f740231c76261d8fa1f132dfa4bc23600260006101000a81548173ffffffffffffffffffffffffffffffffffffffff021916908373ffffffffffffffffffffffffffffffffffffffff16021790555034801561006557600080fd5b506040516115dd3803806115dd8339818101604052602081101561008857600080fd5b8101908080519060200190929190505050806000806101000a81548173ffffffffffffffffffffffffffffffffffffffff021916908373ffffffffffffffffffffffffffffffffffffffff160217905550600260009054906101000a900473ffffffffffffffffffffffffffffffffffffffff16600160006101000a81548173ffffffffffffffffffffffffffffffffffffffff021916908373ffffffffffffffffffffffffffffffffffffffff160217905550506114918061014c6000396000f3fe608060405234801561001057600080fd5b50600436106100885760003560e01c80636374299e1161005b5780636374299e146101df578063b699224714610245578063bf9befb1146102a4578063c6066272146102c257610088565b8063426233601461008d5780634b2f29b0146100e55780634b5c39491461012f5780634e0596fc14610195575b600080fd5b6100cf600480360360208110156100a357600080fd5b81019080803573ffffffffffffffffffffffffffffffffffffffff169060200190929190505050610328565b6040518082815260200191505060405180910390f35b6100ed610371565b604051808273ffffffffffffffffffffffffffffffffffffffff1673ffffffffffffffffffffffffffffffffffffffff16815260200191505060405180910390f35b61017b6004803603604081101561014557600080fd5b81019080803573ffffffffffffffffffffffffffffffffffffffff16906020019092919080359060200190929190505050610396565b604051808215151515815260200191505060405180910390f35b61019d610749565b604051808273ffffffffffffffffffffffffffffffffffffffff1673ffffffffffffffffffffffffffffffffffffffff16815260200191505060405180910390f35b61022b600480360360408110156101f557600080fd5b81019080803573ffffffffffffffffffffffffffffffffffffffff1690602001909291908035906020019092919050505061076f565b604051808215151515815260200191505060405180910390f35b61024d610ae8565b6040518080602001828103825283818151815260200191508051906020019060200280838360005b83811015610290578082015181840152602081019050610275565b505050509050019250505060405180910390f35b6102ac610b79565b6040518082815260200191505060405180910390f35b61030e600480360360408110156102d857600080fd5b81019080803573ffffffffffffffffffffffffffffffffffffffff16906020019092919080359060200190929190505050610b7f565b604051808215151515815260200191505060405180910390f35b6000600460008373ffffffffffffffffffffffffffffffffffffffff1673ffffffffffffffffffffffffffffffffffffffff168152602001908152602001600020549050919050565b6000809054906101000a900473ffffffffffffffffffffffffffffffffffffffff1681565b600080600160009054906101000a900473ffffffffffffffffffffffffffffffffffffffff1673ffffffffffffffffffffffffffffffffffffffff166370a08231306040518263ffffffff1660e01b8152600401808273ffffffffffffffffffffffffffffffffffffffff1673ffffffffffffffffffffffffffffffffffffffff16815260200191505060206040518083038186803b15801561043857600080fd5b505afa15801561044c573d6000803e3d6000fd5b505050506040513d602081101561046257600080fd5b81019080805190602001909291905050509050828110159150816104d1576040517f08c379a00000000000000000000000000000000000000000000000000000000081526004018080602001828103825260498152602001806112666049913960600191505060405180910390fd5b6000831191508161052d576040517f08c379a00000000000000000000000000000000000000000000000000000000081526004018080602001828103825260368152602001806113826036913960400191505060405180910390fd5b60008061053986610eba565b9150915081935083610596576040517f08c379a000000000000000000000000000000000000000000000000000000000815260040180806020018281038252603c815260200180611421603c913960400191505060405180910390fd5b600160009054906101000a900473ffffffffffffffffffffffffffffffffffffffff1673ffffffffffffffffffffffffffffffffffffffff1663a9059cbb87876040518363ffffffff1660e01b8152600401808373ffffffffffffffffffffffffffffffffffffffff1673ffffffffffffffffffffffffffffffffffffffff16815260200182815260200192505050602060405180830381600087803b15801561063f57600080fd5b505af1158015610653573d6000803e3d6000fd5b505050506040513d602081101561066957600080fd5b81019080805190602001909291905050509350836106d2576040517f08c379a000000000000000000000000000000000000000000000000000000000815260040180806020018281038252603d8152602001806113e4603d913960400191505060405180910390fd5b7fbc6226d988f89521ff097caee942a5df225233597b2ccfb422d97e5bf5ab1a6e8686604051808373ffffffffffffffffffffffffffffffffffffffff1673ffffffffffffffffffffffffffffffffffffffff1681526020018281526020019250505060405180910390a183935050505092915050565b600160009054906101000a900473ffffffffffffffffffffffffffffffffffffffff1681565b60008082119050806107cc576040517f08c379a000000000000000000000000000000000000000000000000000000000815260040180806020018281038252603f8152602001806112f7603f913960400191505060405180910390fd5b6000809054906101000a900473ffffffffffffffffffffffffffffffffffffffff1673ffffffffffffffffffffffffffffffffffffffff166323b872dd8430856040518463ffffffff1660e01b8152600401808473ffffffffffffffffffffffffffffffffffffffff1673ffffffffffffffffffffffffffffffffffffffff1681526020018373ffffffffffffffffffffffffffffffffffffffff1673ffffffffffffffffffffffffffffffffffffffff1681526020018281526020019350505050602060405180830381600087803b1580156108a857600080fd5b505af11580156108bc573d6000803e3d6000fd5b505050506040513d60208110156108d257600080fd5b810190808051906020019092919050505090508061093b576040517f08c379a00000000000000000000000000000000000000000000000000000000081526004018080602001828103825260488152602001806112af6048913960600191505060405180910390fd5b6000600460008573ffffffffffffffffffffffffffffffffffffffff1673ffffffffffffffffffffffffffffffffffffffff1681526020019081526020016000205414156109cc5781600460008573ffffffffffffffffffffffffffffffffffffffff1673ffffffffffffffffffffffffffffffffffffffff16815260200190815260200160002081905550610a59565b610a15600460008573ffffffffffffffffffffffffffffffffffffffff1673ffffffffffffffffffffffffffffffffffffffff1681526020019081526020016000205483610f64565b600460008573ffffffffffffffffffffffffffffffffffffffff1673ffffffffffffffffffffffffffffffffffffffff168152602001908152602001600020819055505b610a6560055483610f64565b600581905550610a7483610fec565b7fef4919d049fef8ef69d1c2520df0e53841a2cc408d33a3ea5db9b63f1a80051c8383604051808373ffffffffffffffffffffffffffffffffffffffff1673ffffffffffffffffffffffffffffffffffffffff1681526020018281526020019250505060405180910390a180905092915050565b60606003805480602002602001604051908101604052809291908181526020018280548015610b6c57602002820191906000526020600020905b8160009054906101000a900473ffffffffffffffffffffffffffffffffffffffff1673ffffffffffffffffffffffffffffffffffffffff1681526020019060010190808311610b22575b5050505050905080905090565b60055481565b600081600460008573ffffffffffffffffffffffffffffffffffffffff1673ffffffffffffffffffffffffffffffffffffffff168152602001908152602001600020541015905080610c1c576040517f08c379a000000000000000000000000000000000000000000000000000000000815260040180806020018281038252602c8152602001806113b8602c913960400191505060405180910390fd5b6000809054906101000a900473ffffffffffffffffffffffffffffffffffffffff1673ffffffffffffffffffffffffffffffffffffffff1663a9059cbb84846040518363ffffffff1660e01b8152600401808373ffffffffffffffffffffffffffffffffffffffff1673ffffffffffffffffffffffffffffffffffffffff16815260200182815260200192505050602060405180830381600087803b158015610cc457600080fd5b505af1158015610cd8573d6000803e3d6000fd5b505050506040513d6020811015610cee57600080fd5b8101908080519060200190929190505050905080610d57576040517f08c379a000000000000000000000000000000000000000000000000000000000815260040180806020018281038252604c815260200180611336604c913960600191505060405180910390fd5b610da0600460008573ffffffffffffffffffffffffffffffffffffffff1673ffffffffffffffffffffffffffffffffffffffff168152602001908152602001600020548361106a565b600460008573ffffffffffffffffffffffffffffffffffffffff1673ffffffffffffffffffffffffffffffffffffffff16815260200190815260200160002081905550610def6005548361106a565b6005819055506000600460008573ffffffffffffffffffffffffffffffffffffffff1673ffffffffffffffffffffffffffffffffffffffff1681526020019081526020016000205411610e4657610e45836110b4565b5b7f141ef67c4a6d3ec2adfb2f66d33c2b11de5b4f34344757554d430570b18a92ec8383604051808373ffffffffffffffffffffffffffffffffffffffff1673ffffffffffffffffffffffffffffffffffffffff1681526020018281526020019250505060405180910390a180905092915050565b60008060008090505b600380549050811015610f535760038181548110610edd57fe5b9060005260206000200160009054906101000a900473ffffffffffffffffffffffffffffffffffffffff1673ffffffffffffffffffffffffffffffffffffffff168473ffffffffffffffffffffffffffffffffffffffff161415610f48576001819250925050610f5f565b600181019050610ec3565b50600080809050915091505b915091565b600080828401905083811015610fe2576040517f08c379a000000000000000000000000000000000000000000000000000000000815260040180806020018281038252601b8152602001807f536166654d6174683a206164646974696f6e206f766572666c6f77000000000081525060200191505060405180910390fd5b8091505092915050565b6000610ff782610eba565b509050806110665760038290806001815401808255809150509060018203906000526020600020016000909192909190916101000a81548173ffffffffffffffffffffffffffffffffffffffff021916908373ffffffffffffffffffffffffffffffffffffffff160217905550505b5050565b60006110ac83836040518060400160405280601e81526020017f536166654d6174683a207375627472616374696f6e206f766572666c6f7700008152506111a5565b905092915050565b6000806110c083610eba565b9150915081156111a0576003600160038054905003815481106110df57fe5b9060005260206000200160009054906101000a900473ffffffffffffffffffffffffffffffffffffffff166003828154811061111757fe5b9060005260206000200160006101000a81548173ffffffffffffffffffffffffffffffffffffffff021916908373ffffffffffffffffffffffffffffffffffffffff160217905550600380548061116a57fe5b6001900381819060005260206000200160006101000a81549073ffffffffffffffffffffffffffffffffffffffff021916905590555b505050565b6000838311158290611252576040517f08c379a00000000000000000000000000000000000000000000000000000000081526004018080602001828103825283818151815260200191508051906020019080838360005b838110156112175780820151818401526020810190506111fc565b50505050905090810190601f1680156112445780820380516001836020036101000a031916815260200191505b509250505060405180910390fd5b506000838503905080915050939250505056fe5b48617276657374496e746572657374206661696c7572655d202d20496e73756666696369656e742062616c616e636520696e204375727665353030207374616b696e6720706f6f6c5b4164645374616b65206661696c7572655d202d205374616b6520616d6f756e74206e6f74206265696e6720637265646974656420746f20636f6e74726163742062616c616e63655b4164645374616b65206661696c7572655d202d205374616b6520616d6f756e742063616e6e6f742062652030207768656e20616464696e67207374616b655b57697468647261775374616b65206661696c7572655d202d20416d6f756e74206e6f74206265696e6720637265646974656420746f207374616b65686f6c64657227732062616c616e63655b48617276657374496e746572657374206661696c7572655d202d2043616e6e6f74206861727665737420302043525620746f6b656e5b57697468647261775374616b65206661696c7572655d202d20496e73756666696369656e74207374616b655b48617276657374496e746572657374206661696c7572655d202d205472616e73666572206661696c6564206f6e20437572766520636f6e74726163745b48617276657374496e746572657374206661696c7572655d202d20526571756573746572206973206e6f74206f7572207374616b65686f6c646572a265627a7a7231582014492fc138219984ababc55e626378823a4328a113906168c3939635dad08f4464736f6c63430005100032",
  "source": "pragma solidity ^0.5.0;\r\n\r\nimport \"@openzeppelin/contracts/token/ERC20/ERC20.sol\";\r\nimport \"@openzeppelin/contracts/token/ERC20/SafeERC20.sol\";\r\n\r\ncontract Curve500Staking {\r\n    using SafeERC20 for IERC20;\r\n    using SafeMath for uint256;\r\n    \r\n    IERC20 public CurveInstance;\r\n    IERC20 public MinionInstance;\r\n    address MinionAddress = 0x6d00B05F25F740231c76261D8Fa1F132DFA4Bc23;\r\n    address[] internal stakeholders;\r\n    mapping(address => uint256) internal stakes; // Stakeholder's stake(s)\r\n    uint256 public totalStakes;\r\n    \r\n    event AddStake(address sender, uint256 amount);\r\n    event WithdrawStake(address receiver, uint256 amount);\r\n    event HarvestInterest(address stakeholder, uint256 amount);\r\n    \r\n    constructor(address _curveAddress) public {\r\n        CurveInstance = ERC20(_curveAddress);\r\n        MinionInstance = ERC20(MinionAddress);\r\n    }\r\n    \r\n    function isStakeholder(address _address)\r\n        internal\r\n        view\r\n        returns (bool, uint256)\r\n    {\r\n        for (uint256 s = 0; s < stakeholders.length; s += 1) {\r\n            if (_address == stakeholders[s]) return (true, s);\r\n        }\r\n        return (false, 0);\r\n    }\r\n    \r\n    function addStakeholder(address _stakeholder) internal {\r\n        (bool _isStakeholder, ) = isStakeholder(_stakeholder);\r\n        if (!_isStakeholder) stakeholders.push(_stakeholder);\r\n    }\r\n    \r\n    function removeStakeholder(address _stakeholder) internal {\r\n        (bool _isStakeholder, uint256 s) = isStakeholder(_stakeholder);\r\n        if (_isStakeholder) {\r\n            // Replace the current found stakeholder with the last stakeholder\r\n            stakeholders[s] = stakeholders[stakeholders.length - 1];\r\n\r\n            // Remove the last stakeholder\r\n            stakeholders.pop();\r\n        }\r\n    }\r\n    \r\n    function getStakeholders()\r\n        public\r\n        view\r\n        returns (address[] memory _stakeholders)\r\n    {\r\n        _stakeholders = stakeholders;\r\n        return _stakeholders;\r\n    }\r\n    \r\n    function stakeOf(address _stakeholder) public view returns (uint256) {\r\n        return stakes[_stakeholder];\r\n    }\r\n    \r\n    function addStake(address _stakeholder, uint256 _amount) public returns (bool _success) {\r\n        _success = (_amount > 0);\r\n        require(_success, \"[AddStake failure] - Stake amount cannot be 0 when adding stake\");\r\n        \r\n        _success = (CurveInstance.transferFrom(_stakeholder, address(this), _amount));\r\n        require(_success, \"[AddStake failure] - Stake amount not being credited to contract balance\");\r\n        \r\n        if (stakes[_stakeholder] == 0) {\r\n            stakes[_stakeholder] =_amount; // Create new stake for sender\r\n        }else{\r\n            stakes[_stakeholder] = SafeMath.add(stakes[_stakeholder], _amount); // Add amount to existing stake\r\n        }\r\n        \r\n        totalStakes = SafeMath.add(totalStakes, _amount);\r\n        \r\n        addStakeholder(_stakeholder);\r\n        \r\n        emit AddStake(_stakeholder, _amount);\r\n        \r\n        return _success;\r\n    }\r\n    \r\n    function withdrawStake(address _stakeholder, uint256 _amount)\r\n        public returns (bool _success)\r\n    {\r\n        _success = (stakes[_stakeholder] >= _amount);\r\n        require(_success, \"[WithdrawStake failure] - Insufficient stake\");\r\n        \r\n        _success = (CurveInstance.transfer(_stakeholder, _amount));\r\n        require(_success, \"[WithdrawStake failure] - Amount not being credited to stakeholder's balance\");\r\n\r\n        stakes[_stakeholder] = SafeMath.sub(stakes[_stakeholder], _amount);\r\n\r\n        totalStakes = SafeMath.sub(totalStakes, _amount);\r\n\r\n        if (stakes[_stakeholder] <= 0) {\r\n            removeStakeholder(_stakeholder);\r\n        }\r\n\r\n        emit WithdrawStake(_stakeholder, _amount);\r\n        \r\n        return _success;\r\n    }\r\n    \r\n    function harvestInterest(address _stakeholder, uint256 _amount) public returns (bool _success) {\r\n        uint256 _balanceOfContract = MinionInstance.balanceOf(address(this));\r\n        _success = (_balanceOfContract >= _amount);\r\n        require(_success, \"[HarvestInterest failure] - Insufficient balance in Curve500 staking pool\");\r\n\r\n        _success = (_amount > 0);\r\n        require(_success, \"[HarvestInterest failure] - Cannot harvest 0 CRV token\");\r\n\r\n        (bool _isStakeholder, uint256 _s) = isStakeholder(_stakeholder);\r\n        _success = _isStakeholder;\r\n        require(_success, \"[HarvestInterest failure] - Requester is not our stakeholder\");\r\n\r\n        _success = MinionInstance.transfer(_stakeholder, _amount);\r\n        require(_success, \"[HarvestInterest failure] - Transfer failed on Curve contract\");\r\n\r\n        emit HarvestInterest(_stakeholder, _amount);\r\n\r\n        return _success;\r\n    }\r\n}",
  "sourcePath": "D:/dapps/custom-erc20-token/contracts/Curve500Staking.sol",
  "compiler": {
    "name": "solc",
    "version": "0.5.16+commit.9c3226ce.Emscripten.clang"
  },
  "schemaVersion": "3.3.2",
  "updatedAt": "2020-12-06T06:14:49.762Z",
  "networkType": "ethereum",
  "devdoc": {
    "methods": {}
  },
  "userdoc": {
    "methods": {}
  }
}