{
  "contractName": "ETH500Staking",
  "abi": [
    {
      "inputs": [
        {
          "internalType": "contract Minion",
          "name": "_minionContract",
          "type": "address"
        }
      ],
      "payable": false,
      "stateMutability": "nonpayable",
      "type": "constructor"
    },
    {
      "anonymous": false,
      "inputs": [
        {
          "indexed": false,
          "internalType": "address",
          "name": "sender",
          "type": "address"
        },
        {
          "indexed": false,
          "internalType": "uint256",
          "name": "amount",
          "type": "uint256"
        }
      ],
      "name": "AddStake",
      "type": "event"
    },
    {
      "anonymous": false,
      "inputs": [
        {
          "indexed": false,
          "internalType": "address",
          "name": "stakeholder",
          "type": "address"
        },
        {
          "indexed": false,
          "internalType": "uint256",
          "name": "amount",
          "type": "uint256"
        }
      ],
      "name": "SendReward",
      "type": "event"
    },
    {
      "anonymous": false,
      "inputs": [
        {
          "indexed": false,
          "internalType": "address",
          "name": "receiver",
          "type": "address"
        },
        {
          "indexed": false,
          "internalType": "uint256",
          "name": "amount",
          "type": "uint256"
        }
      ],
      "name": "WithdrawStake",
      "type": "event"
    },
    {
      "constant": true,
      "inputs": [],
      "name": "minionContract",
      "outputs": [
        {
          "internalType": "contract Minion",
          "name": "",
          "type": "address"
        }
      ],
      "payable": false,
      "stateMutability": "view",
      "type": "function"
    },
    {
      "constant": true,
      "inputs": [],
      "name": "totalStakes",
      "outputs": [
        {
          "internalType": "uint256",
          "name": "",
          "type": "uint256"
        }
      ],
      "payable": false,
      "stateMutability": "view",
      "type": "function"
    },
    {
      "constant": true,
      "inputs": [
        {
          "internalType": "address",
          "name": "_address",
          "type": "address"
        }
      ],
      "name": "isStakeholder",
      "outputs": [
        {
          "internalType": "bool",
          "name": "",
          "type": "bool"
        },
        {
          "internalType": "uint256",
          "name": "",
          "type": "uint256"
        }
      ],
      "payable": false,
      "stateMutability": "view",
      "type": "function"
    },
    {
      "constant": true,
      "inputs": [],
      "name": "getStakeholders",
      "outputs": [
        {
          "internalType": "address[]",
          "name": "_stakeholders",
          "type": "address[]"
        }
      ],
      "payable": false,
      "stateMutability": "view",
      "type": "function"
    },
    {
      "constant": true,
      "inputs": [
        {
          "internalType": "address",
          "name": "_stakeholder",
          "type": "address"
        }
      ],
      "name": "stakeOf",
      "outputs": [
        {
          "internalType": "uint256",
          "name": "",
          "type": "uint256"
        }
      ],
      "payable": false,
      "stateMutability": "view",
      "type": "function"
    },
    {
      "constant": false,
      "inputs": [],
      "name": "addStake",
      "outputs": [],
      "payable": true,
      "stateMutability": "payable",
      "type": "function"
    },
    {
      "constant": false,
      "inputs": [
        {
          "internalType": "address payable",
          "name": "_stakeholder",
          "type": "address"
        },
        {
          "internalType": "uint256",
          "name": "_amount",
          "type": "uint256"
        }
      ],
      "name": "withdrawStake",
      "outputs": [
        {
          "internalType": "bool",
          "name": "result",
          "type": "bool"
        }
      ],
      "payable": false,
      "stateMutability": "nonpayable",
      "type": "function"
    },
    {
      "constant": false,
      "inputs": [],
      "name": "clearStake",
      "outputs": [
        {
          "internalType": "bool",
          "name": "result",
          "type": "bool"
        }
      ],
      "payable": false,
      "stateMutability": "nonpayable",
      "type": "function"
    },
    {
      "constant": false,
      "inputs": [
        {
          "internalType": "address",
          "name": "_stakeholder",
          "type": "address"
        },
        {
          "internalType": "uint256",
          "name": "_amount",
          "type": "uint256"
        }
      ],
      "name": "sendReward",
      "outputs": [
        {
          "internalType": "bool",
          "name": "result",
          "type": "bool"
        }
      ],
      "payable": false,
      "stateMutability": "nonpayable",
      "type": "function"
    }
  ],
  "bytecode": "0x608060405234801561001057600080fd5b5060405161121e38038061121e8339818101604052602081101561003357600080fd5b8101908080519060200190929190505050806000806101000a81548173ffffffffffffffffffffffffffffffffffffffff021916908373ffffffffffffffffffffffffffffffffffffffff16021790555033600460006101000a81548173ffffffffffffffffffffffffffffffffffffffff021916908373ffffffffffffffffffffffffffffffffffffffff16021790555050611149806100d56000396000f3fe6080604052600436106100865760003560e01c8063ac1e263811610059578063ac1e26381461019c578063b6992247146101f3578063bf9befb11461025f578063c60662721461028a578063ef037b90146102fd57610086565b806307420a411461008b57806342623360146100fe578063476da566146101635780635a627dbc14610192575b600080fd5b34801561009757600080fd5b506100e4600480360360408110156100ae57600080fd5b81019080803573ffffffffffffffffffffffffffffffffffffffff1690602001909291908035906020019092919050505061036d565b604051808215151515815260200191505060405180910390f35b34801561010a57600080fd5b5061014d6004803603602081101561012157600080fd5b81019080803573ffffffffffffffffffffffffffffffffffffffff169060200190929190505050610545565b6040518082815260200191505060405180910390f35b34801561016f57600080fd5b5061017861058e565b604051808215151515815260200191505060405180910390f35b61019a6106ff565b005b3480156101a857600080fd5b506101b16108e7565b604051808273ffffffffffffffffffffffffffffffffffffffff1673ffffffffffffffffffffffffffffffffffffffff16815260200191505060405180910390f35b3480156101ff57600080fd5b5061020861090c565b6040518080602001828103825283818151815260200191508051906020019060200280838360005b8381101561024b578082015181840152602081019050610230565b505050509050019250505060405180910390f35b34801561026b57600080fd5b5061027461099d565b6040518082815260200191505060405180910390f35b34801561029657600080fd5b506102e3600480360360408110156102ad57600080fd5b81019080803573ffffffffffffffffffffffffffffffffffffffff169060200190929190803590602001909291905050506109a3565b604051808215151515815260200191505060405180910390f35b34801561030957600080fd5b5061034c6004803603602081101561032057600080fd5b81019080803573ffffffffffffffffffffffffffffffffffffffff169060200190929190505050610c15565b60405180831515151581526020018281526020019250505060405180910390f35b60008082116103e4576040517f08c379a000000000000000000000000000000000000000000000000000000000815260040180806020018281038252601c8152602001807f496e76616c696420616d6f756e74206f6e2073656e645265776172640000000081525060200191505060405180910390fd5b6000809054906101000a900473ffffffffffffffffffffffffffffffffffffffff1673ffffffffffffffffffffffffffffffffffffffff1663a9059cbb84846040518363ffffffff1660e01b8152600401808373ffffffffffffffffffffffffffffffffffffffff1673ffffffffffffffffffffffffffffffffffffffff16815260200182815260200192505050602060405180830381600087803b15801561048c57600080fd5b505af11580156104a0573d6000803e3d6000fd5b505050506040513d60208110156104b657600080fd5b81019080805190602001909291905050506104d057600080fd5b7fdd98c2e0f63fdbf67a6103620ad6f0ff8ece02b505f42dfd9933c03bcce1389d8383604051808373ffffffffffffffffffffffffffffffffffffffff1673ffffffffffffffffffffffffffffffffffffffff1681526020018281526020019250505060405180910390a16001905092915050565b6000600260008373ffffffffffffffffffffffffffffffffffffffff1673ffffffffffffffffffffffffffffffffffffffff168152602001908152602001600020549050919050565b600080600260003373ffffffffffffffffffffffffffffffffffffffff1673ffffffffffffffffffffffffffffffffffffffff16815260200190815260200160002054116105db57600080fd5b610663600260003373ffffffffffffffffffffffffffffffffffffffff1673ffffffffffffffffffffffffffffffffffffffff16815260200190815260200160002054600260003373ffffffffffffffffffffffffffffffffffffffff1673ffffffffffffffffffffffffffffffffffffffff16815260200190815260200160002054610cbf565b600260003373ffffffffffffffffffffffffffffffffffffffff1673ffffffffffffffffffffffffffffffffffffffff168152602001908152602001600020819055506000600260003373ffffffffffffffffffffffffffffffffffffffff1673ffffffffffffffffffffffffffffffffffffffff1681526020019081526020016000205414156106f8576106f733610d09565b5b6001905090565b6000600260003373ffffffffffffffffffffffffffffffffffffffff1673ffffffffffffffffffffffffffffffffffffffff168152602001908152602001600020541461074b57600080fd5b6000600260003373ffffffffffffffffffffffffffffffffffffffff1673ffffffffffffffffffffffffffffffffffffffff16815260200190815260200160002054141561079d5761079c33610df8565b5b6107e6600260003373ffffffffffffffffffffffffffffffffffffffff1673ffffffffffffffffffffffffffffffffffffffff1681526020019081526020016000205434610e76565b600260003373ffffffffffffffffffffffffffffffffffffffff1673ffffffffffffffffffffffffffffffffffffffff16815260200190815260200160002081905550610874600354600260003373ffffffffffffffffffffffffffffffffffffffff1673ffffffffffffffffffffffffffffffffffffffff16815260200190815260200160002054610e76565b6003819055507fef4919d049fef8ef69d1c2520df0e53841a2cc408d33a3ea5db9b63f1a80051c3334604051808373ffffffffffffffffffffffffffffffffffffffff1673ffffffffffffffffffffffffffffffffffffffff1681526020018281526020019250505060405180910390a1565b6000809054906101000a900473ffffffffffffffffffffffffffffffffffffffff1681565b6060600180548060200260200160405190810160405280929190818152602001828054801561099057602002820191906000526020600020905b8160009054906101000a900473ffffffffffffffffffffffffffffffffffffffff1673ffffffffffffffffffffffffffffffffffffffff1681526020019060010190808311610946575b5050505050905080905090565b60035481565b600081600260008573ffffffffffffffffffffffffffffffffffffffff1673ffffffffffffffffffffffffffffffffffffffff168152602001908152602001600020541015610a3d576040517f08c379a00000000000000000000000000000000000000000000000000000000081526004018080602001828103825260268152602001806110ef6026913960400191505060405180910390fd5b8273ffffffffffffffffffffffffffffffffffffffff166108fc839081150290604051600060405180830381858888f19350505050158015610a83573d6000803e3d6000fd5b5081600260008573ffffffffffffffffffffffffffffffffffffffff1673ffffffffffffffffffffffffffffffffffffffff16815260200190815260200160002060008282540392505081905550610b4f6040518060400160405280601581526020017f7374616b65686f6c6465722773207374616b653a200000000000000000000000815250600260008673ffffffffffffffffffffffffffffffffffffffff1673ffffffffffffffffffffffffffffffffffffffff16815260200190815260200160002054610efe565b6000600260008573ffffffffffffffffffffffffffffffffffffffff1673ffffffffffffffffffffffffffffffffffffffff1681526020019081526020016000205411610ba057610b9f83610d09565b5b7f141ef67c4a6d3ec2adfb2f66d33c2b11de5b4f34344757554d430570b18a92ec8383604051808373ffffffffffffffffffffffffffffffffffffffff1673ffffffffffffffffffffffffffffffffffffffff1681526020018281526020019250505060405180910390a16001905092915050565b60008060008090505b600180549050811015610cae5760018181548110610c3857fe5b9060005260206000200160009054906101000a900473ffffffffffffffffffffffffffffffffffffffff1673ffffffffffffffffffffffffffffffffffffffff168473ffffffffffffffffffffffffffffffffffffffff161415610ca3576001819250925050610cba565b600181019050610c1e565b50600080809050915091505b915091565b6000610d0183836040518060400160405280601e81526020017f536166654d6174683a207375627472616374696f6e206f766572666c6f770000815250611005565b905092915050565b600080610d1583610c15565b915091508115610df35760018080805490500381548110610d3257fe5b9060005260206000200160009054906101000a900473ffffffffffffffffffffffffffffffffffffffff1660018281548110610d6a57fe5b9060005260206000200160006101000a81548173ffffffffffffffffffffffffffffffffffffffff021916908373ffffffffffffffffffffffffffffffffffffffff1602179055506001805480610dbd57fe5b6001900381819060005260206000200160006101000a81549073ffffffffffffffffffffffffffffffffffffffff021916905590555b505050565b6000610e0382610c15565b50905080610e725760018290806001815401808255809150509060018203906000526020600020016000909192909190916101000a81548173ffffffffffffffffffffffffffffffffffffffff021916908373ffffffffffffffffffffffffffffffffffffffff160217905550505b5050565b600080828401905083811015610ef4576040517f08c379a000000000000000000000000000000000000000000000000000000000815260040180806020018281038252601b8152602001807f536166654d6174683a206164646974696f6e206f766572666c6f77000000000081525060200191505060405180910390fd5b8091505092915050565b61100182826040516024018080602001838152602001828103825284818151815260200191508051906020019080838360005b83811015610f4c578082015181840152602081019050610f31565b50505050905090810190601f168015610f795780820380516001836020036101000a031916815260200191505b5093505050506040516020818303038152906040527f9710a9d0000000000000000000000000000000000000000000000000000000007bffffffffffffffffffffffffffffffffffffffffffffffffffffffff19166020820180517bffffffffffffffffffffffffffffffffffffffffffffffffffffffff83818316178352505050506110c5565b5050565b60008383111582906110b2576040517f08c379a00000000000000000000000000000000000000000000000000000000081526004018080602001828103825283818151815260200191508051906020019080838360005b8381101561107757808201518184015260208101905061105c565b50505050905090810190601f1680156110a45780820380516001836020036101000a031916815260200191505b509250505060405180910390fd5b5060008385039050809150509392505050565b60008151905060006a636f6e736f6c652e6c6f679050602083016000808483855afa505050505056fe496e73756666696369656e74207374616b65206f6e207374616b65207769746864726177616ca265627a7a723158200f8c894f3b3a439a60b710bb7d1554345cc8b8dc21ba556dc0cbbe8a4afd1b7164736f6c63430005100032",
  "source": "pragma solidity ^0.5.0;\r\n\r\nimport \"./Minion.sol\";\r\nimport \"@openzeppelin/contracts/math/SafeMath.sol\"; // Import for SafeMath purpose\r\nimport \"@nomiclabs/buidler/console.sol\";\r\n\r\ncontract ETH500Staking {\r\n    using SafeMath for uint256;\r\n\r\n    Minion public minionContract;\r\n    address[] internal stakeholders;\r\n    mapping(address => uint256) internal stakes; // Stakeholder's stake(s)\r\n    uint256 public totalStakes;\r\n\r\n    address owner;\r\n    // mapping(address => uint256) internal rewards; // Stakeholder's reward(s)\r\n    // uint256 internal totalRewards;\r\n\r\n    modifier onlyOwner() {\r\n        require(msg.sender == owner);\r\n        _;\r\n    }\r\n\r\n    event AddStake(address sender, uint256 amount);\r\n    event WithdrawStake(address receiver, uint256 amount);\r\n    event SendReward(address stakeholder, uint256 amount);\r\n\r\n    constructor(Minion _minionContract) public {\r\n        minionContract = _minionContract; // Assign minion contract\r\n\r\n        owner = msg.sender; // Set owner of the contract\r\n    }\r\n\r\n    function isStakeholder(address _address)\r\n        public\r\n        view\r\n        returns (bool, uint256)\r\n    {\r\n        for (uint256 s = 0; s < stakeholders.length; s += 1) {\r\n            if (_address == stakeholders[s]) return (true, s);\r\n        }\r\n        return (false, 0);\r\n    }\r\n\r\n    // To add stakeholder if @param _stakeholder is not one\r\n    function addStakeholder(address _stakeholder) internal {\r\n        (bool _isStakeholder, ) = isStakeholder(_stakeholder);\r\n        if (!_isStakeholder) stakeholders.push(_stakeholder);\r\n    }\r\n\r\n    // To remove a stakeholder if @param _stakeholder is one\r\n    function removeStakeholder(address _stakeholder) internal {\r\n        (bool _isStakeholder, uint256 s) = isStakeholder(_stakeholder);\r\n        if (_isStakeholder) {\r\n            // Replace the current found stakeholder with the last stakeholder\r\n            stakeholders[s] = stakeholders[stakeholders.length - 1];\r\n\r\n            // Remove the last stakeholder\r\n            stakeholders.pop();\r\n        }\r\n    }\r\n\r\n    function getStakeholders()\r\n        public\r\n        view\r\n        returns (address[] memory _stakeholders)\r\n    {\r\n        _stakeholders = stakeholders;\r\n        return _stakeholders;\r\n    }\r\n\r\n    // To retrieve the stake of specific stakeholder\r\n    function stakeOf(address _stakeholder) public view returns (uint256) {\r\n        return stakes[_stakeholder];\r\n    }\r\n\r\n    // For user to deposit stake\r\n    function addStake() public payable {\r\n        require(stakes[msg.sender] == 0); // Make sure the user has no stake record\r\n\r\n        if (stakes[msg.sender] == 0) addStakeholder(msg.sender); // Add stakeholder to stakeholders list\r\n        stakes[msg.sender] = SafeMath.add(stakes[msg.sender], msg.value); // Add stake value\r\n\r\n        totalStakes = SafeMath.add(totalStakes, stakes[msg.sender]); // Add stake amount to total stakes\r\n\r\n        emit AddStake(msg.sender, msg.value);\r\n    }\r\n\r\n    function withdrawStake(address payable _stakeholder, uint256 _amount)\r\n        public\r\n        returns (bool result)\r\n    {\r\n        require(\r\n            stakes[_stakeholder] >= _amount,\r\n            \"Insufficient stake on stake withdrawal\"\r\n        );\r\n\r\n        _stakeholder.transfer(_amount);\r\n\r\n        stakes[_stakeholder] -= _amount;\r\n\r\n        console.log(\"stakeholder's stake: \", stakes[_stakeholder]);\r\n\r\n        if (stakes[_stakeholder] <= 0) {\r\n            removeStakeholder(_stakeholder);\r\n        }\r\n\r\n        emit WithdrawStake(_stakeholder, _amount);\r\n\r\n        return true;\r\n    }\r\n\r\n    // For admin to clear stake\r\n    function clearStake() public returns (bool result) {\r\n        require(stakes[msg.sender] > 0); // Make sure stakeholder has stake\r\n\r\n        stakes[msg.sender] = SafeMath.sub(\r\n            stakes[msg.sender],\r\n            stakes[msg.sender]\r\n        );\r\n        if (stakes[msg.sender] == 0) removeStakeholder(msg.sender);\r\n\r\n        return true;\r\n    }\r\n\r\n    function sendReward(address _stakeholder, uint256 _amount)\r\n        public\r\n        returns (bool result)\r\n    {\r\n        require(_amount > 0, \"Invalid amount on sendReward\");\r\n\r\n        require(minionContract.transfer(_stakeholder, _amount));\r\n\r\n        emit SendReward(_stakeholder, _amount);\r\n\r\n        return true;\r\n    }\r\n\r\n    // function distributeRewards() public onlyOwner returns (bool result) {\r\n    //     require(stakeholders.length > 0, \"No stakeholder found\");\r\n\r\n    //     for (uint256 s = 0; s < stakeholders.length; s += 1) {\r\n    //         uint256 proportional = SafeMath.div(\r\n    //             stakes[stakeholders[s]],\r\n    //             totalStakes\r\n    //         );\r\n\r\n    //         uint256 _reward = SafeMath.mul(_proportional, 10);\r\n\r\n    //         if (_reward > 0) minionContract.transfer(stakeholders[s], _reward);\r\n    //     }\r\n\r\n    //     return result;\r\n    // }\r\n\r\n    // function totalStakes() public view returns (uint256) {\r\n    //     uint256 _totalStakes = 0;\r\n    //     for (uint256 s = 0; s < stakeholders.length; s += 1) {\r\n    //         _totalStakes = add(_totalStakes, stakes[stakeholders[s]]); // Using openzeppelin/SafeMath \"add\" function\r\n    //     }\r\n\r\n    //     return _totalStakes;\r\n    // }\r\n\r\n    // function rewardOf(address _stakeholder) public view returns (uint256) {\r\n    //     uint256 _totalStakes = totalStakes();\r\n    //     uint256 _stakeholdersCount = stakesholder.length;\r\n\r\n    //     rewards[_stakeholder] = div(_stakeholdersCount, _totalStakes); // Reward of stakeholder = number of stakeholders / total stakes\r\n\r\n    //     require(rewards[_stakeholder] > 0);\r\n\r\n    //     return rewards[_stakeholder];\r\n    // }\r\n\r\n    // function totalRewards() public view returns (uint256) {\r\n    //     uint256 _totalRewards = 0;\r\n    //     for (uint256 s = 0; s < stakeholders.length; s += 1) {\r\n    //         _totalRewards = _totalRewards.add(rewards[stakeholders[s]]);\r\n    //     }\r\n\r\n    //     return _totalRewards;\r\n    // }\r\n\r\n    // function compoudRewards() public returns (bool result) {\r\n    //     uint256 _totalRewards = totalRewards();\r\n\r\n    //     require(_totalRewards > 0);\r\n\r\n    //     uint256 _interest = mul(_totalRewards, 10);\r\n\r\n    //     uint256 compoundedRewards = add(_totalRewards, _interest);\r\n    // }\r\n}\r\n",
  "sourcePath": "D:/dapps/custom-erc20-token/contracts/ETH500Staking.sol",
  "compiler": {
    "name": "solc",
    "version": "0.5.16+commit.9c3226ce.Emscripten.clang"
  },
  "schemaVersion": "3.3.0",
  "updatedAt": "2020-10-25T07:48:43.114Z",
  "networkType": "ethereum",
  "devdoc": {
    "methods": {}
  },
  "userdoc": {
    "methods": {}
  }
}