{
  "contractName": "ETH500Staking",
  "abi": [
    {
      "inputs": [
        {
          "internalType": "contract Minion",
          "name": "_minionContract",
          "type": "address"
        }
      ],
      "payable": false,
      "stateMutability": "nonpayable",
      "type": "constructor"
    },
    {
      "anonymous": false,
      "inputs": [
        {
          "indexed": false,
          "internalType": "address",
          "name": "",
          "type": "address"
        },
        {
          "indexed": false,
          "internalType": "uint256",
          "name": "",
          "type": "uint256"
        }
      ],
      "name": "receivedEther",
      "type": "event"
    },
    {
      "constant": true,
      "inputs": [],
      "name": "minionContract",
      "outputs": [
        {
          "internalType": "contract Minion",
          "name": "",
          "type": "address"
        }
      ],
      "payable": false,
      "stateMutability": "view",
      "type": "function"
    },
    {
      "constant": true,
      "inputs": [],
      "name": "totalStakes",
      "outputs": [
        {
          "internalType": "uint256",
          "name": "",
          "type": "uint256"
        }
      ],
      "payable": false,
      "stateMutability": "view",
      "type": "function"
    },
    {
      "constant": true,
      "inputs": [
        {
          "internalType": "address",
          "name": "_address",
          "type": "address"
        }
      ],
      "name": "isStakeholder",
      "outputs": [
        {
          "internalType": "bool",
          "name": "",
          "type": "bool"
        },
        {
          "internalType": "uint256",
          "name": "",
          "type": "uint256"
        }
      ],
      "payable": false,
      "stateMutability": "view",
      "type": "function"
    },
    {
      "constant": true,
      "inputs": [],
      "name": "getStakeholders",
      "outputs": [
        {
          "internalType": "address[]",
          "name": "_stakeholders",
          "type": "address[]"
        }
      ],
      "payable": false,
      "stateMutability": "view",
      "type": "function"
    },
    {
      "constant": true,
      "inputs": [
        {
          "internalType": "address",
          "name": "_stakeholder",
          "type": "address"
        }
      ],
      "name": "stakeOf",
      "outputs": [
        {
          "internalType": "uint256",
          "name": "",
          "type": "uint256"
        }
      ],
      "payable": false,
      "stateMutability": "view",
      "type": "function"
    },
    {
      "constant": false,
      "inputs": [],
      "name": "addStake",
      "outputs": [],
      "payable": true,
      "stateMutability": "payable",
      "type": "function"
    },
    {
      "constant": false,
      "inputs": [
        {
          "internalType": "address payable",
          "name": "_stakeholder",
          "type": "address"
        },
        {
          "internalType": "uint256",
          "name": "_amount",
          "type": "uint256"
        }
      ],
      "name": "withdrawStake",
      "outputs": [
        {
          "internalType": "bool",
          "name": "result",
          "type": "bool"
        }
      ],
      "payable": false,
      "stateMutability": "nonpayable",
      "type": "function"
    },
    {
      "constant": false,
      "inputs": [],
      "name": "clearStake",
      "outputs": [
        {
          "internalType": "bool",
          "name": "result",
          "type": "bool"
        }
      ],
      "payable": false,
      "stateMutability": "nonpayable",
      "type": "function"
    },
    {
      "constant": false,
      "inputs": [],
      "name": "distributeRewards",
      "outputs": [
        {
          "internalType": "bool",
          "name": "result",
          "type": "bool"
        }
      ],
      "payable": false,
      "stateMutability": "nonpayable",
      "type": "function"
    }
  ],
  "bytecode": "0x608060405234801561001057600080fd5b506040516111313803806111318339818101604052602081101561003357600080fd5b8101908080519060200190929190505050806000806101000a81548173ffffffffffffffffffffffffffffffffffffffff021916908373ffffffffffffffffffffffffffffffffffffffff16021790555033600460006101000a81548173ffffffffffffffffffffffffffffffffffffffff021916908373ffffffffffffffffffffffffffffffffffffffff1602179055505061105c806100d56000396000f3fe6080604052600436106100865760003560e01c8063ac1e263811610059578063ac1e263814610158578063b6992247146101af578063bf9befb11461021b578063c606627214610246578063ef037b90146102b957610086565b8063426233601461008b578063476da566146100f05780635a627dbc1461011f5780636f4a2cd014610129575b600080fd5b34801561009757600080fd5b506100da600480360360208110156100ae57600080fd5b81019080803573ffffffffffffffffffffffffffffffffffffffff169060200190929190505050610329565b6040518082815260200191505060405180910390f35b3480156100fc57600080fd5b50610105610372565b604051808215151515815260200191505060405180910390f35b6101276104e3565b005b34801561013557600080fd5b5061013e6106cb565b604051808215151515815260200191505060405180910390f35b34801561016457600080fd5b5061016d61091b565b604051808273ffffffffffffffffffffffffffffffffffffffff1673ffffffffffffffffffffffffffffffffffffffff16815260200191505060405180910390f35b3480156101bb57600080fd5b506101c4610940565b6040518080602001828103825283818151815260200191508051906020019060200280838360005b838110156102075780820151818401526020810190506101ec565b505050509050019250505060405180910390f35b34801561022757600080fd5b506102306109d1565b6040518082815260200191505060405180910390f35b34801561025257600080fd5b5061029f6004803603604081101561026957600080fd5b81019080803573ffffffffffffffffffffffffffffffffffffffff169060200190929190803590602001909291905050506109d7565b604051808215151515815260200191505060405180910390f35b3480156102c557600080fd5b50610308600480360360208110156102dc57600080fd5b81019080803573ffffffffffffffffffffffffffffffffffffffff169060200190929190505050610ac7565b60405180831515151581526020018281526020019250505060405180910390f35b6000600260008373ffffffffffffffffffffffffffffffffffffffff1673ffffffffffffffffffffffffffffffffffffffff168152602001908152602001600020549050919050565b600080600260003373ffffffffffffffffffffffffffffffffffffffff1673ffffffffffffffffffffffffffffffffffffffff16815260200190815260200160002054116103bf57600080fd5b610447600260003373ffffffffffffffffffffffffffffffffffffffff1673ffffffffffffffffffffffffffffffffffffffff16815260200190815260200160002054600260003373ffffffffffffffffffffffffffffffffffffffff1673ffffffffffffffffffffffffffffffffffffffff16815260200190815260200160002054610b71565b600260003373ffffffffffffffffffffffffffffffffffffffff1673ffffffffffffffffffffffffffffffffffffffff168152602001908152602001600020819055506000600260003373ffffffffffffffffffffffffffffffffffffffff1673ffffffffffffffffffffffffffffffffffffffff1681526020019081526020016000205414156104dc576104db33610bbb565b5b6001905090565b6000600260003373ffffffffffffffffffffffffffffffffffffffff1673ffffffffffffffffffffffffffffffffffffffff168152602001908152602001600020541461052f57600080fd5b6000600260003373ffffffffffffffffffffffffffffffffffffffff1673ffffffffffffffffffffffffffffffffffffffff1681526020019081526020016000205414156105815761058033610caa565b5b6105ca600260003373ffffffffffffffffffffffffffffffffffffffff1673ffffffffffffffffffffffffffffffffffffffff1681526020019081526020016000205434610d28565b600260003373ffffffffffffffffffffffffffffffffffffffff1673ffffffffffffffffffffffffffffffffffffffff16815260200190815260200160002081905550610658600354600260003373ffffffffffffffffffffffffffffffffffffffff1673ffffffffffffffffffffffffffffffffffffffff16815260200190815260200160002054610d28565b6003819055507fa398b89ba344a0b23a0b9de53db298b2a1a868b396c1878b7e9dcbafecd49b133334604051808373ffffffffffffffffffffffffffffffffffffffff1673ffffffffffffffffffffffffffffffffffffffff1681526020018281526020019250505060405180910390a1565b6000600460009054906101000a900473ffffffffffffffffffffffffffffffffffffffff1673ffffffffffffffffffffffffffffffffffffffff163373ffffffffffffffffffffffffffffffffffffffff161461072757600080fd5b60006001805490501161073957600080fd5b60008090505b6001805490508110156109135760006107d0600260006001858154811061076257fe5b9060005260206000200160009054906101000a900473ffffffffffffffffffffffffffffffffffffffff1673ffffffffffffffffffffffffffffffffffffffff1673ffffffffffffffffffffffffffffffffffffffff16815260200190815260200160002054600354610db0565b905060006107df82600a610dfa565b90506000811115610906576000809054906101000a900473ffffffffffffffffffffffffffffffffffffffff1673ffffffffffffffffffffffffffffffffffffffff1663a9059cbb6001858154811061083457fe5b9060005260206000200160009054906101000a900473ffffffffffffffffffffffffffffffffffffffff16836040518363ffffffff1660e01b8152600401808373ffffffffffffffffffffffffffffffffffffffff1673ffffffffffffffffffffffffffffffffffffffff16815260200182815260200192505050602060405180830381600087803b1580156108c957600080fd5b505af11580156108dd573d6000803e3d6000fd5b505050506040513d60208110156108f357600080fd5b8101908080519060200190929190505050505b505060018101905061073f565b506001905090565b6000809054906101000a900473ffffffffffffffffffffffffffffffffffffffff1681565b606060018054806020026020016040519081016040528092919081815260200182805480156109c457602002820191906000526020600020905b8160009054906101000a900473ffffffffffffffffffffffffffffffffffffffff1673ffffffffffffffffffffffffffffffffffffffff168152602001906001019080831161097a575b5050505050905080905090565b60035481565b600081600260008573ffffffffffffffffffffffffffffffffffffffff1673ffffffffffffffffffffffffffffffffffffffff168152602001908152602001600020541015610a2557600080fd5b8273ffffffffffffffffffffffffffffffffffffffff166108fc839081150290604051600060405180830381858888f19350505050158015610a6b573d6000803e3d6000fd5b506000600260008573ffffffffffffffffffffffffffffffffffffffff1673ffffffffffffffffffffffffffffffffffffffff1681526020019081526020016000205411610abd57610abc83610bbb565b5b6001905092915050565b60008060008090505b600180549050811015610b605760018181548110610aea57fe5b9060005260206000200160009054906101000a900473ffffffffffffffffffffffffffffffffffffffff1673ffffffffffffffffffffffffffffffffffffffff168473ffffffffffffffffffffffffffffffffffffffff161415610b55576001819250925050610b6c565b600181019050610ad0565b50600080809050915091505b915091565b6000610bb383836040518060400160405280601e81526020017f536166654d6174683a207375627472616374696f6e206f766572666c6f770000815250610e80565b905092915050565b600080610bc783610ac7565b915091508115610ca55760018080805490500381548110610be457fe5b9060005260206000200160009054906101000a900473ffffffffffffffffffffffffffffffffffffffff1660018281548110610c1c57fe5b9060005260206000200160006101000a81548173ffffffffffffffffffffffffffffffffffffffff021916908373ffffffffffffffffffffffffffffffffffffffff1602179055506001805480610c6f57fe5b6001900381819060005260206000200160006101000a81549073ffffffffffffffffffffffffffffffffffffffff021916905590555b505050565b6000610cb582610ac7565b50905080610d245760018290806001815401808255809150509060018203906000526020600020016000909192909190916101000a81548173ffffffffffffffffffffffffffffffffffffffff021916908373ffffffffffffffffffffffffffffffffffffffff160217905550505b5050565b600080828401905083811015610da6576040517f08c379a000000000000000000000000000000000000000000000000000000000815260040180806020018281038252601b8152602001807f536166654d6174683a206164646974696f6e206f766572666c6f77000000000081525060200191505060405180910390fd5b8091505092915050565b6000610df283836040518060400160405280601a81526020017f536166654d6174683a206469766973696f6e206279207a65726f000000000000815250610f40565b905092915050565b600080831415610e0d5760009050610e7a565b6000828402905082848281610e1e57fe5b0414610e75576040517f08c379a00000000000000000000000000000000000000000000000000000000081526004018080602001828103825260218152602001806110076021913960400191505060405180910390fd5b809150505b92915050565b6000838311158290610f2d576040517f08c379a00000000000000000000000000000000000000000000000000000000081526004018080602001828103825283818151815260200191508051906020019080838360005b83811015610ef2578082015181840152602081019050610ed7565b50505050905090810190601f168015610f1f5780820380516001836020036101000a031916815260200191505b509250505060405180910390fd5b5060008385039050809150509392505050565b60008083118290610fec576040517f08c379a00000000000000000000000000000000000000000000000000000000081526004018080602001828103825283818151815260200191508051906020019080838360005b83811015610fb1578082015181840152602081019050610f96565b50505050905090810190601f168015610fde5780820380516001836020036101000a031916815260200191505b509250505060405180910390fd5b506000838581610ff857fe5b04905080915050939250505056fe536166654d6174683a206d756c7469706c69636174696f6e206f766572666c6f77a265627a7a72315820bda617aa7da4269104da3befd714300b4138743fc7c2415daed339c5039d506b64736f6c63430005100032",
  "source": "pragma solidity ^0.5.0;\r\n\r\nimport \"./Minion.sol\";\r\nimport \"@openzeppelin/contracts/math/SafeMath.sol\"; // Import for SafeMath purpose\r\n\r\ncontract ETH500Staking {\r\n    using SafeMath for uint256;\r\n\r\n    Minion public minionContract;\r\n    address[] internal stakeholders;\r\n    mapping(address => uint256) internal stakes; // Stakeholder's stake(s)\r\n    uint256 public totalStakes;\r\n\r\n    address owner;\r\n    // mapping(address => uint256) internal rewards; // Stakeholder's reward(s)\r\n    // uint256 internal totalRewards;\r\n\r\n    modifier onlyOwner() {\r\n        require(msg.sender == owner);\r\n        _;\r\n    }\r\n\r\n    event receivedEther(address, uint256);\r\n\r\n    constructor(Minion _minionContract) public {\r\n        minionContract = _minionContract; // Assign minion contract\r\n\r\n        owner = msg.sender; // Set owner of the contract\r\n    }\r\n\r\n    function isStakeholder(address _address)\r\n        public\r\n        view\r\n        returns (bool, uint256)\r\n    {\r\n        for (uint256 s = 0; s < stakeholders.length; s += 1) {\r\n            if (_address == stakeholders[s]) return (true, s);\r\n        }\r\n        return (false, 0);\r\n    }\r\n\r\n    // To add stakeholder if @param _stakeholder is not one\r\n    function addStakeholder(address _stakeholder) internal {\r\n        (bool _isStakeholder, ) = isStakeholder(_stakeholder);\r\n        if (!_isStakeholder) stakeholders.push(_stakeholder);\r\n    }\r\n\r\n    // To remove a stakeholder if @param _stakeholder is one\r\n    function removeStakeholder(address _stakeholder) internal {\r\n        (bool _isStakeholder, uint256 s) = isStakeholder(_stakeholder);\r\n        if (_isStakeholder) {\r\n            // Replace the current found stakeholder with the last stakeholder\r\n            stakeholders[s] = stakeholders[stakeholders.length - 1];\r\n\r\n            // Remove the last stakeholder\r\n            stakeholders.pop();\r\n        }\r\n    }\r\n\r\n    function getStakeholders()\r\n        public\r\n        view\r\n        returns (address[] memory _stakeholders)\r\n    {\r\n        _stakeholders = stakeholders;\r\n        return _stakeholders;\r\n    }\r\n\r\n    // To retrieve the stake of specific stakeholder\r\n    function stakeOf(address _stakeholder) public view returns (uint256) {\r\n        return stakes[_stakeholder];\r\n    }\r\n\r\n    // For user to deposit stake\r\n    function addStake() public payable {\r\n        require(stakes[msg.sender] == 0); // Make sure the user has no stake record\r\n\r\n        if (stakes[msg.sender] == 0) addStakeholder(msg.sender); // Add stakeholder to stakeholders list\r\n        stakes[msg.sender] = SafeMath.add(stakes[msg.sender], msg.value); // Add stake value\r\n\r\n        totalStakes = SafeMath.add(totalStakes, stakes[msg.sender]); // Add stake amount to total stakes\r\n\r\n        emit receivedEther(msg.sender, msg.value);\r\n    }\r\n\r\n    function withdrawStake(address payable _stakeholder, uint256 _amount)\r\n        public\r\n        returns (bool result)\r\n    {\r\n        require(stakes[_stakeholder] >= _amount);\r\n\r\n        _stakeholder.transfer(_amount);\r\n\r\n        if (stakes[_stakeholder] <= 0) {\r\n            removeStakeholder(_stakeholder);\r\n        }\r\n\r\n        return true;\r\n    }\r\n\r\n    // For admin to clear stake\r\n    function clearStake() public returns (bool result) {\r\n        require(stakes[msg.sender] > 0); // Make sure stakeholder has stake\r\n\r\n        stakes[msg.sender] = SafeMath.sub(\r\n            stakes[msg.sender],\r\n            stakes[msg.sender]\r\n        );\r\n        if (stakes[msg.sender] == 0) removeStakeholder(msg.sender);\r\n\r\n        return true;\r\n    }\r\n\r\n    function distributeRewards() public onlyOwner returns (bool result) {\r\n        require(stakeholders.length > 0);\r\n\r\n        for (uint256 s = 0; s < stakeholders.length; s += 1) {\r\n            uint256 proportional = SafeMath.div(\r\n                stakes[stakeholders[s]],\r\n                totalStakes\r\n            );\r\n            uint256 reward = SafeMath.mul(proportional, 10);\r\n\r\n            if (reward > 0) minionContract.transfer(stakeholders[s], reward);\r\n        }\r\n\r\n        return true;\r\n    }\r\n\r\n    // function totalStakes() public view returns (uint256) {\r\n    //     uint256 _totalStakes = 0;\r\n    //     for (uint256 s = 0; s < stakeholders.length; s += 1) {\r\n    //         _totalStakes = add(_totalStakes, stakes[stakeholders[s]]); // Using openzeppelin/SafeMath \"add\" function\r\n    //     }\r\n\r\n    //     return _totalStakes;\r\n    // }\r\n\r\n    // function rewardOf(address _stakeholder) public view returns (uint256) {\r\n    //     uint256 _totalStakes = totalStakes();\r\n    //     uint256 _stakeholdersCount = stakesholder.length;\r\n\r\n    //     rewards[_stakeholder] = div(_stakeholdersCount, _totalStakes); // Reward of stakeholder = number of stakeholders / total stakes\r\n\r\n    //     require(rewards[_stakeholder] > 0);\r\n\r\n    //     return rewards[_stakeholder];\r\n    // }\r\n\r\n    // function totalRewards() public view returns (uint256) {\r\n    //     uint256 _totalRewards = 0;\r\n    //     for (uint256 s = 0; s < stakeholders.length; s += 1) {\r\n    //         _totalRewards = _totalRewards.add(rewards[stakeholders[s]]);\r\n    //     }\r\n\r\n    //     return _totalRewards;\r\n    // }\r\n\r\n    // function compoudRewards() public returns (bool result) {\r\n    //     uint256 _totalRewards = totalRewards();\r\n\r\n    //     require(_totalRewards > 0);\r\n\r\n    //     uint256 _interest = mul(_totalRewards, 10);\r\n\r\n    //     uint256 compoundedRewards = add(_totalRewards, _interest);\r\n    // }\r\n}\r\n",
  "sourcePath": "D:/dapps/custom-erc20-token/contracts/ETH500Staking.sol",
  "compiler": {
    "name": "solc",
    "version": "0.5.16+commit.9c3226ce.Emscripten.clang"
  },
  "schemaVersion": "3.3.0",
  "updatedAt": "2020-10-18T14:25:36.889Z",
  "networkType": "ethereum",
  "devdoc": {
    "methods": {}
  },
  "userdoc": {
    "methods": {}
  }
}