{
  "contractName": "ETH500Staking",
  "abi": [
    {
      "inputs": [
        {
          "internalType": "contract Minion",
          "name": "_minionContract",
          "type": "address"
        }
      ],
      "payable": false,
      "stateMutability": "nonpayable",
      "type": "constructor"
    },
    {
      "anonymous": false,
      "inputs": [
        {
          "indexed": false,
          "internalType": "address",
          "name": "sender",
          "type": "address"
        },
        {
          "indexed": false,
          "internalType": "uint256",
          "name": "amount",
          "type": "uint256"
        }
      ],
      "name": "AddStake",
      "type": "event"
    },
    {
      "anonymous": false,
      "inputs": [
        {
          "indexed": false,
          "internalType": "address",
          "name": "stakeholder",
          "type": "address"
        },
        {
          "indexed": false,
          "internalType": "uint256",
          "name": "amount",
          "type": "uint256"
        }
      ],
      "name": "HarvestInterest",
      "type": "event"
    },
    {
      "anonymous": false,
      "inputs": [
        {
          "indexed": false,
          "internalType": "address",
          "name": "receiver",
          "type": "address"
        },
        {
          "indexed": false,
          "internalType": "uint256",
          "name": "amount",
          "type": "uint256"
        }
      ],
      "name": "WithdrawStake",
      "type": "event"
    },
    {
      "constant": true,
      "inputs": [],
      "name": "minionContract",
      "outputs": [
        {
          "internalType": "contract Minion",
          "name": "",
          "type": "address"
        }
      ],
      "payable": false,
      "stateMutability": "view",
      "type": "function"
    },
    {
      "constant": true,
      "inputs": [],
      "name": "totalStakes",
      "outputs": [
        {
          "internalType": "uint256",
          "name": "",
          "type": "uint256"
        }
      ],
      "payable": false,
      "stateMutability": "view",
      "type": "function"
    },
    {
      "constant": true,
      "inputs": [],
      "name": "getStakeholders",
      "outputs": [
        {
          "internalType": "address[]",
          "name": "_stakeholders",
          "type": "address[]"
        }
      ],
      "payable": false,
      "stateMutability": "view",
      "type": "function"
    },
    {
      "constant": true,
      "inputs": [
        {
          "internalType": "address",
          "name": "_stakeholder",
          "type": "address"
        }
      ],
      "name": "stakeOf",
      "outputs": [
        {
          "internalType": "uint256",
          "name": "",
          "type": "uint256"
        }
      ],
      "payable": false,
      "stateMutability": "view",
      "type": "function"
    },
    {
      "constant": false,
      "inputs": [],
      "name": "addStake",
      "outputs": [],
      "payable": true,
      "stateMutability": "payable",
      "type": "function"
    },
    {
      "constant": false,
      "inputs": [
        {
          "internalType": "address payable",
          "name": "_stakeholder",
          "type": "address"
        },
        {
          "internalType": "uint256",
          "name": "_amount",
          "type": "uint256"
        }
      ],
      "name": "withdrawStake",
      "outputs": [
        {
          "internalType": "bool",
          "name": "_success",
          "type": "bool"
        }
      ],
      "payable": false,
      "stateMutability": "nonpayable",
      "type": "function"
    },
    {
      "constant": false,
      "inputs": [
        {
          "internalType": "address",
          "name": "_stakeholder",
          "type": "address"
        },
        {
          "internalType": "uint256",
          "name": "_amount",
          "type": "uint256"
        }
      ],
      "name": "harvestInterest",
      "outputs": [
        {
          "internalType": "bool",
          "name": "_success",
          "type": "bool"
        }
      ],
      "payable": false,
      "stateMutability": "nonpayable",
      "type": "function"
    }
  ],
  "bytecode": "0x6080604052630525e6d060045534801561001857600080fd5b506040516110023803806110028339818101604052602081101561003b57600080fd5b8101908080519060200190929190505050806000806101000a81548173ffffffffffffffffffffffffffffffffffffffff021916908373ffffffffffffffffffffffffffffffffffffffff16021790555033600660006101000a81548173ffffffffffffffffffffffffffffffffffffffff021916908373ffffffffffffffffffffffffffffffffffffffff16021790555050610f25806100dd6000396000f3fe6080604052600436106100705760003560e01c8063ac1e26381161004e578063ac1e263814610157578063b6992247146101ae578063bf9befb11461021a578063c60662721461024557610070565b806342623360146100755780634b5c3949146100da5780635a627dbc1461014d575b600080fd5b34801561008157600080fd5b506100c46004803603602081101561009857600080fd5b81019080803573ffffffffffffffffffffffffffffffffffffffff1690602001909291905050506102b8565b6040518082815260200191505060405180910390f35b3480156100e657600080fd5b50610133600480360360408110156100fd57600080fd5b81019080803573ffffffffffffffffffffffffffffffffffffffff16906020019092919080359060200190929190505050610301565b604051808215151515815260200191505060405180910390f35b6101556106cf565b005b34801561016357600080fd5b5061016c6108ce565b604051808273ffffffffffffffffffffffffffffffffffffffff1673ffffffffffffffffffffffffffffffffffffffff16815260200191505060405180910390f35b3480156101ba57600080fd5b506101c36108f3565b6040518080602001828103825283818151815260200191508051906020019060200280838360005b838110156102065780820151818401526020810190506101eb565b505050509050019250505060405180910390f35b34801561022657600080fd5b5061022f610984565b6040518082815260200191505060405180910390f35b34801561025157600080fd5b5061029e6004803603604081101561026857600080fd5b81019080803573ffffffffffffffffffffffffffffffffffffffff1690602001909291908035906020019092919050505061098a565b604051808215151515815260200191505060405180910390f35b6000600260008373ffffffffffffffffffffffffffffffffffffffff1673ffffffffffffffffffffffffffffffffffffffff168152602001908152602001600020549050919050565b6000806000809054906101000a900473ffffffffffffffffffffffffffffffffffffffff1673ffffffffffffffffffffffffffffffffffffffff166370a08231306040518263ffffffff1660e01b8152600401808273ffffffffffffffffffffffffffffffffffffffff1673ffffffffffffffffffffffffffffffffffffffff16815260200191505060206040518083038186803b1580156103a257600080fd5b505afa1580156103b6573d6000803e3d6000fd5b505050506040513d60208110156103cc57600080fd5b810190808051906020019092919050505090508281101591508161043b576040517f08c379a000000000000000000000000000000000000000000000000000000000815260040180806020018281038252602a815260200180610e78602a913960400191505060405180910390fd5b60008311915081610497576040517f08c379a0000000000000000000000000000000000000000000000000000000008152600401808060200182810382526025815260200180610ea26025913960400191505060405180910390fd5b6000806104a386610b90565b915091508193508361051d576040517f08c379a00000000000000000000000000000000000000000000000000000000081526004018080602001828103825260208152602001807f526571756573746572206973206e6f74206f7572207374616b65686f6c64657281525060200191505060405180910390fd5b6000809054906101000a900473ffffffffffffffffffffffffffffffffffffffff1673ffffffffffffffffffffffffffffffffffffffff1663a9059cbb87876040518363ffffffff1660e01b8152600401808373ffffffffffffffffffffffffffffffffffffffff1673ffffffffffffffffffffffffffffffffffffffff16815260200182815260200192505050602060405180830381600087803b1580156105c557600080fd5b505af11580156105d9573d6000803e3d6000fd5b505050506040513d60208110156105ef57600080fd5b8101908080519060200190929190505050935083610658576040517f08c379a0000000000000000000000000000000000000000000000000000000008152600401808060200182810382526022815260200180610e566022913960400191505060405180910390fd5b7fbc6226d988f89521ff097caee942a5df225233597b2ccfb422d97e5bf5ab1a6e8686604051808373ffffffffffffffffffffffffffffffffffffffff1673ffffffffffffffffffffffffffffffffffffffff1681526020018281526020019250505060405180910390a183935050505092915050565b60003411610728576040517f08c379a000000000000000000000000000000000000000000000000000000000815260040180806020018281038252602a815260200180610ec7602a913960400191505060405180910390fd5b6000600260003373ffffffffffffffffffffffffffffffffffffffff1673ffffffffffffffffffffffffffffffffffffffff1681526020019081526020016000205414156107b95734600260003373ffffffffffffffffffffffffffffffffffffffff1673ffffffffffffffffffffffffffffffffffffffff16815260200190815260200160002081905550610846565b610802600260003373ffffffffffffffffffffffffffffffffffffffff1673ffffffffffffffffffffffffffffffffffffffff1681526020019081526020016000205434610c3a565b600260003373ffffffffffffffffffffffffffffffffffffffff1673ffffffffffffffffffffffffffffffffffffffff168152602001908152602001600020819055505b61085260055434610c3a565b60058190555061086133610cc2565b7fef4919d049fef8ef69d1c2520df0e53841a2cc408d33a3ea5db9b63f1a80051c3334604051808373ffffffffffffffffffffffffffffffffffffffff1673ffffffffffffffffffffffffffffffffffffffff1681526020018281526020019250505060405180910390a1565b6000809054906101000a900473ffffffffffffffffffffffffffffffffffffffff1681565b6060600180548060200260200160405190810160405280929190818152602001828054801561097757602002820191906000526020600020905b8160009054906101000a900473ffffffffffffffffffffffffffffffffffffffff1673ffffffffffffffffffffffffffffffffffffffff168152602001906001019080831161092d575b5050505050905080905090565b60055481565b600081600260008573ffffffffffffffffffffffffffffffffffffffff1673ffffffffffffffffffffffffffffffffffffffff168152602001908152602001600020541015905080610a27576040517f08c379a0000000000000000000000000000000000000000000000000000000008152600401808060200182810382526026815260200180610e306026913960400191505060405180910390fd5b8273ffffffffffffffffffffffffffffffffffffffff166108fc839081150290604051600060405180830381858888f19350505050158015610a6d573d6000803e3d6000fd5b5081600260008573ffffffffffffffffffffffffffffffffffffffff1673ffffffffffffffffffffffffffffffffffffffff16815260200190815260200160002060008282540392505081905550816005600082825403925050819055506000600260008573ffffffffffffffffffffffffffffffffffffffff1673ffffffffffffffffffffffffffffffffffffffff1681526020019081526020016000205411610b1c57610b1b83610d40565b5b7f141ef67c4a6d3ec2adfb2f66d33c2b11de5b4f34344757554d430570b18a92ec8383604051808373ffffffffffffffffffffffffffffffffffffffff1673ffffffffffffffffffffffffffffffffffffffff1681526020018281526020019250505060405180910390a180905092915050565b60008060008090505b600180549050811015610c295760018181548110610bb357fe5b9060005260206000200160009054906101000a900473ffffffffffffffffffffffffffffffffffffffff1673ffffffffffffffffffffffffffffffffffffffff168473ffffffffffffffffffffffffffffffffffffffff161415610c1e576001819250925050610c35565b600181019050610b99565b50600080809050915091505b915091565b600080828401905083811015610cb8576040517f08c379a000000000000000000000000000000000000000000000000000000000815260040180806020018281038252601b8152602001807f536166654d6174683a206164646974696f6e206f766572666c6f77000000000081525060200191505060405180910390fd5b8091505092915050565b6000610ccd82610b90565b50905080610d3c5760018290806001815401808255809150509060018203906000526020600020016000909192909190916101000a81548173ffffffffffffffffffffffffffffffffffffffff021916908373ffffffffffffffffffffffffffffffffffffffff160217905550505b5050565b600080610d4c83610b90565b915091508115610e2a5760018080805490500381548110610d6957fe5b9060005260206000200160009054906101000a900473ffffffffffffffffffffffffffffffffffffffff1660018281548110610da157fe5b9060005260206000200160006101000a81548173ffffffffffffffffffffffffffffffffffffffff021916908373ffffffffffffffffffffffffffffffffffffffff1602179055506001805480610df457fe5b6001900381819060005260206000200160006101000a81549073ffffffffffffffffffffffffffffffffffffffff021916905590555b50505056fe496e73756666696369656e74207374616b65206f6e207374616b65207769746864726177616c5472616e73666572206661696c6564206f6e204d696e696f6e20636f6e7472616374496e73756666696369656e7420616d6f756e7420696e20455448353030207374616b696e6720706f6f6c496e76616c696420616d6f756e74206f6e2068617276657374696e6720696e7465726573745374616b6520616d6f756e742063616e6e6f742062652030207768656e20616464696e67207374616b65a265627a7a72315820e1a3093bd7a01d79c5fa42fbb795536903d683c4699766ebf4f744ed8f431c9764736f6c63430005100032",
  "source": "pragma solidity ^0.5.0;\r\n\r\nimport \"./Minion.sol\";\r\nimport \"@openzeppelin/contracts/math/SafeMath.sol\"; // Import for SafeMath purpose\r\nimport \"@nomiclabs/buidler/console.sol\";\r\n\r\ncontract ETH500Staking {\r\n    using SafeMath for uint256;\r\n\r\n    Minion public minionContract;\r\n    address[] internal stakeholders;\r\n    mapping(address => uint256) internal stakes; // Stakeholder's stake(s)\r\n    mapping(address => uint256) internal lastRewardSentTime;\r\n    uint256 internal minimumInterval = 86370000; // Minimum interval = 86370 sec (~ a day)\r\n    uint256 public totalStakes;\r\n\r\n    address owner;\r\n\r\n    modifier onlyOwner() {\r\n        require(msg.sender == owner);\r\n        _;\r\n    }\r\n\r\n    event AddStake(address sender, uint256 amount);\r\n    event WithdrawStake(address receiver, uint256 amount);\r\n    event HarvestInterest(address stakeholder, uint256 amount);\r\n    // event SendReward(\r\n    //     address stakeholder,\r\n    //     uint256 amount,\r\n    //     uint256 lastRewardSentTime,\r\n    //     bool result\r\n    // );\r\n\r\n    constructor(Minion _minionContract) public {\r\n        minionContract = _minionContract; // Assign minion contract\r\n\r\n        owner = msg.sender; // Set owner of the contract\r\n    }\r\n\r\n    // To check if address is one of the stakeholders\r\n    function isStakeholder(address _address)\r\n        internal\r\n        view\r\n        returns (bool, uint256)\r\n    {\r\n        for (uint256 s = 0; s < stakeholders.length; s += 1) {\r\n            if (_address == stakeholders[s]) return (true, s);\r\n        }\r\n        return (false, 0);\r\n    }\r\n\r\n    // To add stakeholder if @param _stakeholder is not one\r\n    function addStakeholder(address _stakeholder) internal {\r\n        (bool _isStakeholder, ) = isStakeholder(_stakeholder);\r\n        if (!_isStakeholder) stakeholders.push(_stakeholder);\r\n    }\r\n\r\n    // To remove a stakeholder if @param _stakeholder is one\r\n    function removeStakeholder(address _stakeholder) internal {\r\n        (bool _isStakeholder, uint256 s) = isStakeholder(_stakeholder);\r\n        if (_isStakeholder) {\r\n            // Replace the current found stakeholder with the last stakeholder\r\n            stakeholders[s] = stakeholders[stakeholders.length - 1];\r\n\r\n            // Remove the last stakeholder\r\n            stakeholders.pop();\r\n        }\r\n    }\r\n\r\n    // Get stakeholder list\r\n    function getStakeholders()\r\n        public\r\n        view\r\n        returns (address[] memory _stakeholders)\r\n    {\r\n        _stakeholders = stakeholders;\r\n        return _stakeholders;\r\n    }\r\n\r\n    // To retrieve the stake of specific stakeholder\r\n    function stakeOf(address _stakeholder) public view returns (uint256) {\r\n        return stakes[_stakeholder];\r\n    }\r\n\r\n    // For user to deposit stake\r\n    function addStake() public payable {\r\n        require(msg.value > 0, \"Stake amount cannot be 0 when adding stake\");\r\n\r\n        if (stakes[msg.sender] == 0) {\r\n            stakes[msg.sender] = msg.value; // Create new stake for sender\r\n        }else{\r\n            stakes[msg.sender] = SafeMath.add(stakes[msg.sender], msg.value); // Add amount to existing stake\r\n        }\r\n\r\n        totalStakes = SafeMath.add(totalStakes, msg.value); // Add stake amount to total stakes\r\n\r\n        addStakeholder(msg.sender); // Add stakeholder to stakeholders list\r\n\r\n        emit AddStake(msg.sender, msg.value);\r\n    }\r\n\r\n    // To withdraw stakeholder's stake in ETH\r\n    function withdrawStake(address payable _stakeholder, uint256 _amount)\r\n        public\r\n        returns (bool _success)\r\n    {\r\n        _success = (stakes[_stakeholder] >= _amount);\r\n        require(_success, \"Insufficient stake on stake withdrawal\");\r\n\r\n        _stakeholder.transfer(_amount);\r\n\r\n        stakes[_stakeholder] -= _amount;\r\n\r\n        totalStakes -= _amount;\r\n\r\n        if (stakes[_stakeholder] <= 0) {\r\n            removeStakeholder(_stakeholder);\r\n        }\r\n\r\n        emit WithdrawStake(_stakeholder, _amount);\r\n\r\n        return _success;\r\n    }\r\n\r\n    // To harvest interest\r\n    function harvestInterest(address _stakeholder, uint256 _amount) public returns (bool _success) {\r\n        uint256 _balanceOfContract = minionContract.balanceOf(address(this));\r\n        _success = (_balanceOfContract >= _amount);\r\n        require(_success, \"Insufficient amount in ETH500 staking pool\");\r\n\r\n        _success = (_amount > 0);\r\n        require(_success, \"Invalid amount on harvesting interest\");\r\n\r\n        (bool _isStakeholder, uint256 _s) = isStakeholder(_stakeholder);\r\n        _success = _isStakeholder;\r\n        require(_success, \"Requester is not our stakeholder\");\r\n\r\n        _success = minionContract.transfer(_stakeholder, _amount);\r\n        require(_success, \"Transfer failed on Minion contract\");\r\n\r\n        emit HarvestInterest(_stakeholder, _amount);\r\n\r\n        return _success;\r\n    }\r\n\r\n    // To send reward to stakeholder\r\n    // function sendReward(\r\n    //     address _stakeholder,\r\n    //     uint256 _amount,\r\n    //     uint256 _currentTime\r\n    // ) public {\r\n    //     require(_amount > 0, \"Invalid amount on sendReward\");\r\n\r\n    //     if (lastRewardSentTime[_stakeholder] == 0) {\r\n    //         lastRewardSentTime[_stakeholder] = _currentTime;\r\n\r\n    //         require(minionContract.transfer(_stakeholder, _amount));\r\n\r\n    //         bool _result = true;\r\n\r\n    //         emit SendReward(\r\n    //             _stakeholder,\r\n    //             _amount,\r\n    //             lastRewardSentTime[_stakeholder],\r\n    //             _result\r\n    //         );\r\n    //     } else {\r\n    //         uint256 _interval = _currentTime - lastRewardSentTime[_stakeholder];\r\n    //         require(\r\n    //             _interval > minimumInterval,\r\n    //             \"Interval between last sent is too close\"\r\n    //         );\r\n\r\n    //         lastRewardSentTime[_stakeholder] = _currentTime;\r\n\r\n    //         require(minionContract.transfer(_stakeholder, _amount));\r\n\r\n    //         bool _result = true;\r\n\r\n    //         emit SendReward(\r\n    //             _stakeholder,\r\n    //             _amount,\r\n    //             lastRewardSentTime[_stakeholder],\r\n    //             _result\r\n    //         );\r\n    //     }\r\n    // }\r\n}\r\n",
  "sourcePath": "D:/dapps/custom-erc20-token/contracts/ETH500Staking.sol",
  "compiler": {
    "name": "solc",
    "version": "0.5.16+commit.9c3226ce.Emscripten.clang"
  },
  "schemaVersion": "3.3.0",
  "updatedAt": "2020-11-07T07:37:49.358Z",
  "networkType": "ethereum",
  "devdoc": {
    "methods": {}
  },
  "userdoc": {
    "methods": {}
  }
}