{
  "contractName": "ETH500Staking",
  "abi": [
    {
      "inputs": [
        {
          "internalType": "contract Minion",
          "name": "_minionContract",
          "type": "address"
        }
      ],
      "payable": false,
      "stateMutability": "nonpayable",
      "type": "constructor"
    },
    {
      "anonymous": false,
      "inputs": [
        {
          "indexed": false,
          "internalType": "address",
          "name": "",
          "type": "address"
        },
        {
          "indexed": false,
          "internalType": "uint256",
          "name": "",
          "type": "uint256"
        }
      ],
      "name": "receivedEther",
      "type": "event"
    },
    {
      "constant": true,
      "inputs": [],
      "name": "minionContract",
      "outputs": [
        {
          "internalType": "contract Minion",
          "name": "",
          "type": "address"
        }
      ],
      "payable": false,
      "stateMutability": "view",
      "type": "function"
    },
    {
      "constant": true,
      "inputs": [],
      "name": "totalStakes",
      "outputs": [
        {
          "internalType": "uint256",
          "name": "",
          "type": "uint256"
        }
      ],
      "payable": false,
      "stateMutability": "view",
      "type": "function"
    },
    {
      "constant": true,
      "inputs": [
        {
          "internalType": "address",
          "name": "_address",
          "type": "address"
        }
      ],
      "name": "isStakeholder",
      "outputs": [
        {
          "internalType": "bool",
          "name": "",
          "type": "bool"
        },
        {
          "internalType": "uint256",
          "name": "",
          "type": "uint256"
        }
      ],
      "payable": false,
      "stateMutability": "view",
      "type": "function"
    },
    {
      "constant": false,
      "inputs": [
        {
          "internalType": "address",
          "name": "_stakeholder",
          "type": "address"
        }
      ],
      "name": "addStakeholder",
      "outputs": [],
      "payable": false,
      "stateMutability": "nonpayable",
      "type": "function"
    },
    {
      "constant": false,
      "inputs": [
        {
          "internalType": "address",
          "name": "_stakeholder",
          "type": "address"
        }
      ],
      "name": "removeStakeholder",
      "outputs": [],
      "payable": false,
      "stateMutability": "nonpayable",
      "type": "function"
    },
    {
      "constant": true,
      "inputs": [
        {
          "internalType": "address",
          "name": "_stakeholder",
          "type": "address"
        }
      ],
      "name": "stakeOf",
      "outputs": [
        {
          "internalType": "uint256",
          "name": "",
          "type": "uint256"
        }
      ],
      "payable": false,
      "stateMutability": "view",
      "type": "function"
    },
    {
      "constant": false,
      "inputs": [],
      "name": "addStake",
      "outputs": [],
      "payable": true,
      "stateMutability": "payable",
      "type": "function"
    },
    {
      "constant": false,
      "inputs": [],
      "name": "clearStake",
      "outputs": [
        {
          "internalType": "bool",
          "name": "result",
          "type": "bool"
        }
      ],
      "payable": false,
      "stateMutability": "nonpayable",
      "type": "function"
    },
    {
      "constant": false,
      "inputs": [],
      "name": "distributeRewards",
      "outputs": [
        {
          "internalType": "bool",
          "name": "result",
          "type": "bool"
        }
      ],
      "payable": false,
      "stateMutability": "nonpayable",
      "type": "function"
    }
  ],
  "bytecode": "0x608060405234801561001057600080fd5b50604051610f73380380610f738339818101604052602081101561003357600080fd5b8101908080519060200190929190505050806000806101000a81548173ffffffffffffffffffffffffffffffffffffffff021916908373ffffffffffffffffffffffffffffffffffffffff16021790555033600460006101000a81548173ffffffffffffffffffffffffffffffffffffffff021916908373ffffffffffffffffffffffffffffffffffffffff16021790555050610e9e806100d56000396000f3fe6080604052600436106100865760003560e01c8063ac1e263811610059578063ac1e263814610158578063bcb0c2d7146101af578063bf9befb114610200578063e5c42fd11461022b578063ef037b901461027c57610086565b8063426233601461008b578063476da566146100f05780635a627dbc1461011f5780636f4a2cd014610129575b600080fd5b34801561009757600080fd5b506100da600480360360208110156100ae57600080fd5b81019080803573ffffffffffffffffffffffffffffffffffffffff1690602001909291905050506102ec565b6040518082815260200191505060405180910390f35b3480156100fc57600080fd5b50610105610335565b604051808215151515815260200191505060405180910390f35b6101276104a6565b005b34801561013557600080fd5b5061013e61068e565b604051808215151515815260200191505060405180910390f35b34801561016457600080fd5b5061016d6108de565b604051808273ffffffffffffffffffffffffffffffffffffffff1673ffffffffffffffffffffffffffffffffffffffff16815260200191505060405180910390f35b3480156101bb57600080fd5b506101fe600480360360208110156101d257600080fd5b81019080803573ffffffffffffffffffffffffffffffffffffffff169060200190929190505050610903565b005b34801561020c57600080fd5b506102156109f2565b6040518082815260200191505060405180910390f35b34801561023757600080fd5b5061027a6004803603602081101561024e57600080fd5b81019080803573ffffffffffffffffffffffffffffffffffffffff1690602001909291905050506109f8565b005b34801561028857600080fd5b506102cb6004803603602081101561029f57600080fd5b81019080803573ffffffffffffffffffffffffffffffffffffffff169060200190929190505050610a76565b60405180831515151581526020018281526020019250505060405180910390f35b6000600260008373ffffffffffffffffffffffffffffffffffffffff1673ffffffffffffffffffffffffffffffffffffffff168152602001908152602001600020549050919050565b600080600260003373ffffffffffffffffffffffffffffffffffffffff1673ffffffffffffffffffffffffffffffffffffffff168152602001908152602001600020541161038257600080fd5b61040a600260003373ffffffffffffffffffffffffffffffffffffffff1673ffffffffffffffffffffffffffffffffffffffff16815260200190815260200160002054600260003373ffffffffffffffffffffffffffffffffffffffff1673ffffffffffffffffffffffffffffffffffffffff16815260200190815260200160002054610b20565b600260003373ffffffffffffffffffffffffffffffffffffffff1673ffffffffffffffffffffffffffffffffffffffff168152602001908152602001600020819055506000600260003373ffffffffffffffffffffffffffffffffffffffff1673ffffffffffffffffffffffffffffffffffffffff16815260200190815260200160002054141561049f5761049e33610903565b5b6001905090565b6000600260003373ffffffffffffffffffffffffffffffffffffffff1673ffffffffffffffffffffffffffffffffffffffff16815260200190815260200160002054146104f257600080fd5b6000600260003373ffffffffffffffffffffffffffffffffffffffff1673ffffffffffffffffffffffffffffffffffffffff16815260200190815260200160002054141561054457610543336109f8565b5b61058d600260003373ffffffffffffffffffffffffffffffffffffffff1673ffffffffffffffffffffffffffffffffffffffff1681526020019081526020016000205434610b6a565b600260003373ffffffffffffffffffffffffffffffffffffffff1673ffffffffffffffffffffffffffffffffffffffff1681526020019081526020016000208190555061061b600354600260003373ffffffffffffffffffffffffffffffffffffffff1673ffffffffffffffffffffffffffffffffffffffff16815260200190815260200160002054610b6a565b6003819055507fa398b89ba344a0b23a0b9de53db298b2a1a868b396c1878b7e9dcbafecd49b133334604051808373ffffffffffffffffffffffffffffffffffffffff1673ffffffffffffffffffffffffffffffffffffffff1681526020018281526020019250505060405180910390a1565b6000600460009054906101000a900473ffffffffffffffffffffffffffffffffffffffff1673ffffffffffffffffffffffffffffffffffffffff163373ffffffffffffffffffffffffffffffffffffffff16146106ea57600080fd5b6000600180549050116106fc57600080fd5b60008090505b6001805490508110156108d6576000610793600260006001858154811061072557fe5b9060005260206000200160009054906101000a900473ffffffffffffffffffffffffffffffffffffffff1673ffffffffffffffffffffffffffffffffffffffff1673ffffffffffffffffffffffffffffffffffffffff16815260200190815260200160002054600354610bf2565b905060006107a282600a610c3c565b905060008111156108c9576000809054906101000a900473ffffffffffffffffffffffffffffffffffffffff1673ffffffffffffffffffffffffffffffffffffffff1663a9059cbb600185815481106107f757fe5b9060005260206000200160009054906101000a900473ffffffffffffffffffffffffffffffffffffffff16836040518363ffffffff1660e01b8152600401808373ffffffffffffffffffffffffffffffffffffffff1673ffffffffffffffffffffffffffffffffffffffff16815260200182815260200192505050602060405180830381600087803b15801561088c57600080fd5b505af11580156108a0573d6000803e3d6000fd5b505050506040513d60208110156108b657600080fd5b8101908080519060200190929190505050505b5050600181019050610702565b506001905090565b6000809054906101000a900473ffffffffffffffffffffffffffffffffffffffff1681565b60008061090f83610a76565b9150915081156109ed576001808080549050038154811061092c57fe5b9060005260206000200160009054906101000a900473ffffffffffffffffffffffffffffffffffffffff166001828154811061096457fe5b9060005260206000200160006101000a81548173ffffffffffffffffffffffffffffffffffffffff021916908373ffffffffffffffffffffffffffffffffffffffff16021790555060018054806109b757fe5b6001900381819060005260206000200160006101000a81549073ffffffffffffffffffffffffffffffffffffffff021916905590555b505050565b60035481565b6000610a0382610a76565b50905080610a725760018290806001815401808255809150509060018203906000526020600020016000909192909190916101000a81548173ffffffffffffffffffffffffffffffffffffffff021916908373ffffffffffffffffffffffffffffffffffffffff160217905550505b5050565b60008060008090505b600180549050811015610b0f5760018181548110610a9957fe5b9060005260206000200160009054906101000a900473ffffffffffffffffffffffffffffffffffffffff1673ffffffffffffffffffffffffffffffffffffffff168473ffffffffffffffffffffffffffffffffffffffff161415610b04576001819250925050610b1b565b600181019050610a7f565b50600080809050915091505b915091565b6000610b6283836040518060400160405280601e81526020017f536166654d6174683a207375627472616374696f6e206f766572666c6f770000815250610cc2565b905092915050565b600080828401905083811015610be8576040517f08c379a000000000000000000000000000000000000000000000000000000000815260040180806020018281038252601b8152602001807f536166654d6174683a206164646974696f6e206f766572666c6f77000000000081525060200191505060405180910390fd5b8091505092915050565b6000610c3483836040518060400160405280601a81526020017f536166654d6174683a206469766973696f6e206279207a65726f000000000000815250610d82565b905092915050565b600080831415610c4f5760009050610cbc565b6000828402905082848281610c6057fe5b0414610cb7576040517f08c379a0000000000000000000000000000000000000000000000000000000008152600401808060200182810382526021815260200180610e496021913960400191505060405180910390fd5b809150505b92915050565b6000838311158290610d6f576040517f08c379a00000000000000000000000000000000000000000000000000000000081526004018080602001828103825283818151815260200191508051906020019080838360005b83811015610d34578082015181840152602081019050610d19565b50505050905090810190601f168015610d615780820380516001836020036101000a031916815260200191505b509250505060405180910390fd5b5060008385039050809150509392505050565b60008083118290610e2e576040517f08c379a00000000000000000000000000000000000000000000000000000000081526004018080602001828103825283818151815260200191508051906020019080838360005b83811015610df3578082015181840152602081019050610dd8565b50505050905090810190601f168015610e205780820380516001836020036101000a031916815260200191505b509250505060405180910390fd5b506000838581610e3a57fe5b04905080915050939250505056fe536166654d6174683a206d756c7469706c69636174696f6e206f766572666c6f77a265627a7a72315820c6d51d1fd8604a508afa7e4b22db8dd1d28863cfc0190d692d18a22fc73cffa064736f6c63430005100032",
  "source": "pragma solidity ^0.5.0;\r\n\r\nimport \"./Minion.sol\";\r\nimport \"@openzeppelin/contracts/math/SafeMath.sol\"; // Import for SafeMath purpose\r\n\r\ncontract ETH500Staking {\r\n    using SafeMath for uint256;\r\n\r\n    Minion public minionContract;\r\n    address[] internal stakeholders;\r\n    mapping(address => uint256) internal stakes; // Stakeholder's stake(s)\r\n    uint256 public totalStakes;\r\n\r\n    address owner;\r\n    // mapping(address => uint256) internal rewards; // Stakeholder's reward(s)\r\n    // uint256 internal totalRewards;\r\n\r\n    modifier onlyOwner() {\r\n        require(msg.sender == owner);\r\n        _;\r\n    }\r\n\r\n    event receivedEther(address, uint256);\r\n\r\n    constructor(Minion _minionContract) public {\r\n        minionContract = _minionContract; // Assign minion contract\r\n\r\n        owner = msg.sender; // Set owner of the contract\r\n    }\r\n\r\n    function isStakeholder(address _address)\r\n        public\r\n        view\r\n        returns (bool, uint256)\r\n    {\r\n        for (uint256 s = 0; s < stakeholders.length; s += 1) {\r\n            if (_address == stakeholders[s]) return (true, s);\r\n        }\r\n        return (false, 0);\r\n    }\r\n\r\n    // To add stakeholder if @param _stakeholder is not one\r\n    function addStakeholder(address _stakeholder) public {\r\n        (bool _isStakeholder, ) = isStakeholder(_stakeholder);\r\n        if (!_isStakeholder) stakeholders.push(_stakeholder);\r\n    }\r\n\r\n    // To remove a stakeholder if @param _stakeholder is one\r\n    function removeStakeholder(address _stakeholder) public {\r\n        (bool _isStakeholder, uint256 s) = isStakeholder(_stakeholder);\r\n        if (_isStakeholder) {\r\n            // Replace the current found stakeholder with the last stakeholder\r\n            stakeholders[s] = stakeholders[stakeholders.length - 1];\r\n\r\n            // Remove the last stakeholder\r\n            stakeholders.pop();\r\n        }\r\n    }\r\n\r\n    // To retrieve the stake of specific stakeholder\r\n    function stakeOf(address _stakeholder) public view returns (uint256) {\r\n        return stakes[_stakeholder];\r\n    }\r\n\r\n    // For user to deposit stake\r\n    function addStake() external payable {\r\n        require(stakes[msg.sender] == 0); // Make sure the user has no stake record\r\n\r\n        if (stakes[msg.sender] == 0) addStakeholder(msg.sender); // Add stakeholder to stakeholders list\r\n        stakes[msg.sender] = SafeMath.add(stakes[msg.sender], msg.value); // Add stake value\r\n\r\n        totalStakes = SafeMath.add(totalStakes, stakes[msg.sender]); // Add stake amount to total stakes\r\n\r\n        emit receivedEther(msg.sender, msg.value);\r\n    }\r\n\r\n    // For admin to clear stake\r\n    function clearStake() public returns (bool result) {\r\n        require(stakes[msg.sender] > 0); // Make sure stakeholder has stake\r\n\r\n        stakes[msg.sender] = SafeMath.sub(\r\n            stakes[msg.sender],\r\n            stakes[msg.sender]\r\n        );\r\n        if (stakes[msg.sender] == 0) removeStakeholder(msg.sender);\r\n\r\n        return true;\r\n    }\r\n\r\n    function distributeRewards() public onlyOwner returns (bool result) {\r\n        require(stakeholders.length > 0);\r\n\r\n        for (uint256 s = 0; s < stakeholders.length; s += 1) {\r\n            uint256 proportional = SafeMath.div(\r\n                stakes[stakeholders[s]],\r\n                totalStakes\r\n            );\r\n            uint256 reward = SafeMath.mul(proportional, 10);\r\n\r\n            if (reward > 0) minionContract.transfer(stakeholders[s], reward);\r\n        }\r\n\r\n        return true;\r\n    }\r\n\r\n    // function totalStakes() public view returns (uint256) {\r\n    //     uint256 _totalStakes = 0;\r\n    //     for (uint256 s = 0; s < stakeholders.length; s += 1) {\r\n    //         _totalStakes = add(_totalStakes, stakes[stakeholders[s]]); // Using openzeppelin/SafeMath \"add\" function\r\n    //     }\r\n\r\n    //     return _totalStakes;\r\n    // }\r\n\r\n    // function rewardOf(address _stakeholder) public view returns (uint256) {\r\n    //     uint256 _totalStakes = totalStakes();\r\n    //     uint256 _stakeholdersCount = stakesholder.length;\r\n\r\n    //     rewards[_stakeholder] = div(_stakeholdersCount, _totalStakes); // Reward of stakeholder = number of stakeholders / total stakes\r\n\r\n    //     require(rewards[_stakeholder] > 0);\r\n\r\n    //     return rewards[_stakeholder];\r\n    // }\r\n\r\n    // function totalRewards() public view returns (uint256) {\r\n    //     uint256 _totalRewards = 0;\r\n    //     for (uint256 s = 0; s < stakeholders.length; s += 1) {\r\n    //         _totalRewards = _totalRewards.add(rewards[stakeholders[s]]);\r\n    //     }\r\n\r\n    //     return _totalRewards;\r\n    // }\r\n\r\n    // function compoudRewards() public returns (bool result) {\r\n    //     uint256 _totalRewards = totalRewards();\r\n\r\n    //     require(_totalRewards > 0);\r\n\r\n    //     uint256 _interest = mul(_totalRewards, 10);\r\n\r\n    //     uint256 compoundedRewards = add(_totalRewards, _interest);\r\n    // }\r\n}\r\n",
  "sourcePath": "D:/dapps/custom-erc20-token/contracts/ETH500Staking.sol",
  "compiler": {
    "name": "solc",
    "version": "0.5.16+commit.9c3226ce.Emscripten.clang"
  },
  "schemaVersion": "3.3.0",
  "updatedAt": "2020-10-18T10:07:02.873Z",
  "devdoc": {
    "methods": {}
  },
  "userdoc": {
    "methods": {}
  }
}