{
  "contractName": "Minion1000Staking",
  "abi": [
    {
      "inputs": [],
      "payable": false,
      "stateMutability": "nonpayable",
      "type": "constructor"
    },
    {
      "anonymous": false,
      "inputs": [
        {
          "indexed": false,
          "internalType": "address",
          "name": "sender",
          "type": "address"
        },
        {
          "indexed": false,
          "internalType": "uint256",
          "name": "amount",
          "type": "uint256"
        }
      ],
      "name": "AddStake",
      "type": "event"
    },
    {
      "anonymous": false,
      "inputs": [
        {
          "indexed": false,
          "internalType": "address",
          "name": "stakeholder",
          "type": "address"
        },
        {
          "indexed": false,
          "internalType": "uint256",
          "name": "amount",
          "type": "uint256"
        }
      ],
      "name": "HarvestInterest",
      "type": "event"
    },
    {
      "anonymous": false,
      "inputs": [
        {
          "indexed": false,
          "internalType": "address",
          "name": "receiver",
          "type": "address"
        },
        {
          "indexed": false,
          "internalType": "uint256",
          "name": "amount",
          "type": "uint256"
        }
      ],
      "name": "WithdrawStake",
      "type": "event"
    },
    {
      "constant": true,
      "inputs": [],
      "name": "MinionInstance",
      "outputs": [
        {
          "internalType": "contract IERC20",
          "name": "",
          "type": "address"
        }
      ],
      "payable": false,
      "stateMutability": "view",
      "type": "function"
    },
    {
      "constant": true,
      "inputs": [],
      "name": "totalStakes",
      "outputs": [
        {
          "internalType": "uint256",
          "name": "",
          "type": "uint256"
        }
      ],
      "payable": false,
      "stateMutability": "view",
      "type": "function"
    },
    {
      "constant": true,
      "inputs": [],
      "name": "getStakeholders",
      "outputs": [
        {
          "internalType": "address[]",
          "name": "_stakeholders",
          "type": "address[]"
        }
      ],
      "payable": false,
      "stateMutability": "view",
      "type": "function"
    },
    {
      "constant": true,
      "inputs": [
        {
          "internalType": "address",
          "name": "_stakeholder",
          "type": "address"
        }
      ],
      "name": "stakeOf",
      "outputs": [
        {
          "internalType": "uint256",
          "name": "",
          "type": "uint256"
        }
      ],
      "payable": false,
      "stateMutability": "view",
      "type": "function"
    },
    {
      "constant": false,
      "inputs": [
        {
          "internalType": "address",
          "name": "_stakeholder",
          "type": "address"
        },
        {
          "internalType": "uint256",
          "name": "_amount",
          "type": "uint256"
        }
      ],
      "name": "addStake",
      "outputs": [
        {
          "internalType": "bool",
          "name": "_success",
          "type": "bool"
        }
      ],
      "payable": false,
      "stateMutability": "nonpayable",
      "type": "function"
    },
    {
      "constant": false,
      "inputs": [
        {
          "internalType": "address",
          "name": "_stakeholder",
          "type": "address"
        },
        {
          "internalType": "uint256",
          "name": "_amount",
          "type": "uint256"
        }
      ],
      "name": "withdrawStake",
      "outputs": [
        {
          "internalType": "bool",
          "name": "_success",
          "type": "bool"
        }
      ],
      "payable": false,
      "stateMutability": "nonpayable",
      "type": "function"
    },
    {
      "constant": false,
      "inputs": [
        {
          "internalType": "address",
          "name": "_stakeholder",
          "type": "address"
        },
        {
          "internalType": "uint256",
          "name": "_amount",
          "type": "uint256"
        }
      ],
      "name": "harvestInterest",
      "outputs": [
        {
          "internalType": "bool",
          "name": "_success",
          "type": "bool"
        }
      ],
      "payable": false,
      "stateMutability": "nonpayable",
      "type": "function"
    }
  ],
  "bytecode": "0x6080604052736d00b05f25f740231c76261d8fa1f132dfa4bc23600160006101000a81548173ffffffffffffffffffffffffffffffffffffffff021916908373ffffffffffffffffffffffffffffffffffffffff1602179055506509184e72a00060055534801561006f57600080fd5b50600160009054906101000a900473ffffffffffffffffffffffffffffffffffffffff166000806101000a81548173ffffffffffffffffffffffffffffffffffffffff021916908373ffffffffffffffffffffffffffffffffffffffff16021790555061166a806100e16000396000f3fe608060405234801561001057600080fd5b506004361061007d5760003560e01c80636374299e1161005b5780636374299e1461018a578063b6992247146101f0578063bf9befb11461024f578063c60662721461026d5761007d565b806342623360146100825780634b5c3949146100da5780634e0596fc14610140575b600080fd5b6100c46004803603602081101561009857600080fd5b81019080803573ffffffffffffffffffffffffffffffffffffffff1690602001909291905050506102d3565b6040518082815260200191505060405180910390f35b610126600480360360408110156100f057600080fd5b81019080803573ffffffffffffffffffffffffffffffffffffffff1690602001909291908035906020019092919050505061031c565b604051808215151515815260200191505060405180910390f35b61014861073d565b604051808273ffffffffffffffffffffffffffffffffffffffff1673ffffffffffffffffffffffffffffffffffffffff16815260200191505060405180910390f35b6101d6600480360360408110156101a057600080fd5b81019080803573ffffffffffffffffffffffffffffffffffffffff16906020019092919080359060200190929190505050610762565b604051808215151515815260200191505060405180910390f35b6101f8610adb565b6040518080602001828103825283818151815260200191508051906020019060200280838360005b8381101561023b578082015181840152602081019050610220565b505050509050019250505060405180910390f35b610257610b6c565b6040518082815260200191505060405180910390f35b6102b96004803603604081101561028357600080fd5b81019080803573ffffffffffffffffffffffffffffffffffffffff16906020019092919080359060200190929190505050610b72565b604051808215151515815260200191505060405180910390f35b6000600360008373ffffffffffffffffffffffffffffffffffffffff1673ffffffffffffffffffffffffffffffffffffffff168152602001908152602001600020549050919050565b6000806000809054906101000a900473ffffffffffffffffffffffffffffffffffffffff1673ffffffffffffffffffffffffffffffffffffffff166370a08231306040518263ffffffff1660e01b8152600401808273ffffffffffffffffffffffffffffffffffffffff1673ffffffffffffffffffffffffffffffffffffffff16815260200191505060206040518083038186803b1580156103bd57600080fd5b505afa1580156103d1573d6000803e3d6000fd5b505050506040513d60208110156103e757600080fd5b8101908080519060200190929190505050905082811015915081610456576040517f08c379a000000000000000000000000000000000000000000000000000000000815260040180806020018281038252604b8152602001806115eb604b913960600191505060405180910390fd5b600083119150816104b2576040517f08c379a00000000000000000000000000000000000000000000000000000000081526004018080602001828103825260338152602001806114c06033913960400191505060405180910390fd5b6000806104be86610ff8565b915091508193508361051b576040517f08c379a000000000000000000000000000000000000000000000000000000000815260040180806020018281038252603c815260200180611570603c913960400191505060405180910390fd5b846005541015935083610579576040517f08c379a000000000000000000000000000000000000000000000000000000000815260040180806020018281038252603f8152602001806115ac603f913960400191505060405180910390fd5b6000809054906101000a900473ffffffffffffffffffffffffffffffffffffffff1673ffffffffffffffffffffffffffffffffffffffff1663a9059cbb87876040518363ffffffff1660e01b8152600401808373ffffffffffffffffffffffffffffffffffffffff1673ffffffffffffffffffffffffffffffffffffffff16815260200182815260200192505050602060405180830381600087803b15801561062157600080fd5b505af1158015610635573d6000803e3d6000fd5b505050506040513d602081101561064b57600080fd5b81019080805190602001909291905050509350836106b4576040517f08c379a000000000000000000000000000000000000000000000000000000000815260040180806020018281038252604281526020018061152e6042913960600191505060405180910390fd5b6106c0600554866110a2565b6005819055507fbc6226d988f89521ff097caee942a5df225233597b2ccfb422d97e5bf5ab1a6e8686604051808373ffffffffffffffffffffffffffffffffffffffff1673ffffffffffffffffffffffffffffffffffffffff1681526020018281526020019250505060405180910390a183935050505092915050565b6000809054906101000a900473ffffffffffffffffffffffffffffffffffffffff1681565b60008082119050806107bf576040517f08c379a000000000000000000000000000000000000000000000000000000000815260040180806020018281038252603f815260200180611435603f913960400191505060405180910390fd5b6000809054906101000a900473ffffffffffffffffffffffffffffffffffffffff1673ffffffffffffffffffffffffffffffffffffffff166323b872dd8430856040518463ffffffff1660e01b8152600401808473ffffffffffffffffffffffffffffffffffffffff1673ffffffffffffffffffffffffffffffffffffffff1681526020018373ffffffffffffffffffffffffffffffffffffffff1673ffffffffffffffffffffffffffffffffffffffff1681526020018281526020019350505050602060405180830381600087803b15801561089b57600080fd5b505af11580156108af573d6000803e3d6000fd5b505050506040513d60208110156108c557600080fd5b810190808051906020019092919050505090508061092e576040517f08c379a00000000000000000000000000000000000000000000000000000000081526004018080602001828103825260488152602001806113ed6048913960600191505060405180910390fd5b6000600360008573ffffffffffffffffffffffffffffffffffffffff1673ffffffffffffffffffffffffffffffffffffffff1681526020019081526020016000205414156109bf5781600360008573ffffffffffffffffffffffffffffffffffffffff1673ffffffffffffffffffffffffffffffffffffffff16815260200190815260200160002081905550610a4c565b610a08600360008573ffffffffffffffffffffffffffffffffffffffff1673ffffffffffffffffffffffffffffffffffffffff16815260200190815260200160002054836110ec565b600360008573ffffffffffffffffffffffffffffffffffffffff1673ffffffffffffffffffffffffffffffffffffffff168152602001908152602001600020819055505b610a58600454836110ec565b600481905550610a6783611174565b7fef4919d049fef8ef69d1c2520df0e53841a2cc408d33a3ea5db9b63f1a80051c8383604051808373ffffffffffffffffffffffffffffffffffffffff1673ffffffffffffffffffffffffffffffffffffffff1681526020018281526020019250505060405180910390a180905092915050565b60606002805480602002602001604051908101604052809291908181526020018280548015610b5f57602002820191906000526020600020905b8160009054906101000a900473ffffffffffffffffffffffffffffffffffffffff1673ffffffffffffffffffffffffffffffffffffffff1681526020019060010190808311610b15575b5050505050905080905090565b60045481565b600081600360008573ffffffffffffffffffffffffffffffffffffffff1673ffffffffffffffffffffffffffffffffffffffff168152602001908152602001600020541015905080610c0f576040517f08c379a000000000000000000000000000000000000000000000000000000000815260040180806020018281038252603b8152602001806114f3603b913960400191505060405180910390fd5b60008060009054906101000a900473ffffffffffffffffffffffffffffffffffffffff1673ffffffffffffffffffffffffffffffffffffffff166370a08231306040518263ffffffff1660e01b8152600401808273ffffffffffffffffffffffffffffffffffffffff1673ffffffffffffffffffffffffffffffffffffffff16815260200191505060206040518083038186803b158015610caf57600080fd5b505afa158015610cc3573d6000803e3d6000fd5b505050506040513d6020811015610cd957600080fd5b810190808051906020019092919050505090506000610cf882856110a2565b9050600554811015925082610d58576040517f08c379a00000000000000000000000000000000000000000000000000000000081526004018080602001828103825260498152602001806113a46049913960600191505060405180910390fd5b6000809054906101000a900473ffffffffffffffffffffffffffffffffffffffff1673ffffffffffffffffffffffffffffffffffffffff1663a9059cbb86866040518363ffffffff1660e01b8152600401808373ffffffffffffffffffffffffffffffffffffffff1673ffffffffffffffffffffffffffffffffffffffff16815260200182815260200192505050602060405180830381600087803b158015610e0057600080fd5b505af1158015610e14573d6000803e3d6000fd5b505050506040513d6020811015610e2a57600080fd5b8101908080519060200190929190505050925082610e93576040517f08c379a000000000000000000000000000000000000000000000000000000000815260040180806020018281038252604c815260200180611474604c913960600191505060405180910390fd5b610edc600360008773ffffffffffffffffffffffffffffffffffffffff1673ffffffffffffffffffffffffffffffffffffffff16815260200190815260200160002054856110a2565b600360008773ffffffffffffffffffffffffffffffffffffffff1673ffffffffffffffffffffffffffffffffffffffff16815260200190815260200160002081905550610f2b600454856110a2565b6004819055506000600360008773ffffffffffffffffffffffffffffffffffffffff1673ffffffffffffffffffffffffffffffffffffffff1681526020019081526020016000205411610f8257610f81856111f2565b5b7f141ef67c4a6d3ec2adfb2f66d33c2b11de5b4f34344757554d430570b18a92ec8585604051808373ffffffffffffffffffffffffffffffffffffffff1673ffffffffffffffffffffffffffffffffffffffff1681526020018281526020019250505060405180910390a1829250505092915050565b60008060008090505b600280549050811015611091576002818154811061101b57fe5b9060005260206000200160009054906101000a900473ffffffffffffffffffffffffffffffffffffffff1673ffffffffffffffffffffffffffffffffffffffff168473ffffffffffffffffffffffffffffffffffffffff16141561108657600181925092505061109d565b600181019050611001565b50600080809050915091505b915091565b60006110e483836040518060400160405280601e81526020017f536166654d6174683a207375627472616374696f6e206f766572666c6f7700008152506112e3565b905092915050565b60008082840190508381101561116a576040517f08c379a000000000000000000000000000000000000000000000000000000000815260040180806020018281038252601b8152602001807f536166654d6174683a206164646974696f6e206f766572666c6f77000000000081525060200191505060405180910390fd5b8091505092915050565b600061117f82610ff8565b509050806111ee5760028290806001815401808255809150509060018203906000526020600020016000909192909190916101000a81548173ffffffffffffffffffffffffffffffffffffffff021916908373ffffffffffffffffffffffffffffffffffffffff160217905550505b5050565b6000806111fe83610ff8565b9150915081156112de5760026001600280549050038154811061121d57fe5b9060005260206000200160009054906101000a900473ffffffffffffffffffffffffffffffffffffffff166002828154811061125557fe5b9060005260206000200160006101000a81548173ffffffffffffffffffffffffffffffffffffffff021916908373ffffffffffffffffffffffffffffffffffffffff16021790555060028054806112a857fe5b6001900381819060005260206000200160006101000a81549073ffffffffffffffffffffffffffffffffffffffff021916905590555b505050565b6000838311158290611390576040517f08c379a00000000000000000000000000000000000000000000000000000000081526004018080602001828103825283818151815260200191508051906020019080838360005b8381101561135557808201518184015260208101905061133a565b50505050905090810190601f1680156113825780820380516001836020036101000a031916815260200191505b509250505060405180910390fd5b506000838503905080915050939250505056fe5b57697468647261775374616b65206661696c7572655d202d205769746864726177616c2063617573696e6720646564756374696f6e206f66206861727665737420726573657276655b4164645374616b65206661696c7572655d202d205374616b6520616d6f756e74206e6f74206265696e6720637265646974656420746f20636f6e74726163742062616c616e63655b4164645374616b65206661696c7572655d202d205374616b6520616d6f756e742063616e6e6f742062652030207768656e20616464696e67207374616b655b57697468647261775374616b65206661696c7572655d202d20416d6f756e74206e6f74206265696e6720637265646974656420746f207374616b65686f6c64657227732062616c616e63655b48617276657374496e746572657374206661696c7572655d202d2043616e6e6f7420686172766573742030204d696e696f6e5b57697468647261775374616b65206661696c7572655d202d20496e73756666696369656e74207374616b65206f66207374616b65686f6c6465725b48617276657374496e746572657374206661696c7572655d202d205472616e73666572206661696c6564206f6e204d696e696f6e3130303020636f6e74726163745b48617276657374496e746572657374206661696c7572655d202d20526571756573746572206973206e6f74206f7572207374616b65686f6c6465725b48617276657374496e746572657374206661696c7572655d202d20496e73756666696369656e742068617276657374207265736572766520616d6f756e745b48617276657374496e746572657374206661696c7572655d202d20496e73756666696369656e742062616c616e636520696e204d696e696f6e31303030207374616b696e6720706f6f6ca265627a7a723158205ec39eecd92ac1892d9da5b0d4c60002d2866d386c00ae06a2837f25e6c3184a64736f6c63430005100032",
  "source": "pragma solidity ^0.5.0;\r\n\r\nimport \"@openzeppelin/contracts/token/ERC20/ERC20.sol\";\r\nimport \"@openzeppelin/contracts/token/ERC20/SafeERC20.sol\";\r\n\r\ncontract Minion1000Staking {\r\n    using SafeERC20 for IERC20;\r\n    using SafeMath for uint256;\r\n    \r\n    IERC20 public MinionInstance;\r\n    address MinionAddress = 0x6d00B05F25F740231c76261D8Fa1F132DFA4Bc23;\r\n    address[] internal stakeholders;\r\n    mapping(address => uint256) internal stakes; // Stakeholder's stake(s)\r\n    uint256 public totalStakes;\r\n    uint256 internal harvestReserve = 10000000000000;\r\n    \r\n    event AddStake(address sender, uint256 amount);\r\n    event WithdrawStake(address receiver, uint256 amount);\r\n    event HarvestInterest(address stakeholder, uint256 amount);\r\n    \r\n    constructor() public {\r\n        MinionInstance = ERC20(MinionAddress);\r\n    }\r\n    \r\n    function isStakeholder(address _address)\r\n        internal\r\n        view\r\n        returns (bool, uint256)\r\n    {\r\n        for (uint256 s = 0; s < stakeholders.length; s += 1) {\r\n            if (_address == stakeholders[s]) return (true, s);\r\n        }\r\n        return (false, 0);\r\n    }\r\n    \r\n    function addStakeholder(address _stakeholder) internal {\r\n        (bool _isStakeholder, ) = isStakeholder(_stakeholder);\r\n        if (!_isStakeholder) stakeholders.push(_stakeholder);\r\n    }\r\n    \r\n    function removeStakeholder(address _stakeholder) internal {\r\n        (bool _isStakeholder, uint256 s) = isStakeholder(_stakeholder);\r\n        if (_isStakeholder) {\r\n            // Replace the current found stakeholder with the last stakeholder\r\n            stakeholders[s] = stakeholders[stakeholders.length - 1];\r\n\r\n            // Remove the last stakeholder\r\n            stakeholders.pop();\r\n        }\r\n    }\r\n    \r\n    function getStakeholders()\r\n        public\r\n        view\r\n        returns (address[] memory _stakeholders)\r\n    {\r\n        _stakeholders = stakeholders;\r\n        return _stakeholders;\r\n    }\r\n    \r\n    function stakeOf(address _stakeholder) public view returns (uint256) {\r\n        return stakes[_stakeholder];\r\n    }\r\n    \r\n    function addStake(address _stakeholder, uint256 _amount) public returns (bool _success) {\r\n        _success = (_amount > 0);\r\n        require(_success, \"[AddStake failure] - Stake amount cannot be 0 when adding stake\");\r\n        \r\n        _success = (MinionInstance.transferFrom(_stakeholder, address(this), _amount));\r\n        require(_success, \"[AddStake failure] - Stake amount not being credited to contract balance\");\r\n        \r\n        if (stakes[_stakeholder] == 0) {\r\n            stakes[_stakeholder] = _amount; // Create new stake for sender\r\n        }else{\r\n            stakes[_stakeholder] = SafeMath.add(stakes[_stakeholder], _amount); // Add amount to existing stake\r\n        }\r\n        \r\n        totalStakes = SafeMath.add(totalStakes, _amount);\r\n        \r\n        addStakeholder(_stakeholder);\r\n        \r\n        emit AddStake(_stakeholder, _amount);\r\n        \r\n        return _success;\r\n    }\r\n    \r\n    function withdrawStake(address _stakeholder, uint256 _amount)\r\n        public returns (bool _success)\r\n    {\r\n        _success = (stakes[_stakeholder] >= _amount);\r\n        require(_success, \"[WithdrawStake failure] - Insufficient stake of stakeholder\");\r\n        \r\n        uint256 _balanceOfContract = MinionInstance.balanceOf(address(this));\r\n        uint256 _balanceAfterWithdrawal = SafeMath.sub(_balanceOfContract, _amount);\r\n        _success = (_balanceAfterWithdrawal >= harvestReserve);\r\n        require(_success, \"[WithdrawStake failure] - Withdrawal causing deduction of harvest reserve\");\r\n        \r\n        _success = MinionInstance.transfer(_stakeholder, _amount);\r\n        require(_success, \"[WithdrawStake failure] - Amount not being credited to stakeholder's balance\");\r\n\r\n        stakes[_stakeholder] = SafeMath.sub(stakes[_stakeholder], _amount);\r\n\r\n        totalStakes = SafeMath.sub(totalStakes, _amount);\r\n\r\n        if (stakes[_stakeholder] <= 0) {\r\n            removeStakeholder(_stakeholder);\r\n        }\r\n\r\n        emit WithdrawStake(_stakeholder, _amount);\r\n        \r\n        return _success;\r\n    }\r\n    \r\n    function harvestInterest(address _stakeholder, uint256 _amount) public returns (bool _success) {\r\n        uint256 _balanceOfContract = MinionInstance.balanceOf(address(this));\r\n        _success = (_balanceOfContract >= _amount);\r\n        require(_success, \"[HarvestInterest failure] - Insufficient balance in Minion1000 staking pool\");\r\n\r\n        _success = (_amount > 0);\r\n        require(_success, \"[HarvestInterest failure] - Cannot harvest 0 Minion\");\r\n\r\n        (bool _isStakeholder, uint256 _s) = isStakeholder(_stakeholder);\r\n        _success = _isStakeholder;\r\n        require(_success, \"[HarvestInterest failure] - Requester is not our stakeholder\");\r\n        \r\n        _success = (harvestReserve >= _amount);\r\n        require(_success, \"[HarvestInterest failure] - Insufficient harvest reserve amount\");\r\n\r\n        _success = MinionInstance.transfer(_stakeholder, _amount);\r\n        require(_success, \"[HarvestInterest failure] - Transfer failed on Minion1000 contract\");\r\n        \r\n        harvestReserve = SafeMath.sub(harvestReserve, _amount);\r\n\r\n        emit HarvestInterest(_stakeholder, _amount);\r\n\r\n        return _success;\r\n    }\r\n}",
  "sourcePath": "D:/dapps/custom-erc20-token/contracts/Minion1000Staking.sol",
  "compiler": {
    "name": "solc",
    "version": "0.5.16+commit.9c3226ce.Emscripten.clang"
  },
  "schemaVersion": "3.3.2",
  "updatedAt": "2020-11-21T04:58:57.558Z",
  "networkType": "ethereum",
  "devdoc": {
    "methods": {}
  },
  "userdoc": {
    "methods": {}
  }
}