{
  "contractName": "Minion1500LP",
  "abi": [
    {
      "inputs": [],
      "payable": false,
      "stateMutability": "nonpayable",
      "type": "constructor"
    },
    {
      "anonymous": false,
      "inputs": [
        {
          "indexed": false,
          "internalType": "address",
          "name": "sender",
          "type": "address"
        },
        {
          "indexed": false,
          "internalType": "uint256",
          "name": "minionAmount",
          "type": "uint256"
        },
        {
          "indexed": false,
          "internalType": "uint256",
          "name": "ethAmount",
          "type": "uint256"
        }
      ],
      "name": "AddStake",
      "type": "event"
    },
    {
      "anonymous": false,
      "inputs": [
        {
          "indexed": false,
          "internalType": "address",
          "name": "stakeholder",
          "type": "address"
        },
        {
          "indexed": false,
          "internalType": "uint256",
          "name": "minionAmount",
          "type": "uint256"
        }
      ],
      "name": "HarvestInterest",
      "type": "event"
    },
    {
      "anonymous": false,
      "inputs": [
        {
          "indexed": false,
          "internalType": "address",
          "name": "receiver",
          "type": "address"
        },
        {
          "indexed": false,
          "internalType": "uint256",
          "name": "minionAmount",
          "type": "uint256"
        },
        {
          "indexed": false,
          "internalType": "uint256",
          "name": "ethAmount",
          "type": "uint256"
        }
      ],
      "name": "WithdrawStake",
      "type": "event"
    },
    {
      "constant": true,
      "inputs": [],
      "name": "MinionInstance",
      "outputs": [
        {
          "internalType": "contract IERC20",
          "name": "",
          "type": "address"
        }
      ],
      "payable": false,
      "stateMutability": "view",
      "type": "function"
    },
    {
      "constant": true,
      "inputs": [],
      "name": "ethTotalStakes",
      "outputs": [
        {
          "internalType": "uint256",
          "name": "",
          "type": "uint256"
        }
      ],
      "payable": false,
      "stateMutability": "view",
      "type": "function"
    },
    {
      "constant": true,
      "inputs": [],
      "name": "minionToEthRate",
      "outputs": [
        {
          "internalType": "uint256",
          "name": "",
          "type": "uint256"
        }
      ],
      "payable": false,
      "stateMutability": "view",
      "type": "function"
    },
    {
      "constant": true,
      "inputs": [],
      "name": "minionTotalStakes",
      "outputs": [
        {
          "internalType": "uint256",
          "name": "",
          "type": "uint256"
        }
      ],
      "payable": false,
      "stateMutability": "view",
      "type": "function"
    },
    {
      "constant": true,
      "inputs": [],
      "name": "getStakeholders",
      "outputs": [
        {
          "internalType": "address[]",
          "name": "_stakeholders",
          "type": "address[]"
        }
      ],
      "payable": false,
      "stateMutability": "view",
      "type": "function"
    },
    {
      "constant": true,
      "inputs": [
        {
          "internalType": "address",
          "name": "_stakeholder",
          "type": "address"
        }
      ],
      "name": "stakeOfMinion",
      "outputs": [
        {
          "internalType": "uint256",
          "name": "",
          "type": "uint256"
        }
      ],
      "payable": false,
      "stateMutability": "view",
      "type": "function"
    },
    {
      "constant": true,
      "inputs": [
        {
          "internalType": "address",
          "name": "_stakeholder",
          "type": "address"
        }
      ],
      "name": "stakeOfEth",
      "outputs": [
        {
          "internalType": "uint256",
          "name": "",
          "type": "uint256"
        }
      ],
      "payable": false,
      "stateMutability": "view",
      "type": "function"
    },
    {
      "constant": false,
      "inputs": [
        {
          "internalType": "address",
          "name": "_stakeholder",
          "type": "address"
        },
        {
          "internalType": "uint256",
          "name": "_amount",
          "type": "uint256"
        }
      ],
      "name": "addStake",
      "outputs": [
        {
          "internalType": "bool",
          "name": "_success",
          "type": "bool"
        }
      ],
      "payable": true,
      "stateMutability": "payable",
      "type": "function"
    },
    {
      "constant": false,
      "inputs": [
        {
          "internalType": "address payable",
          "name": "_stakeholder",
          "type": "address"
        },
        {
          "internalType": "uint256",
          "name": "_minionAmount",
          "type": "uint256"
        },
        {
          "internalType": "uint256",
          "name": "_ethAmount",
          "type": "uint256"
        }
      ],
      "name": "withdrawStake",
      "outputs": [
        {
          "internalType": "bool",
          "name": "_success",
          "type": "bool"
        }
      ],
      "payable": false,
      "stateMutability": "nonpayable",
      "type": "function"
    },
    {
      "constant": false,
      "inputs": [
        {
          "internalType": "address",
          "name": "_stakeholder",
          "type": "address"
        },
        {
          "internalType": "uint256",
          "name": "_amount",
          "type": "uint256"
        }
      ],
      "name": "harvestInterest",
      "outputs": [
        {
          "internalType": "bool",
          "name": "_success",
          "type": "bool"
        }
      ],
      "payable": false,
      "stateMutability": "nonpayable",
      "type": "function"
    }
  ],
  "bytecode": "0x6080604052736d00b05f25f740231c76261d8fa1f132dfa4bc23600160006101000a81548173ffffffffffffffffffffffffffffffffffffffff021916908373ffffffffffffffffffffffffffffffffffffffff160217905550650da475abf0006007556298968060085534801561007657600080fd5b50600160009054906101000a900473ffffffffffffffffffffffffffffffffffffffff166000806101000a81548173ffffffffffffffffffffffffffffffffffffffff021916908373ffffffffffffffffffffffffffffffffffffffff160217905550611f0a806100e86000396000f3fe6080604052600436106100915760003560e01c8063935b37a211610059578063935b37a214610256578063a3789e6a14610281578063b51ea536146102ac578063b699224714610311578063e7e67e621461037d57610091565b80630d36243a146100965780634b5c3949146100fb5780634e0596fc1461016e57806363436f65146101c55780636374299e146101f0575b600080fd5b3480156100a257600080fd5b506100e5600480360360208110156100b957600080fd5b81019080803573ffffffffffffffffffffffffffffffffffffffff1690602001909291905050506103fa565b6040518082815260200191505060405180910390f35b34801561010757600080fd5b506101546004803603604081101561011e57600080fd5b81019080803573ffffffffffffffffffffffffffffffffffffffff16906020019092919080359060200190929190505050610443565b604051808215151515815260200191505060405180910390f35b34801561017a57600080fd5b50610183610864565b604051808273ffffffffffffffffffffffffffffffffffffffff1673ffffffffffffffffffffffffffffffffffffffff16815260200191505060405180910390f35b3480156101d157600080fd5b506101da610889565b6040518082815260200191505060405180910390f35b61023c6004803603604081101561020657600080fd5b81019080803573ffffffffffffffffffffffffffffffffffffffff1690602001909291908035906020019092919050505061088f565b604051808215151515815260200191505060405180910390f35b34801561026257600080fd5b5061026b610e20565b6040518082815260200191505060405180910390f35b34801561028d57600080fd5b50610296610e26565b6040518082815260200191505060405180910390f35b3480156102b857600080fd5b506102fb600480360360208110156102cf57600080fd5b81019080803573ffffffffffffffffffffffffffffffffffffffff169060200190929190505050610e2c565b6040518082815260200191505060405180910390f35b34801561031d57600080fd5b50610326610e75565b6040518080602001828103825283818151815260200191508051906020019060200280838360005b8381101561036957808201518184015260208101905061034e565b505050509050019250505060405180910390f35b34801561038957600080fd5b506103e0600480360360608110156103a057600080fd5b81019080803573ffffffffffffffffffffffffffffffffffffffff1690602001909291908035906020019092919080359060200190929190505050610f06565b604051808215151515815260200191505060405180910390f35b6000600460008373ffffffffffffffffffffffffffffffffffffffff1673ffffffffffffffffffffffffffffffffffffffff168152602001908152602001600020549050919050565b6000806000809054906101000a900473ffffffffffffffffffffffffffffffffffffffff1673ffffffffffffffffffffffffffffffffffffffff166370a08231306040518263ffffffff1660e01b8152600401808273ffffffffffffffffffffffffffffffffffffffff1673ffffffffffffffffffffffffffffffffffffffff16815260200191505060206040518083038186803b1580156104e457600080fd5b505afa1580156104f8573d6000803e3d6000fd5b505050506040513d602081101561050e57600080fd5b810190808051906020019092919050505090508281101591508161057d576040517f08c379a0000000000000000000000000000000000000000000000000000000008152600401808060200182810382526045815260200180611d4f6045913960600191505060405180910390fd5b600083119150816105d9576040517f08c379a0000000000000000000000000000000000000000000000000000000008152600401808060200182810382526033815260200180611cef6033913960400191505060405180910390fd5b6000806105e586611686565b9150915081935083610642576040517f08c379a000000000000000000000000000000000000000000000000000000000815260040180806020018281038252603c815260200180611e65603c913960400191505060405180910390fd5b8460075410159350836106a0576040517f08c379a0000000000000000000000000000000000000000000000000000000008152600401808060200182810382526038815260200180611e2d6038913960400191505060405180910390fd5b6000809054906101000a900473ffffffffffffffffffffffffffffffffffffffff1673ffffffffffffffffffffffffffffffffffffffff1663a9059cbb87876040518363ffffffff1660e01b8152600401808373ffffffffffffffffffffffffffffffffffffffff1673ffffffffffffffffffffffffffffffffffffffff16815260200182815260200192505050602060405180830381600087803b15801561074857600080fd5b505af115801561075c573d6000803e3d6000fd5b505050506040513d602081101561077257600080fd5b81019080805190602001909291905050509350836107db576040517f08c379a000000000000000000000000000000000000000000000000000000000815260040180806020018281038252602b815260200180611c06602b913960400191505060405180910390fd5b6107e760075486611730565b6007819055507fbc6226d988f89521ff097caee942a5df225233597b2ccfb422d97e5bf5ab1a6e8686604051808373ffffffffffffffffffffffffffffffffffffffff1673ffffffffffffffffffffffffffffffffffffffff1681526020018281526020019250505060405180910390a183935050505092915050565b6000809054906101000a900473ffffffffffffffffffffffffffffffffffffffff1681565b60065481565b60008082119050806108ec576040517f08c379a000000000000000000000000000000000000000000000000000000000815260040180806020018281038252602e815260200180611c31602e913960400191505060405180910390fd5b60003411905080610948576040517f08c379a000000000000000000000000000000000000000000000000000000000815260040180806020018281038252602b815260200180611e02602b913960400191505060405180910390fd5b6000610954348461177a565b905060085481149150816109b3576040517f08c379a000000000000000000000000000000000000000000000000000000000815260040180806020018281038252602d815260200180611d22602d913960400191505060405180910390fd5b6000809054906101000a900473ffffffffffffffffffffffffffffffffffffffff1673ffffffffffffffffffffffffffffffffffffffff166323b872dd8530866040518463ffffffff1660e01b8152600401808473ffffffffffffffffffffffffffffffffffffffff1673ffffffffffffffffffffffffffffffffffffffff1681526020018373ffffffffffffffffffffffffffffffffffffffff1673ffffffffffffffffffffffffffffffffffffffff1681526020018281526020019350505050602060405180830381600087803b158015610a8f57600080fd5b505af1158015610aa3573d6000803e3d6000fd5b505050506040513d6020811015610ab957600080fd5b8101908080519060200190929190505050915081610b22576040517f08c379a0000000000000000000000000000000000000000000000000000000008152600401808060200182810382526048815260200180611bbe6048913960600191505060405180910390fd5b6000600360008673ffffffffffffffffffffffffffffffffffffffff1673ffffffffffffffffffffffffffffffffffffffff168152602001908152602001600020541415610bb35782600360008673ffffffffffffffffffffffffffffffffffffffff1673ffffffffffffffffffffffffffffffffffffffff16815260200190815260200160002081905550610c40565b610bfc600360008673ffffffffffffffffffffffffffffffffffffffff1673ffffffffffffffffffffffffffffffffffffffff16815260200190815260200160002054846117c4565b600360008673ffffffffffffffffffffffffffffffffffffffff1673ffffffffffffffffffffffffffffffffffffffff168152602001908152602001600020819055505b610c4c600554846117c4565b6005819055506000600460008673ffffffffffffffffffffffffffffffffffffffff1673ffffffffffffffffffffffffffffffffffffffff168152602001908152602001600020541415610ce35734600460008673ffffffffffffffffffffffffffffffffffffffff1673ffffffffffffffffffffffffffffffffffffffff16815260200190815260200160002081905550610d70565b610d2c600460008673ffffffffffffffffffffffffffffffffffffffff1673ffffffffffffffffffffffffffffffffffffffff16815260200190815260200160002054346117c4565b600460008673ffffffffffffffffffffffffffffffffffffffff1673ffffffffffffffffffffffffffffffffffffffff168152602001908152602001600020819055505b610d7c600654346117c4565b600681905550600080610d8e86611686565b9150915081610da157610da08661184c565b5b7f454558f821e516381f5735afdf706c1069e066bc2f6c62ac498eb191dc57b428868634604051808473ffffffffffffffffffffffffffffffffffffffff1673ffffffffffffffffffffffffffffffffffffffff168152602001838152602001828152602001935050505060405180910390a183935050505092915050565b60085481565b60055481565b6000600360008373ffffffffffffffffffffffffffffffffffffffff1673ffffffffffffffffffffffffffffffffffffffff168152602001908152602001600020549050919050565b60606002805480602002602001604051908101604052809291908181526020018280548015610ef957602002820191906000526020600020905b8160009054906101000a900473ffffffffffffffffffffffffffffffffffffffff1673ffffffffffffffffffffffffffffffffffffffff1681526020019060010190808311610eaf575b5050505050905080905090565b6000806000809054906101000a900473ffffffffffffffffffffffffffffffffffffffff1673ffffffffffffffffffffffffffffffffffffffff166370a08231306040518263ffffffff1660e01b8152600401808273ffffffffffffffffffffffffffffffffffffffff1673ffffffffffffffffffffffffffffffffffffffff16815260200191505060206040518083038186803b158015610fa757600080fd5b505afa158015610fbb573d6000803e3d6000fd5b505050506040513d6020811015610fd157600080fd5b810190808051906020019092919050505090506000610ff0848661177a565b9050600854811492508261104f576040517f08c379a0000000000000000000000000000000000000000000000000000000008152600401808060200182810382526035815260200180611ea16035913960400191505060405180910390fd5b848210159250826110ab576040517f08c379a0000000000000000000000000000000000000000000000000000000008152600401808060200182810382526041815260200180611c5f6041913960600191505060405180910390fd5b83471015925082611107576040517f08c379a000000000000000000000000000000000000000000000000000000000815260040180806020018281038252603e815260200180611d94603e913960400191505060405180910390fd5b84600360008873ffffffffffffffffffffffffffffffffffffffff1673ffffffffffffffffffffffffffffffffffffffff1681526020019081526020016000205410159250826111a2576040517f08c379a0000000000000000000000000000000000000000000000000000000008152600401808060200182810382526033815260200180611b426033913960400191505060405180910390fd5b83600460008873ffffffffffffffffffffffffffffffffffffffff1673ffffffffffffffffffffffffffffffffffffffff16815260200190815260200160002054101592508261123d576040517f08c379a0000000000000000000000000000000000000000000000000000000008152600401808060200182810382526030815260200180611dd26030913960400191505060405180910390fd5b60006112498387611730565b90506007548110159350836112a9576040517f08c379a0000000000000000000000000000000000000000000000000000000008152600401808060200182810382526049815260200180611b756049913960600191505060405180910390fd5b6000809054906101000a900473ffffffffffffffffffffffffffffffffffffffff1673ffffffffffffffffffffffffffffffffffffffff1663a9059cbb88886040518363ffffffff1660e01b8152600401808373ffffffffffffffffffffffffffffffffffffffff1673ffffffffffffffffffffffffffffffffffffffff16815260200182815260200192505050602060405180830381600087803b15801561135157600080fd5b505af1158015611365573d6000803e3d6000fd5b505050506040513d602081101561137b57600080fd5b81019080805190602001909291905050509350836113e4576040517f08c379a000000000000000000000000000000000000000000000000000000000815260040180806020018281038252604f815260200180611ca0604f913960600191505060405180910390fd5b8673ffffffffffffffffffffffffffffffffffffffff166108fc869081150290604051600060405180830381858888f1935050505015801561142a573d6000803e3d6000fd5b50611474600360008973ffffffffffffffffffffffffffffffffffffffff1673ffffffffffffffffffffffffffffffffffffffff1681526020019081526020016000205487611730565b600360008973ffffffffffffffffffffffffffffffffffffffff1673ffffffffffffffffffffffffffffffffffffffff168152602001908152602001600020819055506114c360055487611730565b600581905550611512600460008973ffffffffffffffffffffffffffffffffffffffff1673ffffffffffffffffffffffffffffffffffffffff1681526020019081526020016000205486611730565b600460008973ffffffffffffffffffffffffffffffffffffffff1673ffffffffffffffffffffffffffffffffffffffff1681526020019081526020016000208190555061156160065486611730565b6006819055506000600360008973ffffffffffffffffffffffffffffffffffffffff1673ffffffffffffffffffffffffffffffffffffffff16815260200190815260200160002054111580156115f757506000600460008973ffffffffffffffffffffffffffffffffffffffff1673ffffffffffffffffffffffffffffffffffffffff1681526020019081526020016000205411155b1561160657611605876118ca565b5b7f5f808ed47938c2c6ffcf1784b8a3171a0e8cb25d277b291b26475b303473bbb0878787604051808473ffffffffffffffffffffffffffffffffffffffff1673ffffffffffffffffffffffffffffffffffffffff168152602001838152602001828152602001935050505060405180910390a18393505050509392505050565b60008060008090505b60028054905081101561171f57600281815481106116a957fe5b9060005260206000200160009054906101000a900473ffffffffffffffffffffffffffffffffffffffff1673ffffffffffffffffffffffffffffffffffffffff168473ffffffffffffffffffffffffffffffffffffffff16141561171457600181925092505061172b565b60018101905061168f565b50600080809050915091505b915091565b600061177283836040518060400160405280601e81526020017f536166654d6174683a207375627472616374696f6e206f766572666c6f7700008152506119bb565b905092915050565b60006117bc83836040518060400160405280601a81526020017f536166654d6174683a206469766973696f6e206279207a65726f000000000000815250611a7b565b905092915050565b600080828401905083811015611842576040517f08c379a000000000000000000000000000000000000000000000000000000000815260040180806020018281038252601b8152602001807f536166654d6174683a206164646974696f6e206f766572666c6f77000000000081525060200191505060405180910390fd5b8091505092915050565b600061185782611686565b509050806118c65760028290806001815401808255809150509060018203906000526020600020016000909192909190916101000a81548173ffffffffffffffffffffffffffffffffffffffff021916908373ffffffffffffffffffffffffffffffffffffffff160217905550505b5050565b6000806118d683611686565b9150915081156119b6576002600160028054905003815481106118f557fe5b9060005260206000200160009054906101000a900473ffffffffffffffffffffffffffffffffffffffff166002828154811061192d57fe5b9060005260206000200160006101000a81548173ffffffffffffffffffffffffffffffffffffffff021916908373ffffffffffffffffffffffffffffffffffffffff160217905550600280548061198057fe5b6001900381819060005260206000200160006101000a81549073ffffffffffffffffffffffffffffffffffffffff021916905590555b505050565b6000838311158290611a68576040517f08c379a00000000000000000000000000000000000000000000000000000000081526004018080602001828103825283818151815260200191508051906020019080838360005b83811015611a2d578082015181840152602081019050611a12565b50505050905090810190601f168015611a5a5780820380516001836020036101000a031916815260200191505b509250505060405180910390fd5b5060008385039050809150509392505050565b60008083118290611b27576040517f08c379a00000000000000000000000000000000000000000000000000000000081526004018080602001828103825283818151815260200191508051906020019080838360005b83811015611aec578082015181840152602081019050611ad1565b50505050905090810190601f168015611b195780820380516001836020036101000a031916815260200191505b509250505060405180910390fd5b506000838581611b3357fe5b04905080915050939250505056fe5b57697468647261775374616b65206661696c7572655d202d20496e73756666696369656e74204d696e696f6e207374616b655b57697468647261775374616b65206661696c7572655d202d205769746864726177616c2063617573696e6720646564756374696f6e206f66206861727665737420726573657276655b4164645374616b65206661696c7572655d202d205374616b6520616d6f756e74206e6f74206265696e6720637265646974656420746f20636f6e74726163742062616c616e63655b48617276657374496e746572657374206661696c7572655d202d205472616e73666572206661696c65645b4164645374616b65206661696c7572655d202d204d696e696f6e20616d6f756e742063616e6e6f7420626520305b57697468647261775374616b65206661696c7572655d202d20496e73756666696369656e74204d696e696f6e2062616c616e636520696e20636f6e74726163745b57697468647261775374616b65206661696c7572655d202d204d696e696f6e206e6f74206265696e67207472616e7366657272656420746f207374616b65686f6c64657227732062616c616e63655b48617276657374496e746572657374206661696c7572655d202d2043616e6e6f7420686172766573742030204d696e696f6e5b4164645374616b65206661696c7572655d202d205374616b696e672072617465206e6f7420616c6c6f7765645b48617276657374496e746572657374206661696c7572655d202d20496e73756666696369656e742062616c616e636520696e204d696e696f6e4c5020636f6e74726163745b57697468647261775374616b65206661696c7572655d202d20496e73756666696369656e74204554482062616c616e636520696e20636f6e74726163745b57697468647261775374616b65206661696c7572655d202d20496e73756666696369656e7420455448207374616b655b4164645374616b65206661696c7572655d202d2045544820616d6f756e742063616e6e6f7420626520305b48617276657374496e746572657374206661696c7572655d202d20496e73756666696369656e74206861727665737420726573657276655b48617276657374496e746572657374206661696c7572655d202d20526571756573746572206973206e6f74206f7572207374616b65686f6c6465725b57697468647261775374616b65206661696c7572655d202d205769746864726177616c2072617465206e6f7420616c6c6f776564a265627a7a72315820be66612c3b2ff3e83dc068aceb1357427519c89d4184a39a1443cb650651b82264736f6c63430005100032",
  "source": "pragma solidity ^0.5.0;\r\n\r\nimport \"@openzeppelin/contracts/token/ERC20/ERC20.sol\";\r\nimport \"@openzeppelin/contracts/token/ERC20/SafeERC20.sol\";\r\n\r\ncontract Minion1500LP {\r\n    using SafeERC20 for IERC20;\r\n    using SafeMath for uint256;\r\n    \r\n    IERC20 public MinionInstance;\r\n    address MinionAddress = 0x6d00B05F25F740231c76261D8Fa1F132DFA4Bc23;\r\n    address[] internal stakeholders;\r\n    mapping(address => uint256) internal minionStakes; // Stakeholder's Minion stake(s)\r\n    mapping(address => uint256) internal ethStakes; // Stakeholder's Ether stake(s)\r\n    uint256 public minionTotalStakes;\r\n    uint256 public ethTotalStakes;\r\n    uint256 internal harvestReserve = 15000000000000;\r\n    uint256 public minionToEthRate = 10000000;\r\n    \r\n    event AddStake(address sender, uint256 minionAmount, uint256 ethAmount);\r\n    event WithdrawStake(address receiver, uint256 minionAmount, uint256 ethAmount);\r\n    event HarvestInterest(address stakeholder, uint256 minionAmount);\r\n    \r\n    constructor() public {\r\n        MinionInstance = ERC20(MinionAddress);\r\n    }\r\n    \r\n    function isStakeholder(address _address)\r\n        internal\r\n        view\r\n        returns (bool, uint256)\r\n    {\r\n        for (uint256 s = 0; s < stakeholders.length; s += 1) {\r\n            if (_address == stakeholders[s]) return (true, s);\r\n        }\r\n        return (false, 0);\r\n    }\r\n    \r\n    function addStakeholder(address _stakeholder) internal {\r\n        (bool _isStakeholder, ) = isStakeholder(_stakeholder);\r\n        if (!_isStakeholder) stakeholders.push(_stakeholder);\r\n    }\r\n    \r\n    function removeStakeholder(address _stakeholder) internal {\r\n        (bool _isStakeholder, uint256 s) = isStakeholder(_stakeholder);\r\n        if (_isStakeholder) {\r\n            // Replace the current found stakeholder with the last stakeholder\r\n            stakeholders[s] = stakeholders[stakeholders.length - 1];\r\n\r\n            // Remove the last stakeholder\r\n            stakeholders.pop();\r\n        }\r\n    }\r\n    \r\n    function getStakeholders()\r\n        public\r\n        view\r\n        returns (address[] memory _stakeholders)\r\n    {\r\n        _stakeholders = stakeholders;\r\n        return _stakeholders;\r\n    }\r\n    \r\n    function stakeOfMinion(address _stakeholder) public view returns (uint256) {\r\n        return minionStakes[_stakeholder];\r\n    }\r\n    \r\n    function stakeOfEth(address _stakeholder) public view returns (uint256) {\r\n        return ethStakes[_stakeholder];\r\n    }\r\n    \r\n    function addStake(address _stakeholder, uint256 _amount) public payable returns (bool _success) {\r\n        _success = (_amount > 0);\r\n        require(_success, \"[AddStake failure] - Minion amount cannot be 0\");\r\n        \r\n        _success = (msg.value > 0);\r\n        require(_success, \"[AddStake failure] - ETH amount cannot be 0\");\r\n        \r\n        uint256 _addStakeRatio = SafeMath.div(msg.value, _amount);\r\n        _success = (_addStakeRatio == minionToEthRate);\r\n        require(_success, \"[AddStake failure] - Staking rate not allowed\");\r\n        \r\n        _success = (MinionInstance.transferFrom(_stakeholder, address(this), _amount));\r\n        require(_success, \"[AddStake failure] - Stake amount not being credited to contract balance\");\r\n        \r\n        if (minionStakes[_stakeholder] == 0) {\r\n            minionStakes[_stakeholder] = _amount;   // Create new Minion stake for sender\r\n        }else{\r\n            minionStakes[_stakeholder] = SafeMath.add(minionStakes[_stakeholder], _amount); // Add amount to existing Minion stake\r\n        }\r\n        \r\n        minionTotalStakes = SafeMath.add(minionTotalStakes, _amount);\r\n        \r\n        if(ethStakes[_stakeholder] == 0) {\r\n            ethStakes[_stakeholder] = msg.value;    // Create new ETH stake for sender\r\n        }else{\r\n            ethStakes[_stakeholder] = SafeMath.add(ethStakes[_stakeholder], msg.value);   // Add amount to existing ETH stake \r\n        }\r\n        \r\n        ethTotalStakes = SafeMath.add(ethTotalStakes, msg.value);\r\n        \r\n        (bool _isStakeholder, uint256 _s) = isStakeholder(_stakeholder);\r\n        \r\n        if(!_isStakeholder) {\r\n            addStakeholder(_stakeholder);\r\n        }\r\n        \r\n        emit AddStake(_stakeholder, _amount, msg.value);\r\n        \r\n        return _success;\r\n    }\r\n    \r\n    function withdrawStake(address payable _stakeholder, uint256 _minionAmount, uint256 _ethAmount)\r\n        public returns (bool _success)\r\n    {\r\n        uint256 _minionBalanceOfContract = MinionInstance.balanceOf(address(this));\r\n        \r\n        uint256 _addStakeRatio = SafeMath.div(_ethAmount, _minionAmount);\r\n        _success = (_addStakeRatio == minionToEthRate);\r\n        require(_success, \"[WithdrawStake failure] - Withdrawal rate not allowed\");\r\n        \r\n        _success = (_minionBalanceOfContract >= _minionAmount);\r\n        require(_success, \"[WithdrawStake failure] - Insufficient Minion balance in contract\");\r\n        \r\n        _success = (address(this).balance >= _ethAmount);\r\n        require(_success, \"[WithdrawStake failure] - Insufficient ETH balance in contract\");\r\n        \r\n        _success = (minionStakes[_stakeholder] >= _minionAmount);\r\n        require(_success, \"[WithdrawStake failure] - Insufficient Minion stake\");\r\n        \r\n        _success = (ethStakes[_stakeholder] >= _ethAmount);\r\n        require(_success, \"[WithdrawStake failure] - Insufficient ETH stake\");\r\n        \r\n        uint256 _minionBalanceAfterWithdrawal = SafeMath.sub(_minionBalanceOfContract, _minionAmount);\r\n        _success = (_minionBalanceAfterWithdrawal >= harvestReserve);\r\n        require(_success, \"[WithdrawStake failure] - Withdrawal causing deduction of harvest reserve\");\r\n        \r\n        _success = MinionInstance.transfer(_stakeholder, _minionAmount);\r\n        require(_success, \"[WithdrawStake failure] - Minion not being transferred to stakeholder's balance\");\r\n        \r\n        _stakeholder.transfer(_ethAmount);\r\n\r\n        // Subtract Minion stakes of stakeholder\r\n        minionStakes[_stakeholder] = SafeMath.sub(minionStakes[_stakeholder], _minionAmount);\r\n        minionTotalStakes = SafeMath.sub(minionTotalStakes, _minionAmount);\r\n        \r\n        // Subtract ETH stakes of stakeholder\r\n        ethStakes[_stakeholder] = SafeMath.sub(ethStakes[_stakeholder], _ethAmount);\r\n        ethTotalStakes = SafeMath.sub(ethTotalStakes, _ethAmount);\r\n\r\n        if (minionStakes[_stakeholder] <= 0 && ethStakes[_stakeholder] <= 0) {\r\n            removeStakeholder(_stakeholder);\r\n        }\r\n\r\n        emit WithdrawStake(_stakeholder, _minionAmount, _ethAmount);\r\n        \r\n        return _success;\r\n    }\r\n    \r\n    function harvestInterest(address _stakeholder, uint256 _amount) public returns (bool _success) {\r\n        uint256 _balanceOfContract = MinionInstance.balanceOf(address(this));\r\n        _success = (_balanceOfContract >= _amount);\r\n        require(_success, \"[HarvestInterest failure] - Insufficient balance in MinionLP contract\");\r\n\r\n        _success = (_amount > 0);\r\n        require(_success, \"[HarvestInterest failure] - Cannot harvest 0 Minion\");\r\n\r\n        (bool _isStakeholder, uint256 _s) = isStakeholder(_stakeholder);\r\n        _success = _isStakeholder;\r\n        require(_success, \"[HarvestInterest failure] - Requester is not our stakeholder\");\r\n        \r\n        _success = (harvestReserve >= _amount);\r\n        require(_success, \"[HarvestInterest failure] - Insufficient harvest reserve\");\r\n\r\n        _success = MinionInstance.transfer(_stakeholder, _amount);\r\n        require(_success, \"[HarvestInterest failure] - Transfer failed\");\r\n        \r\n        harvestReserve = SafeMath.sub(harvestReserve, _amount);\r\n\r\n        emit HarvestInterest(_stakeholder, _amount);\r\n\r\n        return _success;\r\n    }\r\n}",
  "sourcePath": "D:/dapps/custom-erc20-token/contracts/Minion1500LP.sol",
  "compiler": {
    "name": "solc",
    "version": "0.5.16+commit.9c3226ce.Emscripten.clang"
  },
  "schemaVersion": "3.3.2",
  "updatedAt": "2020-11-30T11:05:45.531Z",
  "networkType": "ethereum",
  "devdoc": {
    "methods": {}
  },
  "userdoc": {
    "methods": {}
  }
}