{
  "contractName": "NewToken",
  "abi": [
    {
      "constant": true,
      "inputs": [],
      "name": "totalSupply",
      "outputs": [
        {
          "name": "",
          "type": "uint256"
        }
      ],
      "payable": false,
      "stateMutability": "view",
      "type": "function",
      "signature": "0x18160ddd"
    },
    {
      "inputs": [],
      "payable": false,
      "stateMutability": "nonpayable",
      "type": "constructor",
      "signature": "constructor"
    }
  ],
  "bytecode": "0x608060405234801561001057600080fd5b50620f4240600081905550609e806100296000396000f3fe608060405260043610603f576000357c0100000000000000000000000000000000000000000000000000000000900463ffffffff16806318160ddd146044575b600080fd5b348015604f57600080fd5b506056606c565b6040518082815260200191505060405180910390f35b6000548156fea165627a7a72305820d8d783ab28d8912d32e03636336e89ac4f5c7bb093e93a44a555a3211422b1c50029",
  "source": "pragma solidity ^0.5.0;\r\n\r\ncontract NewToken {\r\n    // Constructor\r\n    // Set the total number of tokens\r\n    // Read the total number of tokens\r\n    uint256 public totalSupply;\r\n\r\n    constructor() public {\r\n        totalSupply = 1000000;\r\n    }\r\n}\r\n",
  "sourcePath": "D:/dapps/custom-erc20-token/contracts/NewToken.sol",
  "compiler": {
    "name": "solc",
    "version": "0.5.0+commit.1d4f565a.Emscripten.clang"
  },
  "schemaVersion": "3.0.1",
  "updatedAt": "2020-08-30T14:07:13.495Z",
  "devdoc": {
    "methods": {}
  },
  "userdoc": {
    "methods": {}
  }
}