{
  "contractName": "NewTokenSale",
  "abi": [
    {
      "constant": true,
      "inputs": [],
      "name": "tokenSold",
      "outputs": [
        {
          "name": "",
          "type": "uint256"
        }
      ],
      "payable": false,
      "stateMutability": "view",
      "type": "function",
      "signature": "0x519ee19e"
    },
    {
      "constant": true,
      "inputs": [],
      "name": "tokenContract",
      "outputs": [
        {
          "name": "",
          "type": "address"
        }
      ],
      "payable": false,
      "stateMutability": "view",
      "type": "function",
      "signature": "0x55a373d6"
    },
    {
      "constant": true,
      "inputs": [],
      "name": "tokenPrice",
      "outputs": [
        {
          "name": "",
          "type": "uint256"
        }
      ],
      "payable": false,
      "stateMutability": "view",
      "type": "function",
      "signature": "0x7ff9b596"
    },
    {
      "inputs": [
        {
          "name": "_tokenContract",
          "type": "address"
        },
        {
          "name": "_tokenPrice",
          "type": "uint256"
        }
      ],
      "payable": false,
      "stateMutability": "nonpayable",
      "type": "constructor",
      "signature": "constructor"
    },
    {
      "anonymous": false,
      "inputs": [
        {
          "indexed": false,
          "name": "_buyer",
          "type": "address"
        },
        {
          "indexed": false,
          "name": "_amount",
          "type": "uint256"
        }
      ],
      "name": "Sell",
      "type": "event",
      "signature": "0x5e5e995ce3133561afceaa51a9a154d5db228cd7525d34df5185582c18d3df09"
    },
    {
      "constant": false,
      "inputs": [
        {
          "name": "_numberOfTokens",
          "type": "uint256"
        }
      ],
      "name": "buyTokens",
      "outputs": [],
      "payable": true,
      "stateMutability": "payable",
      "type": "function",
      "signature": "0x3610724e"
    }
  ],
  "bytecode": "0x608060405234801561001057600080fd5b5060405160408061044f8339810180604052604081101561003057600080fd5b810190808051906020019092919080519060200190929190505050336000806101000a81548173ffffffffffffffffffffffffffffffffffffffff021916908373ffffffffffffffffffffffffffffffffffffffff16021790555081600160006101000a81548173ffffffffffffffffffffffffffffffffffffffff021916908373ffffffffffffffffffffffffffffffffffffffff16021790555080600281905550505061036b806100e46000396000f3fe608060405260043610610062576000357c0100000000000000000000000000000000000000000000000000000000900463ffffffff1680633610724e14610067578063519ee19e1461009557806355a373d6146100c05780637ff9b59614610117575b600080fd5b6100936004803603602081101561007d57600080fd5b8101908080359060200190929190505050610142565b005b3480156100a157600080fd5b506100aa6102dd565b6040518082815260200191505060405180910390f35b3480156100cc57600080fd5b506100d56102e3565b604051808273ffffffffffffffffffffffffffffffffffffffff1673ffffffffffffffffffffffffffffffffffffffff16815260200191505060405180910390f35b34801561012357600080fd5b5061012c610309565b6040518082815260200191505060405180910390f35b61014e8160025461030f565b3414151561015b57600080fd5b80600160009054906101000a900473ffffffffffffffffffffffffffffffffffffffff1673ffffffffffffffffffffffffffffffffffffffff166370a08231306040518263ffffffff167c0100000000000000000000000000000000000000000000000000000000028152600401808273ffffffffffffffffffffffffffffffffffffffff1673ffffffffffffffffffffffffffffffffffffffff16815260200191505060206040518083038186803b15801561021757600080fd5b505afa15801561022b573d6000803e3d6000fd5b505050506040513d602081101561024157600080fd5b81019080805190602001909291905050501015151561025f57600080fd5b806003600082825401925050819055507f5e5e995ce3133561afceaa51a9a154d5db228cd7525d34df5185582c18d3df093382604051808373ffffffffffffffffffffffffffffffffffffffff1673ffffffffffffffffffffffffffffffffffffffff1681526020018281526020019250505060405180910390a150565b60035481565b600160009054906101000a900473ffffffffffffffffffffffffffffffffffffffff1681565b60025481565b60008082148061032e5750828283850292508281151561032b57fe5b04145b151561033957600080fd5b9291505056fea165627a7a72305820156bf60d86724fc58159982cae4ae932b2b448e0ea470217d4f509d114a257ed0029",
  "source": "pragma solidity ^0.5.0;\r\n\r\nimport \"./NewToken.sol\";\r\n\r\ncontract NewTokenSale {\r\n    address admin; // Not using \"public\" to prevent admin's address exposing\r\n    NewToken public tokenContract; // Set tokenContract function for test use\r\n    uint256 public tokenPrice;\r\n    uint256 public tokenSold;\r\n\r\n    event Sell(address _buyer, uint256 _amount);\r\n\r\n    constructor(NewToken _tokenContract, uint256 _tokenPrice) public {\r\n        // Assign an admin\r\n        admin = msg.sender;\r\n\r\n        // Assign token contract\r\n        tokenContract = _tokenContract;\r\n\r\n        // Set token price\r\n        tokenPrice = _tokenPrice;\r\n    }\r\n\r\n    // Multiply library, referenced from external library \"ds-math\" https://github.com/dapphub/ds-math\r\n    // Keyword \"internal\" to only allows the internal calling in this contract\r\n    // Keyword \"pure\" to ensure this is a pure function without writing transaction to blockchain\r\n    function multiply(uint256 x, uint256 y) internal pure returns (uint256 z) {\r\n        require(y == 0 || (z = x * y) / y == x);\r\n    }\r\n\r\n    // Buy tokens\r\n    // The \"payable\" function will allow this contract to receive ether, and also will store the value in msg.value\r\n    function buyTokens(uint256 _numberOfTokens) public payable {\r\n        // Require that value is equal to tokens\r\n        require(msg.value == multiply(_numberOfTokens, tokenPrice));\r\n\r\n        // Require that the contract has enough tokens\r\n        require(tokenContract.balanceOf(address(this)) >= _numberOfTokens);\r\n\r\n        // Require that a transfer is successful\r\n\r\n        // Keep track of token sold\r\n        tokenSold += _numberOfTokens;\r\n\r\n        // Trigger sell event\r\n        emit Sell(msg.sender, _numberOfTokens);\r\n    }\r\n}\r\n",
  "sourcePath": "D:/dapps/custom-erc20-token/contracts/NewTokenSale.sol",
  "compiler": {
    "name": "solc",
    "version": "0.5.0+commit.1d4f565a.Emscripten.clang"
  },
  "schemaVersion": "3.0.1",
  "updatedAt": "2020-09-20T07:18:27.824Z",
  "devdoc": {
    "methods": {}
  },
  "userdoc": {
    "methods": {}
  }
}